:020000040800F2
:1000000000090020D5040008012A00088129000801
:10001000D929000881290008AD290008D704000863
:10002000D7040008D7040008D7040008B539000831
:10003000D7040008D7040008D7040008D704000834
:10004000D7040008D7040008D7040008D704000824
:10005000D7040008D7040008F963000821640008E9
:10006000496400087164000899640008D704000816
:10007000D7040008D7040008D7040008D7040008F4
:10008000D7040008D7040008D7040008C5250008D5
:10009000F125000801260008D7040008C164000803
:1000A000D7040008D7040008D7040008D7040008C4
:1000B000A9650008D7040008D7040008D704000881
:1000C000D7040008D7040008D7040008D7040008A4
:1000D000D7040008D704000895650008D704000875
:1000E00025650008D7040008D7040008D7040008D5
:1000F000D7040008D7040008D7040008D704000874
:10010000D7040008D7040008D7040008D704000863
:10011000D7040008D7040008D7040008D704000853
:10012000D7040008D7040008D7040008D704000843
:10013000D7040008D7040008D7040008D704000833
:10014000D7040008D7040008D7040008595A00084B
:10015000D7040008D7040008D7040008D704000813
:10016000D7040008D7040008D7040008D704000803
:10017000D7040008D7040008D7040008D7040008F3
:10018000D7040008D7040008D7040008D7040008E3
:10019000D7040008D7040008D7040008D7040008D3
:1001A000D7040008D7040008D7040008D7040008C3
:1001B000D7040008D7040008D7040008D7040008B3
:1001C000A917000800000000000000000000000067
:1001D00053B94AB9002908BF00281CBF4FF0FF31AE
:1001E0004FF0FF3000F074B9ADF1080C6DE904CEAA
:1001F00000F006F8DDF804E0DDE9022304B0704702
:100200002DE9F047089D04468E46002B4DD18A42C9
:10021000944669D9B2FA82F252B101FA02F3C2F1FC
:10022000200120FA01F10CFA02FC41EA030E94408D
:100230004FEA1C48210CBEFBF8F61FFA8CF708FBAE
:1002400016E341EA034306FB07F199420AD91CEB86
:10025000030306F1FF3080F01F81994240F21C81B8
:10026000023E63445B1AA4B2B3FBF8F008FB103300
:1002700044EA034400FB07F7A7420AD91CEB040435
:1002800000F1FF3380F00A81A74240F20781644405
:10029000023840EA0640E41B00261DB1D44000238A
:1002A000C5E900433146BDE8F0878B4209D9002DEE
:1002B00000F0EF800026C5E9000130463146BDE878
:1002C000F087B3FA83F6002E4AD18B4202D38242E2
:1002D00000F2F980841A61EB030301209E46002D91
:1002E000E0D0C5E9004EDDE702B9FFDEB2FA82F2E6
:1002F000002A40F09280A1EB0C014FEA1C471FFA44
:100300008CFE0126200CB1FBF7F307FB131140EA2A
:1003100001410EFB03F0884208D91CEB010103F1F7
:10032000FF3802D2884200F2CB804346091AA4B2B9
:10033000B1FBF7F007FB101144EA01440EFB00FE8D
:10034000A64508D91CEB040400F1FF3102D2A645F2
:1003500000F2BB800846A4EB0E0440EA03409CE791
:10036000C6F12007B34022FA07FC4CEA030C20FA3E
:1003700007F401FA06F31C43F9404FEA1C4900FA5E
:1003800006F3B1FBF9F8200C1FFA8CFE09FB1811DB
:1003900040EA014108FB0EF0884202FA06F20BD94E
:1003A0001CEB010108F1FF3A80F08880884240F29E
:1003B0008580A8F102086144091AA4B2B1FBF9F0E2
:1003C00009FB101144EA014100FB0EFE8E4508D9DD
:1003D0001CEB010100F1FF346CD28E456AD9023862
:1003E000614440EA0840A0FB0294A1EB0E01A14247
:1003F000C846A64656D353D05DB1B3EB080261EBB5
:100400000E0101FA07F722FA06F3F1401F43C5E98E
:10041000007100263146BDE8F087C2F12003D840C4
:100420000CFA02FC21FA03F3914001434FEA1C4706
:100430001FFA8CFEB3FBF7F007FB10360B0C43EAF8
:10044000064300FB0EF69E4204FA02F408D91CEBA8
:10045000030300F1FF382FD29E422DD902386344A6
:100460009B1B89B2B3FBF7F607FB163341EA034146
:1004700006FB0EF38B4208D91CEB010106F1FF3895
:1004800016D28B4214D9023E6144C91A46EA00468C
:1004900038E72E46284605E70646E3E61846F8E61E
:1004A0004B45A9D2B9EB020864EB0C0E0138A3E767
:1004B0004646EAE7204694E74046D1E7D0467BE748
:1004C000023B614432E7304609E76444023842E7C0
:1004D000704700BF02E000F000F8FEE772B63A484D
:1004E00080F30888394880F3098839484EF6085166
:1004F000CEF20001086040F20000CCF200004EF69F
:100500003471CEF200010860BFF34F8FBFF36F8FDD
:1005100040F20000C0F2F0004EF68851CEF2000129
:100520000860BFF34F8FBFF36F8F4FF00000E1EE15
:10053000100A4EF63C71CEF200010860062080F3EE
:100540001488BFF36F8F04F06BFF04F047FF05F0D2
:10055000E9FD4FF055301F491B4A91423CBF41F81D
:10056000040BFAE71C49194A91423CBF41F8040BBD
:10057000FAE71A491A4A1B4B9A423EBF51F8040B3C
:1005800042F8040BF8E700201749184A91423CBF93
:1005900041F8040BFAE704F025FF05F00FFE144CB8
:1005A000144DAC4203DA54F8041B8847F9E700F015
:1005B00041F8114C114DAC4203DA54F8041B884742
:1005C000F9E704F00DBF0000000900200011002031
:1005D000000000080001002000090020D06C000885
:1005E00000110020BC110020C0110020CC3F0020D1
:1005F000C0010008C4010008C4010008C4010008CB
:100600002DE9F04F2DED108AC1F80CD0C3689D463E
:10061000BDEC108ABDE8F08F002383F311882846D3
:10062000A047002004F076FAFEE704F0E5F900DFC9
:10063000FEE70000F8B504F073FE074604F0C4FEC0
:100640000546B8BB204B9F4234D001339F4234D083
:100650001E4B27F0FF029A4232D1F8B200F0ECFEB6
:100660002E4642F2107400F0EDFE08B1002426463A
:1006700002F0EAF920B1032000F07CF800242646BD
:1006800035B1134B9F4203D004F096FE002426465A
:10069000002004F04FFE0EB100F082F801F028FABD
:1006A00000F0F4FE01F002F9204600F0DBF800F063
:1006B00077F8F9E72E460024D5E704460126D2E76D
:1006C00006464FF47A74CEE7010007B0000008B088
:1006D000263A09B008B501F0B5F8A0F12003584258
:1006E000584108BD07B541F21203022101A8ADF837
:1006F000043001F0C5F803B05DF804FB38B52023E1
:1007000083F311881748C3680BB104F089FA164ABD
:10071000144800234FF47A7104F046FA002383F35F
:100720001188124C236813B12368013B236063686E
:1007300013B16368013B63600D4D2B7833B9636877
:100740007BB9022001F04EF9322363602B78032B32
:1007500007D163682BB9022001F044F94FF47A7392
:10076000636038BDC0110020FD060008DC120020C7
:10077000D4110020084B187003280CD8DFE800F0D3
:1007800008050208022001F025B9022001F01AB97B
:10079000024B00225A607047D4110020DC12002066
:1007A00010B502F051F930B1284B03221A70284BD2
:1007B00000225A6010BD274B274A1C461968013198
:1007C000F8D004339342F9D16268A242F2D3234BAA
:1007D0009B6803F1006303F520439A42EAD204F0D8
:1007E000BDFD04F0CFFD002001F07AF80220FFF7F4
:1007F000C1FF1B4B9A6D00229A65996F9A67996F9A
:10080000D96DDA65D96FDA67D96F196E1A66D3F8C0
:100810008010C3F88020D3F88020DA6A42F4805236
:10082000DA62DA6A22F48052DA62DB6A72B64FF078
:10083000E0232021C3F8084DD4E9003281F3118868
:100840009D4683F308881047B4E700BFD411002009
:10085000DC12002000A0000820A0000800110020E9
:10086000001002402DE9F04F93B0AB4B00902022D6
:10087000FF210AA89D6801F0E5F8A84A1378A3B9FA
:10088000A7480121C3601170202383F31188C36836
:100890000BB104F0C5F9A34AA14800234FF47A71C3
:1008A00004F082F9002383F31188009B13B19E4B5F
:1008B000009A1A609D4A009C1378032B1EBF0023E8
:1008C0001370994A4FF0000A18BF5360D34656463A
:1008D000D146012001F07EF824B1934B1B68002B18
:1008E00000F01382002000F0ADFF0390039B002B6B
:1008F00001DA00F013FE039B002BEDDB012001F079
:1009000061F8039B213B162BE3D801A252F823F098
:100910006D09000895090008290A0008D308000895
:10092000D3080008D3080008B10A00087F0C0008AB
:10093000990B0008FB0B0008230C0008490C000869
:10094000D30800085B0C0008D3080008CD0C000891
:100950000D0A0008D3080008110D000879090008E5
:100960000D0A0008D3080008FB0B00080220FFF75F
:10097000B1FE002840F0F381009B0221BAF1000F84
:1009800008BF1C4605A841F21233ADF8143000F040
:1009900077FF9EE74FF47A7000F054FF071EEBDB01
:1009A0000220FFF797FE0028E6D0013F052F00F256
:1009B000D881DFE807F0030A0D10133605230593ED
:1009C000042105A800F05CFF17E053480421F9E773
:1009D00057480421F6E757480421F3E74FF01C0875
:1009E000404600F07FFF08F104080590042105A8A7
:1009F00000F046FFB8F12C0FF2D1012000FA07F702
:100A000047EA0B0B5FFA8BFB4FF0000901F066F829
:100A100026B10BF00B030B2B08BF0024FFF762FE7F
:100A200057E745480421CDE7002EA5D00BF00B0376
:100A30000B2BA1D10220FFF74DFE074600289BD0CB
:100A4000012000F04DFF0220FFF794FE00265FFA20
:100A500086F8404600F054FF044688B1404600F056
:100A60005FFF01360028F2D1BA46044641F2121364
:100A7000022105A8ADF814303E4600F001FF28E73A
:100A80000120FFF777FE2546234B9B68AB4207D931
:100A9000284600F027FF013040F066810435F3E777
:100AA000224B00251D70204BBA465D603E46ADE7E7
:100AB000002E3FF461AF0BF00B030B2B7FF45CAF08
:100AC0000220FFF757FE322000F0BCFEB0F1000814
:100AD000FFF652AF18F003077FF44EAF0E4A92684C
:100AE00008EB050393423FF647AFB8F5807F3FF729
:100AF00043AF124B0193B84522DD4FF47A7000F0FA
:100B0000A1FE0390039A002AFFF636AF019B039AD9
:100B100003F8012B0137EDE700110020D812002067
:100B2000C0110020FD060008DC120020D4110020B6
:100B300004110020081100200C110020D811002001
:100B4000C820FFF7C7FD074600283FF415AF1F2D4B
:100B500011D8C5F1200242450AAB25F0030028BF99
:100B6000424683490192184400F046FF019A8048AA
:100B7000FF2100F067FF4FEAA8037D490193C8F306
:100B80008702284600F066FF064600283FF46EAF55
:100B9000019B05EB830539E70220FFF79BFD002849
:100BA0003FF4EAAE00F0D8FE00283FF4E5AE00279F
:100BB000B846704B9B68BB4218D91F2F11D80A9BAF
:100BC00001330ED027F0030312AA134453F8203C3C
:100BD00005934046042205A901F020FF0437804612
:100BE000E7E7384600F07EFE0590F2E7CDF8148086
:100BF000042105A800F044FE08E70023642104A8AE
:100C0000049300F033FE00287FF4B6AE0220FFF715
:100C100061FD00283FF4B0AE049800F093FE05900B
:100C2000E6E70023642104A8049300F01FFE0028D7
:100C30007FF4A2AE0220FFF74DFD00283FF49CAEEA
:100C4000049800F081FEEAE70220FFF743FD002848
:100C50003FF492AE00F090FEE1E70220FFF73AFD8C
:100C600000283FF489AE05A9142000F08BFE042172
:100C70000746049004A800F003FE3946B9E7322085
:100C800000F0E0FD071EFFF677AEBB077FF474AE01
:100C9000384A926807EB090393423FF66DAE022093
:100CA000FFF718FD00283FF467AE27F003074F4415
:100CB000B9453FF4ABAE484600F014FE0421059060
:100CC00005A800F0DDFD09F10409F1E74FF47A70A1
:100CD000FFF700FD00283FF44FAE00F03DFE002876
:100CE00044D00A9B01330BD008220AA9002000F04F
:100CF000B1FE00283AD02022FF210AA800F0A2FE6F
:100D0000FFF7F0FC1C4803F00BFF13B0BDE8F08FB9
:100D1000002E3FF431AE0BF00B030B2B7FF42CAE07
:100D20000023642105A8059300F0A0FD07460028D4
:100D30007FF422AE0220FFF7CDFC804600283FF46E
:100D40001BAEFFF7CFFC41F2883003F0E9FE0598B7
:100D500000F006FF464600F0C1FE3C46B9E50646F7
:100D600054E64FF0000907E6BA467FE637467DE6CF
:100D7000D811002000110020A0860100094A136844
:100D800049F2690099B21B0C00FB01331360064B5A
:100D9000186844F2506182B2000C01FB0200186036
:100DA00080B27047141100201011002010B50021EE
:100DB0001022044600F046FE034B03CB2060616026
:100DC0001868A06010BD00BF9075FF1F2DE9F043AB
:100DD000224DBBB001F01CFEAB6840F2ED22C31AFD
:100DE000934232D906AFA8602B462822002138460C
:100DF00002F06AFB05F10E0000F01CFE002604461E
:100E00005FFA80F905F10E08F3B2F100994501F19E
:100E1000280107D908EB06030822384602F054FBE4
:100E20000136F1E708230122CDE9023205340C4BEB
:100E30000193A4B230230093CDE9047405A3D3E950
:100E40000023297B074802F057F93BB0BDE8F08347
:100E5000AFF3008078F6339F93CACD8DF83300202E
:100E600005340020FC22002070B50D4614461E46B5
:100E700002F0D8F850B9022E10D1012C0ED112A3D5
:100E8000D3E90023C5E90023012007E0282C10D076
:100E900005D8012C09D0052C0FD0002070BD302CB6
:100EA000FBD10BA3D3E90023ECE70BA3D3E9002389
:100EB000E8E70BA3D3E90023E4E70BA3D3E900237E
:100EC000E0E700BFAFF30080401DA12026812A0B80
:100ED00078F6339F93CACD8D9E6AC421818A46EEEF
:100EE00026417272DF25D7B7F017304A39059E5672
:100EF00013B504462346084620220021019002F043
:100F0000E3FA22790198032A234628BF032203F833
:100F1000042F2021022202F0D7FA62790198072AD1
:100F2000234628BF072203F8052F2221032202F0BF
:100F3000CBFAA2790198072A234628BF072203F893
:100F4000062F2521032202F0BFFA019804F10803BD
:100F50001022282102F0B8FA382002B010BD00009B
:100F60002DE9F04FADF5017D21AD0EAE40F27512C9
:100F700080460F4622A80021296000F063FD482228
:100F80000021304600F05EFD01F042FD564B4FF46B
:100F90007A72B0FBF2F0186093E80700012386E84C
:100FA00007000DF15A003382FFF700FF41F60453AA
:100FB000338407AB18464D4905F0BAFC1A22306459
:100FC0002946304686F83C20FFF792FF12AB0446D4
:100FD00001460822284602F077FA0822A1180DF1EE
:100FE0004903284602F070FA0DF14A03082204F181
:100FF0001001284602F068FA13AB202204F1180110
:10100000284602F061FA14AB402204F13801284668
:1010100002F05AFA16AB082204F17801284602F0D1
:1010200053FA0DF15903082204F18001284602F019
:101030004BFA04F1880A0DF15A0904F5847B4B46FA
:101040005146082228460AF1080A02F03DFAD34523
:1010500009F10109F3D11BAB08225946284602F0D9
:1010600033FA04F588744FF0000996F834304B4594
:101070000AD9B36B21464B440822284602F024FAD1
:10108000083409F10109F0E74FF0000996F83C3007
:101090004B4504EBC90108D9336C08224B44284660
:1010A00002F012FA09F10109F0E700230393BB7E75
:1010B0000293073107F119030193C1F3CF01012313
:1010C000CDE904510093F97E05A3D3E900234046FE
:1010D00002F012F80DF5017DBDE8F08FAFF300804E
:1010E0009E6AC421818A46EEE412002060690008ED
:1010F0002DE9F04FADB006AF80460C4601F092FFEF
:10110000054600285AD1237E022B1BD1E38A012BEE
:1011100018D101F07DFC0646FFF730FE03464FF480
:10112000C870DFF8D892B3FBF0F206F5167602FB32
:10113000103316FA83F3C9F80030E37E33B9AA4BB3
:1011400000221A709C37BD46BDE8F08FA38AEEB22C
:10115000013BB34205F101050BD93B1D1E44E900DB
:1011600000960023082201F0F801204602F070F8F2
:10117000ECE707F11400FFF719FE324607F11401FE
:10118000381D05F0A9FA0028D9D10F2E08D8964BA2
:101190001E70D9F80030A3F51673C9F80030D1E7F6
:1011A000FB1CF8700146009307220346204602F01C
:1011B0004FF8F978404601F02DFFC3E7E38A282B6A
:1011C00026D010D8012B1ED0052BBBD1BFF34F8FDB
:1011D0008649874BCA6802F4E0621343CB60BFF3D1
:1011E0004F8F00BFFDE7302BACD1637E814D0133C3
:1011F0006A7BDBB29342E94603D1E27E2B7B9A42C3
:1012000065D0CD469EE721464046FFF7A9FE99E707
:10121000A38A013B9BB2C92B94D8764D2E7B26BB6B
:1012200005F10C030093082233463146204602F0B4
:101230000FF8731CF2B2D9001E46A38A013B9A42F2
:1012400005DA0E322A44009200230822EEE700233A
:101250000022C5E900230023AB6085F8D730C5F82C
:10126000D8302B7B0BB9E37E2B73002507F11409D3
:101270003B1D082229464846C7E90155FD6002F09A
:1012800023F93B7A05F1010AAB424FEACA0608D9B5
:10129000FB6808222B443146484602F015F95546B2
:1012A000EFE7C6F3CF06E17ECDE904960023039372
:1012B000A37E0293193428230093019448A3D3E911
:1012C0000023404601F018FFFFF780FD3AE74FF09A
:1012D000000807F11403A7F8148010220093414678
:1012E0000123204601F0B4FFA68A023EB6B2F31CE9
:1012F0009B109B000733DB08A9EBC3039D460DF150
:10130000180A1FFA88F34FEAC801B34201F110012D
:101310000AD20AEB0803009308220023204601F0BA
:1013200097FF08F10108ECE795F8D70000F0E8FA1C
:10133000D5F8D83004461BB995F8D70000F0F0FA7C
:10134000D5F8D83033449C4204D295F8D700013008
:1013500000F0E6FA4FEA960B4FF000081FFA88F10A
:101360008B45D5E9003209D90AEB880103EB8800E7
:10137000012200F06FFB08F10108EFE7F31842F1DA
:101380000002C5E90032D5F8D83095F8D70006EB51
:101390000308C5F8D88000F0B3FA804509D395F862
:1013A000D730D5F8D8000133001B85F8D730C5F801
:1013B000D800FF2E104C09D800232B7300F0CCFA74
:1013C00001F042FB208108B9FFF7EAF92B689B0A7C
:1013D000013323810023AB6013E700BFAFF300802C
:1013E00026417272DF25D7B7F522002000ED00E01C
:1013F0000400FA05F8330020E4120020F82200204F
:1014000010B50A4B0A4A1A6003F5805393F860201E
:101410003AB9DC6D2CB1204601F078F9204605F090
:1014200019F9BDE81040034801F070B928230020E5
:10143000B869000870330020014B1870704700BF76
:10144000F012002010B54FF000540C4B22689A4265
:1014500011D10B4B627D1A700A48237D03730A4930
:10146000C9220E3000F0C8FAE0220021204600F028
:10147000E9FA012010BD0020FCE700BF9AAD44C589
:10148000F0120020F83300201600002037B501F0DC
:10149000DBFA194D194928810223012218486B7182
:1014A00000F080FF00230193164B17490093174863
:1014B000174B4FF4805201F087FD164B197811B18C
:1014C000124801F0A7FD01F0A3FA0446FFF756FC0D
:1014D0004FF4C873B0FBF3F202FB130304F516706C
:1014E00010FA83F00C4B186003F06EFF08B10F2365
:1014F0002B8103B030BD00BFE412002040420F003A
:1015000028230020690E0008F4120020FC2200208D
:10151000F1100008F0120020F82200202DE9F04F11
:101520002DED028B97A7D7E900670FF26029D9E963
:1015300000898E4C95B0DFF85CA2DFF85CB22046E3
:1015400001F03EFE034650B30025CDE9115510953C
:10155000ADF84C50027B8DF84C209968406811AA78
:1015600003C21B6843F00043109301F053FA10EBE1
:101570000A0241F10003009510A9584600F040FB13
:10158000A8427B4A05DD204601F01EFE784A157010
:10159000D5E71378072B00F2BA80013313700DAD35
:1015A0009FED708B0023DFF8F0B10C93ADF83C3069
:1015B0000D936B6000230DF125028DED008B4FF034
:1015C000010A09A958468DF825308DF824A000F0AD
:1015D00099FE9DF824200023002A40F09C8020469C
:1015E00001F020FD0546002847D1DFF8B0B101F039
:1015F0000FFADBF8003098423FD301F009FA079068
:10160000FFF7BCFB079A4FF4C87302F51672B0FBE4
:10161000F3F101FB130312FA83F3CBF80030DFF888
:1016200080B19BF800100791002914BF2B46534648
:1016300010A88DF83030FFF7B9FB0799C1F11002FF
:10164000D2B2062A10AB28BF062219440DF1310090
:10165000079200F0D1F9079A0CAB03931823029379
:101660000132444BD2B2CDE900A304923B4632464C
:10167000204601F0D9FC8BF8005001F0C9F93E4A30
:101680003E4D1368C31AB3F57A7F33D3106001F06F
:10169000C1F902460B46204601F0A0FD204601F0AC
:1016A000C1FC38B32B7BDFF8FCA0002B14BF032355
:1016B00002238AF8053001F0ABF90DF1400B4FF42D
:1016C0007A735946B0FBF3F0CAF800005046FFF7B2
:1016D0000FFC182307300293294B0193C0F3CF006E
:1016E00040F25513CDE903B0009342464B462046E5
:1016F00001F09AFC2B7B2BB1FFF768FB2B7B002BB7
:101700007FF419AF15B0BDEC028BBDE8F08F204619
:1017100001F05AFD43E74FF0904110A84A6982F466
:1017200000524A611946102200F08CF90DF126038F
:101730000AAA0CA9584600F061FB95E8030011AB1A
:1017400083E803009DF83C308DF84C300C9B1093DF
:1017500010A9DDE90A23204601F0FEFE2AE700BFBA
:10176000AFF300800000000000000000FC22002019
:10177000DD340020F4220020D8340020F83300208B
:10178000DC340020401DA12026812A0BF1C6A7C110
:10179000D068080F40420F0028230020F8220020C4
:1017A000F5220020E412002008B5054800F0C0FB37
:1017B000BDE80840034A0449002004F045BF00BFCB
:1017C000282300203035002001140008F7B5194EF9
:1017D0000C464FF47A7102FB01F396F9002005469E
:1017E000501C0BD11448019302682946176A2246FF
:1017F000B8478442019B03D1002310E0002AF1D0B6
:1018000096F90020511C01D0012A0DD10B48026825
:101810002946166A2246B047844205D10123084A68
:101820000120137003B0F0BD4FF4FA7003F078F9A3
:101830000020F7E718110020583700203435002029
:101840002435002007B50023024601210DF10700D1
:101850008DF80730FFF7BAFF20B19DF8070003B0FD
:101860005DF804FB4FF0FF30F9E700000A4608B5C9
:101870000421FFF7ABFF80F00100C0B2404208BD79
:1018800030B4074B0A461978064B53F821402368B9
:10189000DD69054B0146AC46204630BC604700BFC1
:1018A0002435002088690008A086010070B503F087
:1018B000D1FB094E094D30800024286833888342CB
:1018C00008D903F0C3FB2B6804440133B4F5204F5F
:1018D0002B60F2D370BD00BF26350020E03400201D
:1018E00003F078BC00F1006000F52040006870470C
:1018F00000F10060920000F5204003F0EFBB000013
:10190000054B1A68054B1B889B1A834202D9104469
:1019100003F09CBB00207047E034002026350020F7
:1019200038B5074D04462868204403F095FB28B9D4
:1019300028682044BDE8384003F0A0BB38BD00BF94
:10194000E03400200020704700F10050A0F5104066
:10195000D0F8900570470000064991F8243033B163
:101960000023086A81F824300822FFF7C1BF012054
:10197000704700BFE4340020014B1868704700BF77
:10198000002004E070B50E4B5C6893F90860421EBD
:101990000A44013C0B46934207D214F9015F581CDC
:1019A0002DB100F8015C0346F5E7184605E02C244C
:1019B00082421C7001D9981C5E70401A70BD00BF35
:1019C0001C110020022802BF4FF090434FF000523C
:1019D0009A617047022802BF4FF090434FF40052C3
:1019E0009A617047022801BF4FF09042536983F417
:1019F000005353617047000010B50023934203D099
:101A0000CC5CC4540133F9E710BD000010B50138B7
:101A100010F9013F3BB191F900409C4203D11AB14A
:101A20000131013AF4E71AB191F90020981A10BD7A
:101A30001046FCE703460246D01A12F9011B0029A2
:101A4000FAD1704702440346934202D003F8011BC7
:101A5000FAE770472DE9F8431F4D144695F8242006
:101A60000746884652BBDFF870909CB395F8243047
:101A70002BB92022FF2148462F62FFF7E3FF95F89C
:101A80002400C0F10802A24228BF2246D6B2414635
:101A9000920005EB8000FFF7AFFF95F82430A41B00
:101AA0001E44F6B2082E17449044E4B285F8246030
:101AB000DBD1FFF751FF0028D7D108E02B6A03EBF9
:101AC00082038342CFD0FFF747FF0028CBD100200D
:101AD000BDE8F8830120FBE7E4340020024B1A78CC
:101AE000024B1A70704700BF2435002018110020E7
:101AF00038B5154C154D204602F014FB29462046FA
:101B000002F03CFB2D681248EA6ED2F8043843F02C
:101B10000203C2F8043803F003F80E49284602F025
:101B200035FCEA6E0C48D2F804380C4923F0020365
:101B3000C2F80438A0424FF461430B6003D0BDE803
:101B4000384002F04FBA38BD58370020146B0008F7
:101B500040420F001C6B0008343500200C3500207B
:101B600038B50B4B1A780B4B53F822500A4B9D4259
:101B700004460CD0094B002118461822FFF762FFDB
:101B8000046001462846BDE8384002F02BBA38BD53
:101B90002435002088690008583700200C350020C3
:101BA000202383F3118862B670470000002383F37B
:101BB000118862B67047000010B4026854681A4673
:101BC00023465DF8044B18470120704700207047FA
:101BD00000207047704700007047000000207047E9
:101BE0000E20704700F5805090F8C800C0F3400008
:101BF0007047000000F5805090F9C9007047000060
:101C00002DE9F0410C68BDF8187014F000541E4620
:101C10006FD10B7B082B6CD8FFF7C2FF4569AB680F
:101C20005B010CD4AB681B0108D4AC6814F0805481
:101C30005DD1FFF7BBFF2046BDE8F08101240B68B2
:101C400004F1180C002BB8BFDB004FEA0C1CB4BF2A
:101C500043F004035B0545F80C300B680FFA84FC75
:101C600013F0804F18BF05EB0C1E05EB0C1C1EBFBC
:101C7000DEF8803143F00203CEF880310B7BCCF8E4
:101C8000843105EB04158B68C5F88C314B68C5F8B9
:101C90008831DCF8803143F00103CCF8803100EB6F
:101CA000441541F268031D4403EB44130344C5E9A2
:101CB000002608330D4601F10C0C55F804EB43F8EF
:101CC00004EB6545F9D184342D881D8000EB441464
:101CD00007F00303257925F00B052B432371FFF74C
:101CE00065FF06973346BDE8F04100F0AFBC022423
:101CF000A5E74FF0FF309FE713B500F58054019141
:101D0000E06D00F039FD1F280AD90199E06D20220D
:101D100000F0A8FDA0F120035842584102B010BDC8
:101D20000020FBE708B500F58050FFF739FFC06DD4
:101D300000F0F6FCBDE80840FFF738BF0022026063
:101D4000828142608260704710B500220023C0E9A2
:101D500000230023044603810C30FFF7EFFF2046E9
:101D600010BD0000F0B5054600F580500C4690F817
:101D7000C83013F0040FC3F3800108BF114661F3AC
:101D8000820304F1840680F8C83005EB461389B05D
:101D90001B79D8072ED57AB319072DD46846FFF7DB
:101DA000D3FF05EB441303F5835303F1180703AA8C
:101DB000103318685968144603C40833BB422246DE
:101DC000F7D1186820609B88A380DDE90E23CDE958
:101DD00000230123ADF808302B6869461B6C2846A8
:101DE000984705EB46152B791A075CBF43F00803AB
:101DF0002B7101E0002AF4D109B0F0BD2DE9F047C4
:101E0000074688B007F5805468469A468846FFF72B
:101E1000C7FE9146FFF798FFE06D00F093FC1F2886
:101E200029D9E06D2022694600F09EFD202822D1AC
:101E300003AD444605AB2E4603CE9E422060616052
:101E4000354604F10804F6D130682060B388A380D9
:101E5000DDE90023C9E90023BDF80830AAF8003005
:101E6000FFF7A4FE4A4653464146384608B0BDE84F
:101E7000F04700F0D9BBFFF799FE002008B0BDE89D
:101E8000F08700002DE9F84F0023C0E90133254B0E
:101E9000044640F8183B0F46FFF750FF04F12800B6
:101EA000FFF752FF04F1480804F58255464608350D
:101EB00030462036FFF748FFAE42F9D104F5805591
:101EC0004FF480534FF00009C5E91339C5F8488035
:101ED0000123EE6504F5875804F58456C5F854903F
:101EE00085F8583085F86030083608F108084FF05A
:101EF000000A4FF0000B46E908ABA6F11800FFF707
:101F00001DFF203646F8289C4645F4D185F8C97057
:101F100017B1054800F076FD044B63612046BDE82B
:101F2000F88F00BFB869000890690008006400409D
:101F300010B5044B197804464A1C1A70FFF7A2FF2B
:101F4000204610BD2C3500202DE9F047002950D047
:101F5000294B2A4FB7FBF1F599428CBF0A23112375
:101F6000581EB5FBF3FC03FB1C53C4B22BB1022873
:101F70000346F5D80020BDE8F0870CF1FF36B6F532
:101F8000806FF7D2C4EBC40E0EF103034FEAE309EE
:101F9000C3F3C703A4EB030809F1010A4FF47A75F0
:101FA0005FFA88F009FB05555AFA88F8B5FBF8F591
:101FB000B5F5617FC1BF0EF1FF33C3F3C703E01A6C
:101FC000C0B25C1C50FA84F40CFB04F4B7FBF4F4CC
:101FD000A142CFD1013BDBB20F2BCBD80138C0B22D
:101FE0000728C7D80021107116809170D370012086
:101FF000C1E70846BFE700BF3F420F0000B4C4047A
:1020000070B505460E464FF47A746B695B6803F051
:102010000103B34207D04FF47A7002F081FD013C16
:10202000F3D1204670BD0120FCE7000030B54269C5
:10203000936913F0700F16D000230B4C936103F1DA
:10204000840200EB421211794D0709D5890707D5A3
:10205000416954F823508D60117941F004011171E8
:102060000133032BEBD130BDA469000873B51D46C5
:10207000436916469A68D207044609D59A68012131
:102080009960C2F34002CDE900650021FFF76AFEC6
:1020900063699A68D1050BD59A684FF4807199608D
:1020A000C2F34022CDE9006501212046FFF75AFE28
:1020B00063699A68D2030BD59A684FF480319960AE
:1020C000C2F34042CDE9006502212046FFF74AFEF7
:1020D000204602B0BDE87040FFF7A8BFF8B504463F
:1020E000466900296CD106F10C07386880076AD070
:1020F00006EB01153868D5F8B00110F0040FD5F8DB
:10210000B0011ABFC00840F00040400DA061D5F8F2
:10211000B0C11CF0020F1CBF40F08040A061D5F898
:10212000B40106EB011100F00F0084F82400D1F88F
:10213000B8012077D1F8B801000A6077D1F8B8016A
:10214000000CA077D1F8B801000EE077D1F8BC01FF
:1021500084F82000D1F8BC01000A84F82100D1F8ED
:10216000BC01000C84F82200D1F8BC11090E84F8DF
:1021700023103821396004F1340004F1180104F10E
:10218000240551F8046B40F8046BA942F9D1098881
:102190000180C4E90A2321460023238651F8283B05
:1021A00020461B6C984704F58052204692F8C830B0
:1021B00043F0040382F8C830BDE8F840FFF736BFAB
:1021C00006F1100791E7F8BD10B5044600F022FCB7
:1021D00002460B4652EA030102D0013A63F10003C2
:1021E0000449086820B12146BDE81040FFF776BFDA
:1021F00010BD00BF28350020F8B500F583511E46FC
:10220000FFF7CEFCDFF844C00831002404F1840558
:1022100000EB45152B795F070ED4DB060CD5D1E911
:1022200000739742B34107D243695CF824709F6002
:102230002B7943F004032B710134032C01F12001AD
:10224000E4D1BDE8F840FFF7B1BC00BFA4690008C5
:1022500008B5FFF7A5FCFFF7E9FEBDE80840FFF76A
:10226000A5BC0000F8B543690546986800F0E05049
:10227000B0F1E05F0F461FD0E8B1FFF791FC05F524
:1022800083541034002606F1840305EB43131B79B5
:102290001A0706D50136032E04F12004F3D10120DC
:1022A00007E05B07F6D42146384600F009FA00281B
:1022B000F0D1FFF77BFCF8BD0120FCE700F5805072
:1022C00008B5FFF76DFCC06D00F03CFAFFF76EFC3F
:1022D00043090CBF0120002008BD0000F8B51D46D1
:1022E000002313700F4606461446FFF7E7FF80F001
:1022F0000100387025B129463046FFF7B3FF207042
:10230000F8BD00002DE9B8410C4615461F46804631
:1023100000F080FB0B462178024609B9287850B1BD
:102320004046FFF769FFFFF793FF3B462A462146E9
:10233000FFF7D4FF0120BDE8B881000010B5FFF71A
:102340002FFC174B9A6D42F000729A659A6B42F01F
:1023500000729A639A6B00F5805422F000729A63BF
:10236000FFF724FC94F8C830DB0718D4B9B1022178
:102370001320FFF715FC01F083FC0221142001F06B
:102380007FFC0221152001F07BFC94F8C83043F05B
:10239000010384F8C830BDE81040FFF707BC10BD4A
:1023A000001002402DE9F04700F5805588B095F8FF
:1023B000C930012B0446884616467FD8804F57F80F
:1023C00023200AB947F82300D7F800A0C4F80C80EE
:1023D0002674BAF1000F63D095F8C930012B6FD085
:1023E00001212046FFF7AAFFFFF7DAFB62691368B5
:1023F00023F0020313606269136843F00103136062
:10240000636900275F6101212046FFF7CFFBFFF7DB
:10241000F7FD002800F09580E86D00F081F904F5E3
:102420008359BA4609F10809202200216846FFF7BE
:1024300009FB02A8FFF782FCCDF818A06A4609EB59
:1024400007030DF1180E9446BCE80300F44518602C
:102450005960624603F10803F5D1DCF8000018600A
:1024600020379CF804201A71602FDDD195F8C83010
:102470006FF38203002785F8C8306A46414620463C
:10248000ADF80070ADF802708DF80470FFF75CFDD8
:10249000636948BB4FF400421A6008B0BDE8F0879A
:1024A00041F2D00004F0D8F8814610B15146FFF750
:1024B000E9FCC7F80090B9F1000F8DD10020ECE7DE
:1024C000386803685B6B98470146002888D13868F4
:1024D000FFF734FF3868036832465B684146984727
:1024E00000287FF47DAFE9E761221A609DF8023091
:1024F0009DF803201B06120402F4702203F04073BF
:102500001343BDF80020C2F3090213439DF80420D1
:102510001205022E02F4E0020CBF4FF00041002130
:10252000134362690B43D361636913225A61626981
:10253000136823F00103136039462046FFF760FD5E
:1025400008B96369A6E795F8C93093BB6169D1F80A
:10255000002242F00102C1F800226169D1F8002294
:1025600022F47C5222F00E02C1F800226169D1F8F7
:10257000002242F46062C1F800226269C2F814329B
:102580006269C2F80432626941F6FF71C2F80C1246
:102590006269C2F840326269C2F84432636901225A
:1025A000C3F81C226269D2F8003223F00103C2F89A
:1025B000003295F8C83043F0020385F8C8306CE764
:1025C0002835002008B500F025FA50EA010302463C
:1025D00002D0421E61F10001044B186810B10B4695
:1025E000FFF744FDBDE8084001F018BA2835002087
:1025F00008B50020FFF7E8FDBDE8084001F00EBA7D
:1026000008B50120FFF7E0FDBDE8084001F006BA7B
:1026100013B56C4684E80600031D94E8030083E8C4
:102620000500012002B010BD73B58568019155B158
:102630001B885B0707D4D0E90036DB6B9847019A0B
:10264000C1B23046A847012002B070BDF0B586681F
:1026500089B005460C465EB1BDF838305B070AD438
:10266000D0E90037DB6B98472246C1B23846B04705
:10267000012009B0F0BD00220023CDE90023002392
:10268000ADF808300A4603AB01F10806106851683E
:102690001C4603C40832B2422346F7D110682060BA
:1026A0009288A28000F0B8F90423ADF808302B68B6
:1026B000CDE900011B6C694628469847D8E7000021
:1026C00030B503680968DD0FB5EBD17F23F06044B6
:1026D00021F060424FEAD1700BD0002BB8BFA40CA0
:1026E0000029B8BF920C944202D034BF01200020D0
:1026F00030BD944205D1C1F38070C3F3807383422F
:10270000F6D194422CBF00200120F1E710B5037CE4
:10271000044613B9006803F0D7FF204610BD00003F
:102720000023BFF35B8FC360BFF35B8FBFF35B8F8F
:102730008360BFF35B8F7047BFF35B8F0068BFF3AD
:102740005B8F704770B505460C30FFF7F5FF05F15C
:10275000080604463046FFF7EFFFA04206D9304690
:102760006D68FFF7E9FF2544281A70BD3046FFF772
:10277000E3FF201AF9E7000070B50546406898B1FC
:1027800005F10800FFF7D8FF05F10C0604463046B6
:10279000FFF7D2FF8442304694BF6D680025FFF7F3
:1027A000CBFF013C2C44201A70BD000038B50C460C
:1027B0000546FFF7C7FFA04210D305F10800FFF759
:1027C000BBFF04446868B4FBF0F100FB1144BFF3A5
:1027D0005B8F0120AC60BFF35B8F38BD0020FCE74E
:1027E0002DE9F041144607460D46FFF7C5FF844228
:1027F00028BF0446D4B1B84658F80C6B4046FFF7E2
:102800009BFF3044286040467E68FFF795FF331AEF
:102810009C4203D86C600120BDE8F0816B60A41B72
:102820003B68AB602044E8600220F5E72046F3E710
:1028300038B50C460546FFF79FFFA04210D305F1BF
:102840000C00FFF779FF04446868B4FBF0F100FB6B
:102850001144BFF35B8F0120EC60BFF35B8F38BD89
:102860000020FCE72DE9FF41884669460746FFF74F
:10287000B7FF6C4606B204EBC6060025B44209D089
:102880006268206808EB0501FFF7B6F86368083452
:102890001D44F3E729463846FFF7CAFF284604B02F
:1028A000BDE8F081F8B505460C300F46FFF744FF50
:1028B00005F1080604463046FFF73EFFA0423046C9
:1028C00088BF6C68FFF738FF201A386020B13046A7
:1028D0002C68FFF731FF2044F8BD000073B51446A3
:1028E00006460D46FFF72EFF844228BF044601909E
:1028F000DCB101A93046FFF7D5FF019B33B932683F
:10290000C5E90233C5E9002401200CE09C4238BF30
:1029100001942860019868608442F5D93368AB60FF
:10292000241AEC60022002B070BD2046FBE70000D4
:102930002DE9FF410F466946FFF7D0FF6C4600B214
:1029400004EBC0050026AC4209D0D4F8048054F84A
:10295000081BB8194246FFF74FF84644F3E73046E4
:1029600004B0BDE8F081000038B50546FFF7E0FF90
:10297000044601462846FFF719FF204638BD0000EF
:1029800000B59BB0EFF3098168226846FFF734F881
:10299000EFF30583044B9A6BDA6A9A6A9A6A9A6A29
:1029A0009A6A9A6A9B6AFEE700ED00E000B59BB068
:1029B000EFF3098168226846FFF71EF8EFF30583FD
:1029C000044B9A6B9A6A9A6A9A6A9A6A9A6A9B6A9A
:1029D000FEE700BF00ED00E000B59BB0EFF309811A
:1029E00068226846FFF708F8EFF30583034B5A6B3C
:1029F0009A6A9A6A9A6A9A6A9B6AFEE700ED00E010
:102A0000FEE700000FB408B5029802F019F8FEE7DF
:102A100002F020BC02F0F8BB02F0F6BB30B5094D65
:102A20000A4491420DD011F8013B5840082340F36D
:102A30000004013B2C4013F0FF0384EA5000F6D160
:102A4000EFE730BD2083B8ED73B5384A10685168A0
:102A50006B4603C36A4636493648082303F04CFEEA
:102A6000044670B9344A106851686B4603C36A461D
:102A700032493048082303F03FFE044630BB0A20A9
:102A800022E00369B3F5583FECD8418B40F21D4278
:102A90009142E7D12A4A024402F110018B42E1D36C
:102AA000103B244900209D1AFFF7B8FF2A4606462E
:102AB00004F118010020FFF7B1FFA3689E42D1D1B5
:102AC000E3689842CED1002002B070BD0369B3F52F
:102AD000583F22D8B0F8661040F21D4291421ED1F4
:102AE000174A024402F15C018B421AD35C3B114944
:102AF00000209D1AFFF792FF2A46064604F1640162
:102B00000020FFF78BFFA268964203460BD1E068D6
:102B1000834214BF0D200020D6E70B20D4E70C2001
:102B2000D2E71020D0E70D20CEE700BFFC690008F7
:102B3000DC5F030000A00008056A0008905F030046
:102B40000860FFF72DE9F041C56915B9C161BDE81D
:102B5000F0814B6823F06047C3F38A464FEAD37E87
:102B6000C3F3807816EA230638BF3E46AC462B46B0
:102B70005A68BEEBD27F22F060440AD0002A18DAED
:102B8000A40CB44217D19D420FD10D60DEE713466D
:102B9000EEE7A74207D102F08044C2F380724245BB
:102BA0000BD054B1EFE708D2EDE7CCF800100B6082
:102BB000CDE7B44201D0B442E5D81A689C46002A59
:102BC000E5D11960C3E700002DE9F047089D01F049
:102BD00007044FEAD508224405F0070500EBD100B1
:102BE0004FF47F49944201D1BDE8F08704F0070714
:102BF00005F0070A57453E4638BF5646C6F1080657
:102C0000111B8E4228BF0E46E10808EBD50E415C31
:102C100013F80EC0B94029FA06F721FA0AF1FFB2FB
:102C20008CEA010147FA0AF739408CEA010C03F8F3
:102C30000EC034443544D5E780EA0120082341F230
:102C4000210201B24000002980B203F1FF33B8BF76
:102C5000504013F0FF03F4D17047000038B50C4624
:102C60008D18A54200D138BD14F8011BFFF7E4FF11
:102C7000F7E7000002684AB113680360C38801895E
:102C800001339BB29942C38038BF0381104670471D
:102C900070B588B0202204460D4668460021FEF734
:102CA000D1FE20460495FFF7E5FF024658B16B467A
:102CB000054608AE1C4603CCB44228606960234632
:102CC00005F10805F6D1104608B070BD082817D9DF
:102CD00009280CD00A280CD00B280CD00C280CD0BA
:102CE0000D280CD00E2814BF4020302070470C2037
:102CF000704710207047142070471820704720201C
:102D000070470000082817D90C280CD910280CD9B6
:102D100014280CD918280CD920280CD930288CBF9D
:102D20000F200E207047092070470A2070470B20A3
:102D300070470C2070470D207047000010B54B689D
:102D400023B9CA8A63F30902CA8210BDC4681A682B
:102D50001C60C360438A013B43824A60EFE7000086
:102D60002DE9F84F1D46CB8A0F46C3F3090105290B
:102D7000814692460B4630D00020AAB207F11A04D1
:102D80009EB2042E1FFA80F80FD8904503F101037C
:102D900006D3FB8A0A4462F30903FB8201201AE08E
:102DA0001AF80060E6540130EAE79045F1D2A1F14B
:102DB000050B1C237C68BBFBF3F203FB12BB1FFA61
:102DC0008BF6002C45D14846FFF754FF044638B92E
:102DD00078606FF00200BDE8F88F4FF00008E6E77A
:102DE000002606607860ADB24FF0000B454510D963
:102DF0000AEB0803221D13F8011B9155B1B208F12B
:102E000001081B291FFA88F82BD0454506F1010659
:102E1000F1D8FB8AC3F30902154465F30903BCE743
:102E2000013292B21C462368002BF9D16B1F0B4470
:102E30001C21B3FBF1F301339BB29A42D3D2BBF115
:102E4000000FD0D14846FFF715FF20B9C4F800B0F5
:102E5000BFE70122E7E7C0F800B05E462060044605
:102E6000C1E74545D5D94846FFF704FF08B92060BA
:102E7000AFE7C0F800B0002620600446B6E70000C7
:102E80002DE9F04F2DED028B83B0CDE90013BDF895
:102E90003C5007469146002A00F092802DB10E9BCF
:102EA000002B00F08D80072D32D807F10C00FFF7C2
:102EB000E1FE044638B96FF00204204603B0BDECD1
:102EC000028BBDE8F08F14220021FEF7BBFD0E99A6
:102ED0002A4604F10800FEF78FFD681CC0B2FFF718
:102EE00011FFFFF7F3FE207499F80030013814FA4F
:102EF00080F003F01F0363F03F030372009B43F075
:102F00000041616038462146FFF71CFE0124D4E7EA
:102F100000F10C034FF0000808EE103A4FF0800A61
:102F20004646444618EE100AFFF7A4FE83460028E2
:102F3000C1D014220021FEF785FDC6BB019BABF872
:102F4000083002200E9B00F1080299195BFA82F208
:102F50000130C0B2082801D0AE422AD3FFF7D2FE1A
:102F6000FFF7B4FE99F80020009B411E02F01F02FB
:102F700042EA4812AE4208BF4FF0400A5BFA81F1C4
:102F80004AEA020A43F0004281F808A08BF81000D8
:102F9000CBF8042059463846FFF7D4FD0134AE4241
:102FA00024B288F001084FF0000ABBD185E7002069
:102FB000C8E711F801CB02F801CB0136B6B2C7E77A
:102FC0006FF0010479E70000F8B515460E46282297
:102FD000002104461F46FEF735FD069B6360B5F5EC
:102FE000001F079BA76034BF6A094FF6FF72236278
:102FF00004F10C0097B200239A4205D80023036025
:1030000027826382A382F8BD0660013330462036F2
:10301000F2E7000003781BB94BB2002BC8BF017068
:1030200070470000007870472DE9F74FDDF83C90BD
:10303000BDF830500D9E9DF83840BDF84070804678
:1030400092469B46B9F1000F01D1002F51D11F2CA0
:103050004FD898F80000B0B9072F47D835F00303D0
:1030600047D13A4649464FF6FF70FFF7F7FD20F08B
:1030700001002D02400445EA0464400C44EA402467
:103080004FF6FF7321E040EA0520072F40EA046471
:10309000F6D900254FF6FF73C5F12000A5F12002F7
:1030A0002AFA05F10BFA00F001432BFA02F2114360
:1030B0001846C9B2FFF7C0FD0835402D0346EBD1D5
:1030C0003A464946FFF7CAFD0346CDE90097324626
:1030D00021464046FFF7D4FE33780133DBB21F2B85
:1030E00088BF0023337003B0BDE8F08F6FF003009A
:1030F000F9E76FF00100F6E72DE9F04F85B0924651
:10310000DDF848800F9D9DF840209DF84490BDF863
:103110004C7006469B46B8F1000F01D1002F48D1F4
:103120001F2A46D83378002B46D00C0244EA0264AA
:103130009DF8381044EAC93444EA01441C43072F7F
:1031400044F0800432D900234FF6FF72C3F1200C03
:10315000A3F120002AFA03F10BFA0CFC41EA0C015E
:103160002BFA00F00143C9B210460393FFF764FD48
:10317000039B0833402B0246E8D13A464146FFF70D
:103180006DFD0346CDE900872A4621463046FFF70C
:1031900077FEB9F1010F06D12B780133DBB21F2B7B
:1031A00088BF00232B7005B0BDE8F08F4FF6FF738A
:1031B000E8E76FF00100F6E76FF00300F3E70000C7
:1031C000C06900B104307047C3691A68C261C2683F
:1031D0001A60C360438A013B438270472DE9F04186
:1031E000D0F81880194E14461D464146002709B9EB
:1031F000BDE8F081D1E90223A21A65EB03039642F0
:1032000077EB03031ED283698B420DD1FFF796FD46
:1032100083691B688361C3680B60438AC1608169ED
:10322000013B43828846E2E7FFF788FD0B68C8F858
:103230000030C3680B60438AC160013B4382D8F809
:103240000010D4E788460968D1E700BF80841E00DB
:103250002DE9F04F8BB00D46DDF8509014469B469B
:103260008046002800F01981B9F1000F00F01581A7
:10327000531E3F2B00F21181012A03D1BBF1000F35
:1032800040F00B810023CDE90833B8F81430B5EBDA
:10329000C30F4FEAC30703D300200BB0BDE8F08F84
:1032A0002B199F42D8F80C303ABF7F1BFFB227463C
:1032B0001BB9D8F81030002B7AD0272D4ED8C5F185
:1032C0002806B7424FF000032CBFF6B23E460093EB
:1032D0002946D8F8080008AB3246FFF775FCA7EB83
:1032E000060A35445FFA8AFAB8F8143003F100533D
:1032F000053BDB000493D8F80C3003932821039B93
:1033000013B1BAF1000F2CD1D8F8100040B1BAF1C6
:10331000000F05D0009608AB5246691AFFF754FC1F
:1033200038B2002FB8D066070AD00AAB03EBD4013D
:10333000624211F8083C02F00702134101F8083C10
:10334000082C3CD9102C40F2B580202C40F2B780DC
:10335000BBF1000F00F09C80082334E0BA46002641
:10336000C2E7049BE02B28BFE02306930B44AB424B
:10337000059314D95A1B03980096924534BF5246C0
:10338000D2B2691A08AB04300792FFF71DFC079A06
:103390001644AAEB020A1544F6B25FFA8AFA049BB5
:1033A000069A05999B1A0493039B1B680393A6E74F
:1033B0000093D8F8080008AB3A462946AEE7BBF1BF
:1033C000000F13D00123B4EBC30F6CD0082C12D81C
:1033D0009DF82030621E23FA02F2D50706D54FF081
:1033E000FF3202FA04F423438DF820309DF8203098
:1033F00089F8003051E7102C12D8BDF82030621E39
:1034000023FA02F2D10706D54FF0FF3202FA04F494
:103410002343ADF82030BDF82030A9F800303CE758
:10342000202C0FD80899631E21FA03F3DA0705D57B
:103430004FF0FF3202FA04F40C430894089BC9F8D9
:1034400000302AE7402C2BD0DDE90865611EC4F16D
:103450002102A4F1210326FA01F105FA02F225FA6C
:1034600003F311431943CB0712D50122A4F1200322
:10347000C4F1200102FA03F322FA01F1A240524200
:1034800043EA010363EB430332432B43CDE90823B3
:10349000DDE90823C9E90023FFE66FF00100FCE63F
:1034A0006FF00800F9E6082CA0D9102CB3D9202C15
:1034B000EED8C3E7BBF1000FADD0022383E7BBF129
:1034C000000FBBD004237EE730B5012A144638BF75
:1034D0000124402C85B028BF40240025012ACDE9D5
:1034E000025518D81B788DF8083063070AD004AB52
:1034F00003EBD405624215F8083C02F00702934042
:1035000005F8083C009103462246002102A8FFF777
:103510005BFB05B030BD082AE4D9102A03D81B880C
:10352000ADF80830E1E7202A8DBFD3E900231B68FE
:103530000293CDE90223D8E710B5CB681BB98B60A5
:103540000B618B8210BDC4681A681C60C360438A1B
:10355000013B4382CA60F0E72DE9F04F95B0CDE919
:1035600004230B680D461A06C3F3C01147BFC3F30B
:10357000C03BC3F306264FF0020B0E46002B044659
:1035800080F2058213F0C04940F001822A7B002AB4
:1035900000F0FD81BBF1020F03D00078B04240F093
:1035A000F981C3F30460089003F07F00069059B3DB
:1035B000C3F3074A2A44069B92F80380760646EA3C
:1035C0000B4646EA834600220023CDE90A235FEA40
:1035D000D81346EA0A0603936AD0069B00936768ED
:1035E0005B4652460AA92046B847002800F0D5811C
:1035F000A76987B9314604F10C00FFF749FB07467C
:10360000C8B96FF0020057E0C3F30F2A5B0608BF8A
:103610000AF0030ACEE73B699E420DD03F68002FB7
:10362000F9D1314604F10C00FFF732FB07460028C0
:10363000E7D0A3693B60A761FE7D08F01F03C6F3D6
:103640008406F01A1FFA80FC0028B8BF0CF1200095
:103650000793A3EB06031FFA83FCD7E90221B8BF47
:1036600000B2002B0993BEBF0CF120031BB20993DB
:1036700052EA010335D0049EDFF8DCC2B21A059E7F
:1036800066EB01010026944576EB010329D395F8FA
:103690000DE097F81AC0E64516D1039B002B78D0B1
:1036A00001281EDCAB48904276EB010316D338E0CC
:1036B000A76927B96FF00C0015B0BDE8F08F3B6922
:1036C0009E42B9D03F68F4E7A248904276EB0103EE
:1036D00001D30020F0E7039B002BFAD0099B0F2BAE
:1036E00018DCFA7D4FEA880302F0030203F07C0342
:1036F0001343FB7539462046FFF720FB6B7BBB76F7
:10370000039B3BB9FB7DC3F38402013262F3860362
:10371000FB75CFE76A7BBB7E9A42DAD1039B002B15
:1037200037D04FEA9813022B33D0049BBB60059B24
:10373000FB60142200210FA8FEF784F9049B0C9370
:10374000059B0D932B1D0E932B7BADF846A0013BE3
:10375000DBB2ADF84430079B8DF84930089B8DF8FB
:103760004A30069B8DF84B3094F824308DF848B0E1
:1037700083F001038DF84C300CA9A36820469847CC
:10378000FB7DC3F38403013303F01F039B02FB8221
:103790009FE7FB7DC8F34012B2EBD31F40F00081DE
:1037A000079AC3F38403934240F0FD8003992B7B77
:1037B0004FEA9812002952D012F0010861D1032B70
:1037C00040F2F480049BBB60059BFB60FB8A68F3BE
:1037D0000903FB822B7BAE1D033BDBB2324639462D
:1037E00004F10C00FFF7BCFA00280CDA3946204639
:1037F000FFF7A4FAFB7DC3F38403013303F01F0337
:103800009B02FB82FDE6DDE90A84AB883B834FF631
:10381000FF73C9F12000A9F1200228FA09F104FA86
:1038200000F0014324FA02F211431846C9B2FFF72F
:1038300003FA09F10809B9F1400F0346E9D1B8824A
:103840002A7B033AD2B23146FFF708FAFB7DB882F1
:10385000DA43C2F3C01262F3C713FB7539E782B9CA
:103860002E1D013BDBB23246394604F10C00FFF756
:1038700077FA0028BADB2A7BB88A013AD2B23146FD
:10388000E2E7F98AC1F30901013B0429DAB25CD805
:10389000281D002307F11B069A4208D910F801CB16
:1038A00006F801C0013101330529DBB2F4D10499D6
:1038B0000C9105990D91934207F11B010E9138BFB0
:1038C000043379680F9134BF55FA83F300231093C2
:1038D000FB8AADF846A0C3F309031A44079B8DF891
:1038E0004930089B8DF84A30069B8DF84B3094F890
:1038F0002430ADF8442083F001038DF84C300023D0
:103900008DF848B07B602A7BB88A013A291DFFF701
:10391000A5F93B8BB882834203D1A3680CA920464A
:10392000984720460CA9FFF707FEFB7DBA8AC3F330
:103930008403013303F01F039B02FB823B8B9A42FB
:103940000CBF00206FF01000B6E67B68002BAED0F5
:10395000052005E040420F0080841E001C303346E5
:103960001E68002EFAD1091A081D2E1D184401EBFD
:10397000090CBCF11B0F5FFA89F398D89A4296D9CB
:1039800016F8013B00F8013B09F10109EFE76FF080
:10399000090091E66FF00A008EE66FF00B008BE6EF
:1039A0006FF00D0088E66FF00E0085E66FF00F00F7
:1039B00082E600BFEFF3098305494A6B22F001025A
:1039C0004A63683383F30988002383F311887047BF
:1039D00000EF00E0202080F3118862B60C4B0D4A06
:1039E000D96821F4E0610904090C0A43DA60D3F8CC
:1039F000FC20094942F08072C3F8FC200A6842F0BA
:103A000001020A601022DA7783F82200704700BFB3
:103A100000ED00E00003FA05001000E010B52023DF
:103A200083F311880E4B5B6813F4006314D0F1EE3E
:103A3000103AEFF30984683C4FF08073E361094B5F
:103A4000DB6B236684F3098800F0ACFF10B1064BF2
:103A5000A36110BD054BFBE783F31188F9E700BFB5
:103A600000ED00E000EF00E02B0600082E06000845
:103A7000026843681143016003B1184770470000B2
:103A8000024A136843F0C0031360704700440040CB
:103A900013B50D4C204600F099FA04F114000B49BF
:103AA00000940023202200F05BF9094B094900949F
:103AB000202204F1380000F0D5F9074A074BC4E989
:103AC000172302B010BD00BF34350020A035002000
:103AD000813A0008C03500200044004000B4C4040E
:103AE00030B5037C214C002918BF0C46012B0CD1AA
:103AF0001F4B984209D11F4B9A6D42F400329A65D0
:103B00009A6F42F400329A679B6F2268036EC16D10
:103B1000846603EB5203B3FBF2F36268150442BF01
:103B200023F0070503F0070343EA4503CB60A368CE
:103B300043F040034B60E36843F001038B6042F4C1
:103B4000967343F001030B604FF0FF330B62510596
:103B500005D512F0102205D0B2F1805F04D080F8B4
:103B6000643030BD7F23FAE73F23F8E7106A00088E
:103B700034350020001002402DE9F047C66D37684B
:103B8000F46934622107054618D014F0080118BF03
:103B90008021E20748BF41F02001A30748BF41F060
:103BA0004001600748BF41F48071202383F31188EE
:103BB000281DFFF75DFF002383F31188E2050AD576
:103BC000202383F311884FF40071281DFFF750FF65
:103BD000002383F311884FF020094FF0000A14F0FE
:103BE000200838D13B0616D54FF0200905F1380AD8
:103BF000200610D589F31188504600F067F9002897
:103C000036DA0821281DFFF733FF27F080033360E1
:103C1000002383F31188790614D5620612D5202378
:103C200083F31188D5E913239A4208D12B6C33B161
:103C30001021281D27F04007FFF71AFF37600023E7
:103C400083F31188E30619D5AA6E1369B3B1BDE8F1
:103C5000F0475069184789F31188B38C95F86410C0
:103C60002846194000F0CCF98AF31188F469B6E7C8
:103C700080B2308588F31188F469B9E7BDE8F08730
:103C800000F1604303F561430901C9B283F80013F1
:103C9000012200F01F039A4043099B0003F1604397
:103CA00003F56143C3F880211A607047F8B51546E3
:103CB00082680669AA420B46816938BF8568761A10
:103CC000B54204460BD218462A46FDF795FEA36975
:103CD0002B44A361A3685B1BA3602846F8BD0CD9E5
:103CE00018463246FDF788FEAF1BE1683A4630447D
:103CF000FDF782FEE3683B44EBE718462A46FDF7F2
:103D00007BFEE368E5E7000083689342F7B515465C
:103D1000044638BF8568D0E90460361AB5420BD234
:103D20002A46FDF769FE63692B446361A368284650
:103D30005B1BA36003B0F0BD0DD932460191FDF7C6
:103D40005BFE0199E068AF1B3A463144FDF754FE33
:103D5000E3683B44E9E72A46FDF74EFEE368E4E703
:103D600010B50A440024C361029B8460C0E90000CE
:103D7000C0E90511C1600261036210BD08B5D0E958
:103D80000532934201D1826882B982680132826031
:103D90005A1C42611970D0E904329A4224BFC368A8
:103DA0004361002100F0D8FE002008BD4FF0FF3035
:103DB000FBE7000070B5202304460E4683F311880C
:103DC000A568A5B1A368A269013BA360531CA361C8
:103DD00015782269934224BFE368A361E3690BB1BC
:103DE00020469847002383F31188284607E0314690
:103DF000204600F0A1FE0028E2DA85F3118870BDAC
:103E00002DE9F74F04460E4617469846D0F81C9009
:103E10004FF0200A8AF311884FF0000B154665B168
:103E20002A4631462046FFF741FF034660B9414626
:103E3000204600F081FE0028F1D0002383F3118892
:103E4000781B03B0BDE8F08FB9F1000F03D00190EB
:103E50002046C847019B8BF31188ED1A1E448AF354
:103E60001188DCE7C0E90511C160C3611144009B02
:103E70008260C0E90000016103627047F8B5044642
:103E80000D461646202383F31188A768A7B1A368BF
:103E9000013BA36063695A1C62611D70D4E904325E
:103EA0009A4224BFE3686361E3690BB120469847F7
:103EB000002080F3118807E03146204600F03CFEE8
:103EC0000028E2DA87F31188F8BD0000D0E9052365
:103ED0009A4210B501D182687AB982680132826053
:103EE0005A1C82611C7803699A4224BFC3688361AB
:103EF000002100F031FE204610BD4FF0FF30FBE7FF
:103F00002DE9F74F04460E4617469846D0F81C9008
:103F10004FF0200A8AF311884FF0000B154665B167
:103F20002A4631462046FFF7EFFE034660B9414678
:103F3000204600F001FE0028F1D0002383F3118811
:103F4000781B03B0BDE8F08FB9F1000F03D00190EA
:103F50002046C847019B8BF31188ED1A1E448AF353
:103F60001188DCE7026843681143016003B1184718
:103F7000704700001430FFF743BF00004FF0FF33DD
:103F80001430FFF73DBF00003830FFF7B9BF000025
:103F90004FF0FF333830FFF7B3BF00001430FFF7A6
:103FA00009BF00004FF0FF311430FFF703BF0000DE
:103FB0003830FFF763BF00004FF0FF323830FFF7B3
:103FC0005DBF000000207047FFF762BD044B036037
:103FD0000023C0E90233436001230374704700BF2C
:103FE000286A000810B52023044683F31188FFF7E0
:103FF00077FD02232374002383F3118810BD000092
:1040000038B5C36904460D461BB904210844FFF7BF
:10401000A9FF294604F11400FFF7B0FE002806DAD4
:10402000201D4FF48061BDE83840FFF79BBF38BDCD
:10403000026843681143016003B1184770470000EC
:1040400013B5446BD4F894341A681178042915D147
:10405000217C022912D11979128901238B40134244
:104060000CD101A904F14C0001F062FFD4F8944492
:10407000019B21790246206800F0D4F902B010BDFE
:10408000143001F0E5BE00004FF0FF33143001F0B2
:10409000DFBE00004C3001F0B7BF00004FF0FF332F
:1040A0004C3001F0B1BF0000143001F0B3BE00008D
:1040B0004FF0FF31143001F0ADBE00004C3001F084
:1040C00083BF00004FF0FF324C3001F07DBF000095
:1040D0000020704710B5D0F894341A68117804297C
:1040E000044617D1017C022914D159795289012340
:1040F0008B4013420ED1143001F046FE024648B107
:10410000D4F894444FF4807361792068BDE810407E
:1041100000F076B910BD0000406BFFF7DBBF000078
:10412000704700007FB5124B036000234360C0E975
:104130000233012502260F4B0574044602900193B9
:1041400000F18402294600964FF48073143001F088
:10415000F7FD094B0294CDE9006304F523724FF497
:104160008073294604F14C0001F0BEFE04B070BD1E
:10417000506A000819410008414000080B682022DD
:1041800082F311880A7903EB820210624A790D32B8
:1041900043F822008A7912B103EB820318620223EA
:1041A0000374C0F89414002383F31188704700004F
:1041B00038B5037F044613B190F85430ABB9201DD5
:1041C00001250221FFF734FF04F1140025776FF079
:1041D000010100F0CDFC84F8545004F14C006FF064
:1041E0000101BDE8384000F0C3BC38BD10B5012165
:1041F00004460430FFF71CFF0023237784F8543073
:1042000010BD000038B504460025143001F0B0FDA3
:1042100004F14C00257701F07FFE201D84F85450F6
:104220000121FFF705FF2046BDE83840FFF752BFE8
:1042300090F85C3003F06003202B07D190F85D20EC
:10424000212A4FF0000303D81F2A06D80020704708
:10425000222AFBD1C0E9143303E0034A0265072296
:1042600042658365012070472811002037B5D0F8DA
:1042700094341A681178042904461AD1017C022961
:1042800017D11979128901238B40134211D100F102
:104290004C05284601F000FF58B101A9284601F05D
:1042A00047FED4F89444019B21790246206800F02F
:1042B000B9F803B030BD0000F0B500EB810385B064
:1042C0001E6A04460D46FEB1202383F3118804EBD9
:1042D0008507301D0821FFF7ABFEFB685B691B6893
:1042E00006F14C001BB1019001F030FE019803A9CA
:1042F00001F01EFE024648B1039B2946204600F00D
:1043000091F8002383F3118805B0F0BDFB685A696A
:104310001268002AF5D01B8A013B1340F1D104F149
:104320005C02EAE70D3138B550F82140DCB12023BA
:1043300083F31188D4F894241368527903EB820331
:10434000DB689B695D6845B104216018FFF770FE6A
:10435000294604F1140001F021FD2046FFF7BAFEC2
:10436000002383F3118838BD7047000001F0CEB8F8
:1043700010B501230446282200F8243B0021FDF754
:1043800061FB0023C4E9013310BD000038B50446C9
:10439000202383F311880025C0E90355C0E90555A2
:1043A000C0E90755416001F0C1F80223237085F38D
:1043B000118838BD70B500EB810305465069DA609D
:1043C0000E46144618B110220021FDF73BFBA069F0
:1043D00018B110220021FDF735FB31462846BDE813
:1043E000704001F06DB90000826802F00112826035
:1043F0000022C0E90422C0E90622026201F0ECB901
:10440000F0B400EB81044789E4680125A4698D407C
:104410003D43458123600023A2606360F0BC01F04E
:1044200007BA0000F0B400EB81040789E4680125B5
:1044300064698D403D43058123600023A260636071
:10444000F0BC01F081BA000070B5022300250446DB
:104450000370C0E90255C0E90455C0E90655456638
:10446000056280F84C5001F0C7F863681B6823B1FF
:1044700029462046BDE87040184770BD037880F893
:1044800068300523037043681B6810B504460BB100
:10449000042198470023A36010BD000090F8682015
:1044A000436802701B680BB1052118477047000074
:1044B00070B590F84C30044613B1002380F84C30AE
:1044C00004F15C02204601F0A9F963689B68B3B966
:1044D00094F85C3013F0600535D00021204601F0DF
:1044E00011FC0021204601F003FC63681B6813B136
:1044F000062120469847062384F84C3070BD20469C
:1045000098470028E4D0B4F86230626D9A4288BFC0
:10451000636594F95C30656D002B4FF0200380F2E9
:104520000381002D00F0F280092284F84C2083F3EF
:1045300011880021D4E914232046FFF773FF0023DC
:1045400083F31188DAE794F85D2003F07F0343EAF0
:10455000022340F20232934200F0C58021D8B3F525
:10456000807F48D00DD8012B3FD0022B00F09380E4
:10457000002BB2D104F16402226502226265A365B8
:10458000C1E7B3F5817F00F09B80B3F5407FA4D1F4
:1045900094F85E30012BA0D1B4F8643043F00203EC
:1045A00032E0B3F5006F4DD017D8B3F5A06F31D01E
:1045B000A3F5C063012B90D8636894F85E205E6811
:1045C00094F85F10B4F860302046B047002884D0DB
:1045D00043682365036863651AE0B3F5106F36D04E
:1045E00040F6024293427FF478AF5C4B236502238E
:1045F00063650023C3E794F85E30012B7FF46DAF51
:10460000B4F8643023F00203C4E91455A4F864300C
:10461000A56578E7B4F85C30B3F5A06F0ED194F8D7
:104620005E3084F86630204601F03EF863681B680F
:1046300013B1012120469847032323700023C4E9C6
:1046400014339CE704F1670323650123C3E7237850
:10465000042B10D1202383F311882046FFF7C4FEDA
:1046600085F311880321636884F8675021701B6803
:104670000BB12046984794F85E30002BDED084F8CA
:1046800067300423237063681B68002BD6D0022197
:1046900020469847D2E794F860301D0603F00F01DA
:1046A00020460AD501F0ACF8012804D002287FF496
:1046B00014AF2B4B9AE72B4B98E701F093F8F3E7F5
:1046C00094F85E30002B7FF408AF94F8603013F05C
:1046D0000F01B3D01A06204602D501F027FBADE743
:1046E00001F01AFBAAE794F85E30002B7FF4F5AED8
:1046F00094F8603013F00F01A0D01B06204602D5BD
:1047000001F000FB9AE701F0F3FA97E7142284F82E
:104710004C2083F311882B462A4629462046FFF772
:104720006FFE85F31188E9E65DB1152284F84C200F
:1047300083F311880021D4E914232046FFF760FE9B
:10474000FDE60B2284F84C2083F311882B462A4681
:1047500029462046FFF766FEE3E700BF806A0008AF
:10476000786A00087C6A000838B590F84C30044636
:10477000002B3ED0063BDAB20F2A34D80F2B32D8AA
:10478000DFE803F037313108223231313131313154
:1047900031313737456DB0F862309D4214D2C3686D
:1047A0001B8AB5FBF3F203FB12556DB9202383F38B
:1047B00011882B462A462946FFF734FE85F31188D7
:1047C0000A2384F84C300EE0142384F84C30202364
:1047D00083F3118800231A4619462046FFF710FE7E
:1047E000002383F3118838BD836D03B198470023FC
:1047F000E7E70021204601F085FA0021204601F07C
:1048000077FA63681B6813B1062120469847062390
:10481000D7E7000010B590F84C30142B044629D08F
:1048200017D8062B05D001D81BB110BD093B022BB0
:10483000FBD80021204601F065FA0021204601F056
:1048400057FA63681B6813B1062120469847062370
:1048500019E0152BE9D10B2380F84C30202383F38A
:10486000118800231A461946FFF7DCFD002383F365
:104870001188DAE7C3689B695B68002BD5D1836D2B
:1048800003B19847002384F84C30CEE7024B002256
:10489000C3E900339A607047E035002000230374B9
:1048A0008268054B1B6899689142FBD25A68036085
:1048B0004260106058607047E035002008B5202342
:1048C00083F31188037C032B05D0042B0DD02BB967
:1048D00083F3118808BD436900221A604FF0FF334B
:1048E0004361FFF7DBFF0023F2E7D0E900321360FA
:1048F0005A60F3E7002303748268054B1B689968CC
:104900009142FBD85A68036042601060586070475B
:10491000E0350020054B19690874186802681A60B0
:104920005360186101230374FBF76ABEE035002071
:1049300030B54B1C0B4D87B0044610D02B690A4A8A
:1049400001A800F031F92046FFF7E4FF049B13B102
:1049500001A800F065F92B69586907B030BDFFF771
:10496000D9FFF8E7E0350020BD48000838B50C4D08
:1049700041612B6981689A689142044603D8BDE879
:104980003840FFF78BBF1846FFF7B4FF01232C61B7
:10499000014623742046BDE83840FBF731BE00BF16
:1049A000E0350020044B1A681B6990689B689842A8
:1049B00094BF002001207047E035002010B5084C5E
:1049C000236820691A6822605460012223611A74E6
:1049D000FFF790FF01462069BDE81040FBF710BECD
:1049E000E035002008B5FFF7DDFF18B1BDE808404D
:1049F000FFF7E4BF08BD0000FFF7E0BFFEE70000DF
:104A000010B50C4CFFF742FF00F0C0F80A498022B5
:104A1000204600F047F8012344F8180C0374FEF711
:104A2000D9FF002383F3118862B60448BDE8104023
:104A300000F058B808360020846A0008946A00081C
:104A400008B572B6034B586200F0D8FB00F084FC46
:104A5000FEE700BFE035002000F01CB9EFF3118045
:104A600020B9EFF30583202282F3118870470000FC
:104A700010B530B9EFF30584C4F3080414B180F322
:104A8000118810BDFFF7AEFF84F31188F9E700002D
:104A9000034A516853685B1A9842FBD8704700BFBD
:104AA000001000E082600222028270478368A3F156
:104AB0007C0243F80C2C026943F83C2C426943F811
:104AC000382C074A43F81C2CC26843F8102C0222E9
:104AD00003F8082C002203F8072CA3F118007047F4
:104AE0001906000810B5202383F31188FFF7DEFFB5
:104AF00000210446FFF73AFF002383F31188204684
:104B000010BD0000024B1B6958610F20FFF702BF68
:104B1000E0350020202383F31188FFF7F3BF000066
:104B200008B50146202383F311880820FFF700FF12
:104B3000002383F3118808BD49B1064B42681B6905
:104B400018605A60136043600420FFF7F1BE4FF015
:104B5000FF307047E03500200368984206D01A689D
:104B60000260506059611846FFF798BE7047000018
:104B700038B504460D462068844200D138BD03682C
:104B800023605C604561FFF789FEF4E7054B03F1A4
:104B90001402C3E905224FF0FF310022C3E90712D6
:104BA000704700BFE035002070B51C4EC0E90323FC
:104BB00005460C4601F0A2FA334653F8142F9A42E8
:104BC0000DD13062C5E901242A600A2C2CBF0019DE
:104BD0000A30C6E90555BDE8704001F07DBA316A7A
:104BE000431AE31838BF1C469368A34202D9081938
:104BF00001F080FA73699A6894420CD85A68AC60E4
:104C00002B606A6015609A685D60121B9A604FF0B5
:104C1000FF33F36170BD1B68A41AECE7E035002098
:104C200038B51B4C636998420DD0D0E9003213604F
:104C30005A6000228168C2609A680A449A604FF004
:104C4000FF33E36138BD2246036842F8143F002178
:104C500093425A60C16003D1BDE8384001F044BAC4
:104C60009A688168256A0A449A6001F047FA636984
:104C70009A68411B8A42E5D9AB181D1A092D206A92
:104C800098BF01F10A02BDE83840104401F032BA81
:104C9000E03500202DE9F041184C002704F11406FE
:104CA000656901F02BFA236AAA68C11A8A4215D8ED
:104CB00013442362D5E9003213605A606369D5F862
:104CC0000C80EF60B34201D101F00EFA87F3118836
:104CD0002869C047202383F31188E1E76169B14265
:104CE00009D013441B1ABDE8F0410A2B2CBFC01891
:104CF0000A3001F0FFB9BDE8F08100BFE0350020C7
:104D00000C2303604FF0FF30704700000020704715
:104D1000FEE70000704700004FF0FF3070470000D2
:104D200002290CD0032904D00129074818BF00200C
:104D30007047032A05D8054800EBC20070470448B5
:104D400070470020704700BF786B000838110020C2
:104D50002C6B000870B59AB00546084601A91446A8
:104D600000F0C2F801A8FCF765FE431C5B00C5E932
:104D700000340022237003236370C6B201AB0234F7
:104D80001046D1B28E4204F1020401D81AB070BDAF
:104D900013F8011B04F8021C04F8010C0132F0E7BF
:104DA00008B5202383F311880348FFF75FFA002337
:104DB00083F3118808BD00BF5837002090F85C309D
:104DC00003F01F02012A07D190F85D200B2A03D1BE
:104DD0000023C0E9143315E003F06003202B08D151
:104DE000B0F860302BB990F85D20212A03D81F2A33
:104DF00004D8FFF71DBA222AEBD0FAE7034A02656E
:104E00000722426583650120704700BF2F110020F3
:104E100007B5052917D8DFE801F01916031919207D
:104E2000202383F31188104A01900121FFF7C2FA71
:104E300001980E4A0221FFF7BDFA0D48FFF7E2F98B
:104E4000002383F3118803B05DF804FB202383F370
:104E500011880748FFF7ACF9F2E7202383F31188A4
:104E60000348FFF7C3F9EBE7CC6A0008F06A0008D3
:104E70005837002038B50C4D0C4C0D492A4604F12A
:104E80000800FFF767FF05F1CA0204F110000949A5
:104E9000FFF760FF05F5CA7204F118000649BDE886
:104EA0003840FFF757BF00BF203C002038110020DA
:104EB000AC6A0008B66A0008C16A000870B504460A
:104EC00008460D46FCF7B6FDC6B22046013403780D
:104ED0000BB9184670BD32462946FCF797FD0028ED
:104EE000F3D10120F6E700002DE9F84F05460C4606
:104EF000FCF7A0FD2B49C6B22846FFF7DFFF08B13B
:104F00000536F6B228492846FFF7D8FF08B1103613
:104F1000F6B2632E0DD8DFF88C80DFF88C90234F2B
:104F2000DFF890A0DFF890B02E7846B92670BDE883
:104F3000F88F29462046BDE8F84F01F0F9BC252E30
:104F40002BD1072241462846FCF760FD58B9DBF813
:104F500000302360DBF804306360DBF80830A360C6
:104F600007350C34E0E7082249462846FCF74EFD99
:104F700098B90F4BA21C197809090232C95D02F8D1
:104F8000041C13F8011B01F00F015345C95D02F821
:104F9000031CF0D118340835C6E704F8016B01355D
:104FA000C2E700BF986B0008C16A0008A06B000848
:104FB0009075FF1F9C75FF1F6E690008BFF34F8F30
:104FC000024A1369DB03FCD4704700BF0020024093
:104FD00008B5094B1B7873B9FFF7F0FF074B5A6907
:104FE000002ABFBF064A9A6002F188329A601A68A6
:104FF00022F480621A6008BD903E0020002002402A
:105000002301674508B50B4B1B7893B9FFF7D6FF13
:10501000094B5A6942F000425A611A6842F48052C0
:105020001A601A6822F480521A601A6842F4806288
:105030001A6008BD903E0020002002407F289ABFE1
:1050400000F58030C0020020704700004FF400607F
:1050500070470000802070477F2808B50BD8FFF705
:10506000EDFF00F500630268013204D10430834291
:10507000F9D1012008BD0020FCE700007F2838B5E9
:10508000044626D8FFF7EAFCFFF798FFFFF7A0FFDA
:10509000114BF3221A6102225A615A6942EAC40290
:1050A0005A615A6942F480325A6105462046FFF738
:1050B00085FF4FF40061FFF7C1FF00F049F9284672
:1050C000FFF7A0FFFFF7D4FC2046BDE83840FFF70C
:1050D000C3BF002038BD00BF0020024040EA0203E9
:1050E00013F007032DE9F04705460C46164606D097
:1050F000324B40F2FB221A600020BDE8F087811895
:105100002F4A91420CD92D4A4FF440711160F3E7B8
:105110002B1D1B686268934208D1083E083508348D
:10512000072E19D92A6823689A42F1D0FFF796FC16
:10513000FFF74EFFFFF742FF04F10801214C4FF04B
:1051400001084FF00009012EA1F1080708D8FFF768
:1051500059FFFFF78DFC01E0002EE7D10120CCE7DD
:10516000C4F81480AA4651F8083C4AF8043B51F8A8
:10517000043C6B60FFF722FFC4F814902A6851F8D2
:10518000083C9A420ED00D4B40F226321A600E4B6C
:105190001D600E4B1E600E4B1F60FFF733FFFFF7C5
:1051A00067FCA9E7DAF800A051F8043C9A4501F140
:1051B0000801E8D1083E0835C5E700BF8C3E002055
:1051C0000000040800200240803E0020883E0020AD
:1051D000843E0020084908B50B7828B11BB9FFF7B9
:1051E000F7FE01230B7008BD002BFCD0BDE8084082
:1051F0000870FFF707BF00BF903E00204FF4A021CA
:105200004FF0005000F0A6B870B582B0FFF726FC52
:105210000E4E054600F072FF3268904237BF0C4ACE
:105220000B49516814682EBFD1E90041013151602A
:105230000419034641F10001284601913360FFF74C
:1052400017FC0199204602B070BD00BF943E0020BB
:10525000983E002070B582B0FFF700FC104E054666
:1052600000F04CFF3268904237BF0E4A0D4951683A
:1052700014682EBFD1E9004101315160041941F198
:1052800000010346284601913360FFF7F1FB0199C5
:105290004FF47A7200232046FAF79AFF02B070BDED
:1052A000943E0020983E002010B50244064BD2B236
:1052B000904200D110BD441C00B253F8200041F8C8
:1052C000040BE0B2F4E700BF50280040114B30B5AA
:1052D000D3F89040240409D4D3F89040C3F8904008
:1052E000D3F8904044F40044C3F890400A4C23683B
:1052F00043F4807323600244084BD2B2904200D141
:1053000030BD441C00B251F8045B43F82050E0B2B9
:10531000F4E700BF00100240007000405028004039
:1053200007B5012201A90020FFF7BEFF019803B0D5
:105330005DF804FB13B50446FFF7F2FFA04205D069
:10534000012201A900200194FFF7C0FF02B010BDA7
:10535000704700007047000070470000074B45F29F
:1053600055521A6002225A6040F6FF729A604CF65B
:10537000CC421A60024B01221A7070470030004084
:10538000A43E0020034B1B781BB1034B4AF6AA2214
:105390001A607047A43E002000300040054B1A6898
:1053A00032B902F1804202F50432D2F894201A6038
:1053B000704700BFA03E0020024B4FF40002C3F82C
:1053C000942070470010024008B5FFF7E7FF024B3A
:1053D0001868C0F3407008BDA03E00207047000070
:1053E000FEE700000A4B0B480B4A90420BD30B4BD5
:1053F000DA1C121AC11E22F003028B4238BF0022AF
:105400000021FCF71FBB53F8041B40F8041BECE71A
:105410008C6D0008CC3F0020CC3F0020CC3F00200A
:105420007047000070B5D0E91B439E6800224FF022
:10543000FF3504EB42135101D3F800090028BEBF29
:10544000D3F8000940F08040C3F80009D3F8000BFE
:105450000028BEBFD3F8000B40F08040C3F8000B1B
:10546000013263189642C3F80859C3F8085BE0D2CA
:105470004FF00113C4F81C3870BD00001D4B03EB46
:1054800080022DE9F043D2F80CC0DD6EDCF8142068
:10549000461CD2F800E005EB063605EB40185168D3
:1054A00071450AD3D5F83438012202FA00F023EA14
:1054B0000000C5F83408BDE8F083BCF81040AEEB3E
:1054C0000103A34228BF2346D8F81849A4B2B3EB7E
:1054D000840FF0D89468A4F1040959F8047F376068
:1054E000A4EB09071F44042FF7D81C440B44946015
:1054F0005360D4E7A83E0020890141F020010161FA
:1055000003699B06FCD41220FFF7C2BA10B5054C04
:105510002046FEF72DFF4FF0A043E366024B2367C2
:1055200010BD00BFA83E0020D86B000870B50378FE
:10553000012B054650D12A4BC46E98421BD1294BF2
:10554000DA6C42F48052DA64DA6E42F48052DA663F
:10555000DA6EDA6A42F48052DA62DA6A22F480524F
:10556000DA620E214320DB6AFEF78AFB1E4BE36002
:105570001E4BC4F800380023C4F8003EC02323604B
:10558000EE6E4FF40413A3633369002BFCDA01239E
:1055900033610C20FFF77CFA3369DB07FCD412205F
:1055A000FFF776FA3369002BFCDA0026A66028465E
:1055B000FFF738FF6B68C4F81068DB68C4F814683C
:1055C000C4F81C684BB90A4BA3614FF0FF33636109
:1055D000A36843F00103A36070BD064BF4E700BF6E
:1055E000A83E0020001002404014004003002002AA
:1055F000003C30C0083C30C0F8B5C46E0546002100
:105600002046FFF779FF296F00234FF001128F68C2
:10561000C4F834384FF00066C4F81C284FF0FF304F
:1056200004EB431201339F42C2F80069C2F8006BD9
:10563000C2F80809C2F8080BF2D20B68EA6E6B6771
:10564000636210231361166916F01006FBD1122055
:10565000FFF71EFAD4F8003823F4FE63C4F80038CC
:10566000A36943F4402343F01003A3610923C4F862
:105670001038C4F814380A4BEB604FF0C043C4F83C
:10568000103B084BC4F8003BC4F81069C4F800395B
:105690006B6F03F1100243F480136A67A362F8BDD5
:1056A000B46B000840800010C26E90F86610D2F80B
:1056B000003823F4FE6343EA0113C2F80038704750
:1056C0002DE9F84300EB8103C56EDA68166806F031
:1056D0000306731E022B05EB41130C4680460FFA9E
:1056E00081F94FEA41104FF00001C3F8101B4FF051
:1056F000010104F1100398BFB60401FA03F39169A4
:105700008EBF334E06F1805606F5004600293AD08A
:10571000578A04F15801490137436F50D5F81C18D6
:105720000B43C5F81C382B180021C3F81019536916
:105730000127611EA7409BB3138A928B9B08012A05
:1057400088BF5343D8F87420981842EA034301F104
:10575000400205EB8202C8F87400214653602846D7
:10576000FFF7CAFE08EB8900C3681B8A43EA84532B
:10577000483464011E432E51D5F81C381F43C5F828
:105780001C78BDE8F88305EB4917D7F8001B21F416
:105790000041C7F8001BD5F81C1821EA0303C0E735
:1057A00004F13F0305EB83030A4A5A602846214669
:1057B000FFF7A2FE05EB4910D0F8003923F40043AF
:1057C000C0F80039D5F81C3823EA0707D7E700BF2F
:1057D0000080001000040002026F12684267FFF7A9
:1057E00021BE00005831C36E49015B5813F40040DC
:1057F00004D013F4001F0CBF0220012070470000EA
:105800004831C36E49015B5813F4004004D013F4CF
:10581000001F0CBF022001207047000000EB810137
:10582000CB68196A0B6813604B68536070470000BF
:1058300000EB810330B5DD68AA691368D36019B93C
:10584000402B84BF402313606B8A1468C26E1C44D3
:10585000013CB4FBF3F46343033323F0030302EB93
:10586000411043EAC44343F0C043C0F8103B2B68E7
:1058700003F00303012B09B20ED1D2F8083802EB72
:10588000411013F4807FD0F8003B14BF43F08053E5
:1058900043F00053C0F8003B02EB4112D2F8003B4A
:1058A00043F00443C2F8003B30BD00002DE9F04155
:1058B000244DEE6E06EB40130446D3F8087BC3F884
:1058C000087B38070AD5D6F81438190706D505EB32
:1058D00084032146DB6828465B689847FA071FD592
:1058E000D6F81438DB071BD505EB8403D968CCB98F
:1058F0008B69488A5A68B2FBF0F600FB16228AB917
:105900001868DA6890420DD2121AC3E900242023E5
:1059100083F311880B482146FFF78AFF84F311882F
:10592000BDE8F081012303FA04F26B8923EA020344
:105930006B81CB68002BF3D021460248BDE8F041D3
:10594000184700BFA83E002000EB810370B5DD685A
:10595000C36E6C692668E6604A0156BB1A444FF470
:105960000020C2F810092A6802F00302012A0AB2D4
:105970000ED1D3F8080803EB421410F4807FD4F85A
:10598000000914BF40F0805040F00050C4F80009F6
:1059900003EB4212D2F8000940F00440C2F80009BB
:1059A000D3F83408012202FA01F10143C3F8341894
:1059B00070BD19B9402E84BF4020206020682E8A17
:1059C0008419013CB4FBF6F440EAC44040F00050B6
:1059D0001A44C6E7F8B504461E48C56E05EB4413E5
:1059E000D3F80869C3F80869F10717D5D5F8103856
:1059F000DA0713D500EB8403D9684B691F68DA68AE
:105A0000974218D2D21B00271A605F60202383F3CD
:105A100011882146FFF798FF87F31188330617D5C1
:105A2000D5F834280123A340134211D02046BDE805
:105A3000F840FFF723BD012303FA04F2038923EAA8
:105A4000020303818B68002BE8D021469847E5E7E5
:105A5000F8BD00BFA83E00202DE9F74FA34CE66E2D
:105A60007569B3691D4015F48058756107D02046EB
:105A7000FEF7EAFC03B0BDE8F04FFDF7CFBF002D05
:105A800012DAD6F8003E99489F071EBFD6F8003EAE
:105A900023F00303C6F8003ED6F8043823F00103D0
:105AA000C6F80438FEF7FAFC280505D58F48FFF73D
:105AB000B9FC8E48FEF7E2FCA9040CD5D6F80838EC
:105AC00013F0060FF36823F470530CBF43F4105324
:105AD00043F4A053F3602A0704D56368DB680BB175
