:020000040800F2
:1000000000060020A5050008951F00084D1F0008E8
:10001000751F00084D1F00086D1F0008A705000888
:10002000A7050008A7050008A7050008B574000883
:10003000A7050008A7050008A7050008A7050008F0
:10004000A7050008A7050008A7050008A7050008E0
:10005000A7050008A70500084D830008798300085C
:10006000A5830008D1830008FD830008A7050008C8
:10007000A7050008A7050008A7050008A7050008B0
:10008000A7050008A7050008A7050008A7050008A0
:10009000A7050008A7050008A7050008298400088F
:1000A000A7050008A7050008A7050008A705000880
:1000B000A7050008A7050008A7050008A705000870
:1000C000A7050008A7050008A7050008A705000860
:1000D000A7050008A7050008018500081585000888
:1000E0008D840008A7050008A7050008A7050008DB
:1000F000A7050008A7050008A7050008A705000830
:10010000A7050008954600083D850008A7050008DA
:10011000A7050008A7050008A7050008A70500080F
:10012000A7050008A7050008A7050008A7050008FF
:10013000A7050008A7050008A7050008A7050008EF
:10014000A7050008A7050008A7050008A7050008DF
:10015000A7050008A7050008A7050008A7050008CF
:10016000A7050008A7050008A7050008A7050008BF
:10017000A705000821800008A7050008A7050008BA
:10018000A7050008A705000829850008A70500089D
:10019000A7050008A7050008A7050008A70500088F
:1001A000A7050008A7050008A7050008A70500087F
:1001B000A7050008A7050008A7050008A70500086F
:1001C000A7050008A7050008A7050008A70500085F
:1001D000A70500080D800008A7050008A70500086E
:1001E000A7050008A7050008A7050008A70500083F
:1001F000A7050008A7050008A7050008A70500082F
:10020000A7050008A7050008A7050008A70500081E
:10021000A7050008A7050008A7050008A70500080E
:10022000A7050008A7050008A7050008A7050008FE
:10023000A7050008A7050008A7050008A7050008EE
:10024000A7050008A7050008A7050008A7050008DE
:10025000A7050008A7050008A7050008A7050008CE
:10026000A7050008A7050008A7050008A7050008BE
:10027000A7050008A7050008A7050008A7050008AE
:10028000A7050008A7050008A7050008A70500089E
:10029000A7050008A7050008A7050008A70500088E
:1002A00053B94AB9002908BF00281CBF4FF0FF31DD
:1002B0004FF0FF3000F074B9ADF1080C6DE904CED9
:1002C00000F006F8DDF804E0DDE9022304B0704731
:1002D0002DE9F047089D04468E46002B4DD18A42F9
:1002E000944669D9B2FA82F252B101FA02F3C2F12C
:1002F000200120FA01F10CFA02FC41EA030E9440BD
:100300004FEA1C48210CBEFBF8F61FFA8CF708FBDD
:1003100016E341EA034306FB07F199420AD91CEBB5
:10032000030306F1FF3080F01F81994240F21C81E7
:10033000023E63445B1AA4B2B3FBF8F008FB10332F
:1003400044EA034400FB07F7A7420AD91CEB040464
:1003500000F1FF3380F00A81A74240F20781644434
:10036000023840EA0640E41B00261DB1D4400023B9
:10037000C5E900433146BDE8F0878B4209D9002D1D
:1003800000F0EF800026C5E9000130463146BDE8A7
:10039000F087B3FA83F6002E4AD18B4202D3824211
:1003A00000F2F980841A61EB030301209E46002DC0
:1003B000E0D0C5E9004EDDE702B9FFDEB2FA82F215
:1003C000002A40F09280A1EB0C014FEA1C471FFA73
:1003D0008CFE0126200CB1FBF7F307FB131140EA5A
:1003E00001410EFB03F0884208D91CEB010103F127
:1003F000FF3802D2884200F2CB804346091AA4B2E9
:10040000B1FBF7F007FB101144EA01440EFB00FEBC
:10041000A64508D91CEB040400F1FF3102D2A64521
:1004200000F2BB800846A4EB0E0440EA03409CE7C0
:10043000C6F12007B34022FA07FC4CEA030C20FA6D
:1004400007F401FA06F31C43F9404FEA1C4900FA8D
:1004500006F3B1FBF9F8200C1FFA8CFE09FB18110A
:1004600040EA014108FB0EF0884202FA06F20BD97D
:100470001CEB010108F1FF3A80F08880884240F2CD
:100480008580A8F102086144091AA4B2B1FBF9F011
:1004900009FB101144EA014100FB0EFE8E4508D90C
:1004A0001CEB010100F1FF346CD28E456AD9023891
:1004B000614440EA0840A0FB0294A1EB0E01A14276
:1004C000C846A64656D353D05DB1B3EB080261EBE4
:1004D0000E0101FA07F722FA06F3F1401F43C5E9BE
:1004E000007100263146BDE8F087C2F12003D840F4
:1004F0000CFA02FC21FA03F3914001434FEA1C4736
:100500001FFA8CFEB3FBF7F007FB10360B0C43EA27
:10051000064300FB0EF69E4204FA02F408D91CEBD7
:10052000030300F1FF382FD29E422DD902386344D5
:100530009B1B89B2B3FBF7F607FB163341EA034175
:1005400006FB0EF38B4208D91CEB010106F1FF38C4
:1005500016D28B4214D9023E6144C91A46EA0046BB
:1005600038E72E46284605E70646E3E61846F8E64D
:100570004B45A9D2B9EB020864EB0C0E0138A3E796
:100580004646EAE7204694E74046D1E7D0467BE777
:10059000023B614432E7304609E76444023842E7EF
:1005A000704700BF02E000F000F8FEE73B488047DC
:1005B00072B63B4880F308883A4880F309883A4885
:1005C0004EF60851CEF20001086040F20000CCF275
:1005D00000004EF63471CEF200010860BFF34F8F79
:1005E000BFF36F8F40F20000C0F2F0004EF688516A
:1005F000CEF200010860BFF34F8FBFF36F8F4FF053
:100600000000E1EE100A4EF63C71CEF200010860E7
:10061000062080F31488BFF36F8F07F009F806F007
:10062000ABFF06F03BF94FF0553020491C4A914290
:100630003CBF41F8040BFAE71D491A4A91423CBFFE
:1006400041F8040BFAE71B491B4A1C4B9A423EBF78
:1006500051F8040B42F8040BF8E700201849194A36
:1006600091423CBF41F8040BFAE706F0C3FF06F0E5
:1006700099F9154C154DAC4203DA54F8041B884720
:10068000F9E700F043F8124C124DAC4203DA54F88B
:10069000041B8847F9E706F0ABBF0000991F00086C
:1006A00000060020002200200000000800000020BA
:1006B000000600204096000800220020D8220020DA
:1006C000D822002064680020A0020008A0020008D0
:1006D000A0020008A00200082DE9F04F2DED108ABD
:1006E000C1F80CD0D0F80CD0BDEC108ABDE8F08F6A
:1006F000002383F311882846A047002005F032FF2D
:10070000FEE705F07FFE00DFFEE7000038B506F0EB
:10071000D3FD054606F0B8FE044620BB144B9D42AF
:1007200023D001339D4241F2883504BF01240025C6
:1007300001F066FC20B10025032000F06BF82C4688
:10074000002006F0C3FD0CB100F07AF801F038FB90
:1007500001F0F0F900F032FD08B100F071F8284620
:1007600000F028F9F9E70025E2E70546E0E700BFD9
:10077000010007B008B501F0A9F9A0F12003584223
:10078000584108BD07B541F21203022101A8ADF896
:10079000043001F0B9F903B05DF804FB38B520234B
:1007A00083F311881748C3680BB105F079FF002364
:1007B000154A4FF47A71134805F036FF002383F38E
:1007C0001188124C236813B12368013B23606368CE
:1007D00013B16368013B63600D4D2B7833B96368D7
:1007E0007BB9022001F066FA322363602B78032B79
:1007F00007D163682BB9022001F05CFA4FF47A73D9
:10080000636038BDD82200209D070008F423002033
:10081000EC220020084B187003280CD8DFE800F009
:1008200008050208022001F03BBA022001F02EBAAE
:10083000024B00225A607047EC220020F423002073
:10084000F8B501F0DDFB30B1524B03221A700022E3
:10085000514B5A60F8BD514B514A1C461968013141
:10086000F8D004339342F9D162684E4B9A42F1D9E1
:100870004D4B9B6803F1006303F500339A42E9D2C4
:10088000002001F071F90220FFF7C4FF474B00215F
:10089000D3F8E820C3F8E810D3F81021C3F81011FA
:1008A000D3F81021D3F8EC20C3F8EC10D3F81421BE
:1008B000C3F81411D3F81421D3F8F020C3F8F010C2
:1008C000D3F81821C3F81811D3F81821D3F88020D1
:1008D00042F00062C3F88020D3F8802022F000624A
:1008E000C3F88020D3F88020D3F8802042F0007233
:1008F000C3F88020D3F8802022F00072C3F8802053
:10090000D3F8803072B64FF0E023C3F8084DD4E935
:100910000004BFF34F8FBFF36F8F254AC2F88410D6
:10092000BFF34F8F536923F480335361BFF34F8F6D
:10093000D2F8803043F6E076C3F3C905C3F34E33F3
:100940005B0103EA060C29464CEA81770139C2F8BB
:100950007472F9D2203B13F1200FF2D1BFF34F8F05
:10096000BFF36F8FBFF34F8FBFF36F8F536923F4C4
:10097000003353610023C2F85032BFF34F8FBFF3EF
:100980006F8F202383F31188854680F308882047E2
:1009900060E700BFEC220020F423002000000208E2
:1009A00020000208FFFF0108002200200044025836
:1009B00000ED00E02DE9F04F93B0B44B2022FF2171
:1009C00000900AA89D6801F0A5F9B14A1378A3B96F
:1009D0000121B0481170C360202383F31188C368DC
:1009E0000BB105F05DFE0023AB4A4FF47A71A948C4
:1009F00005F01AFE002383F31188009B13B1A74B67
:100A0000009A1A60A64A1378032B03D000231370B0
:100A1000A24A53604FF0000A009CD3465646D14686
:100A2000012001F03DF924B19C4B1B68002B00F024
:100A30002682002001F04AF80390039B002BF2DB92
:100A4000012001F023F9039B213B1F2BE8D801A2D1
:100A500052F823F0D50A0008FD0A0008910B00089F
:100A6000210A0008210A0008210A0008230C0008B6
:100A7000F30D00080D0D00086F0D0008970D00081C
:100A8000BD0D0008210A0008CF0D0008210A00084A
:100A9000410E0008750B0008210A0008850E0008A9
:100AA000E10A0008750B0008210A00086F0D000814
:100AB000210A0008210A0008210A0008210A00086A
:100AC000210A0008210A0008210A0008210A00085A
:100AD000910B00080220FFF74DFE002840F0F9813D
:100AE000009B022105A8BAF1000F08BF1C4641F285
:100AF0001233ADF8143001F007F891E74FF47A7033
:100B000000F0E4FF071EEBDB0220FFF733FE0028B6
:100B1000E6D0013F052F00F2DE81DFE807F0030A8F
:100B20000D1013360523042105A8059300F0ECFFF2
:100B300017E004215548F9E704215A48F6E7042153
:100B40005948F3E74FF01C08404608F1040801F04B
:100B50000DF80421059005A800F0D6FFB8F12C0F80
:100B6000F2D101204FF0000900FA07F747EA0B0B1A
:100B70005FFA8BFB01F01AF926B10BF00B030B2B7C
:100B800008BF0024FFF7FEFD4AE704214748CDE7F0
:100B9000002EA5D00BF00B030B2BA1D10220FFF7E9
:100BA000E9FD074600289BD00120002600F0DCFF6D
:100BB0000220FFF72FFE5FFA86F8404600F0E4FFC0
:100BC0000446B0B1039940460136A1F140025142BA
:100BD000514100F0E9FF0028EDD1BA46044641F248
:100BE0001213022105A83E46ADF8143000F08CFF28
:100BF00016E725460120FFF70DFE244B9B68AB420C
:100C000007D9284600F0B2FF013040F06781043573
:100C1000F3E70025224BBA463E461D701F4B5D6030
:100C2000A8E7002E3FF45CAF0BF00B030B2B7FF417
:100C300057AF0220FFF7EEFD322000F047FFB0F182
:100C40000008FFF64DAF18F003077FF449AF0F4AD5
:100C500008EB0503926893423FF642AFB8F5807FF8
:100C60003FF73EAF124BB845019323DD4FF47A7046
:100C700000F02CFF0390039A002AFFF631AF039A8D
:100C80000137019B03F8012BEDE700BF0022002094
:100C9000F0230020D82200209D070008F423002024
:100CA000EC22002004220020082200200C22002038
:100CB000F0220020C820FFF75DFD074600283FF422
:100CC0000FAF1F2D11D8C5F120020AAB25F003008C
:100CD00084494245184428BF4246019200F0F4FF7F
:100CE000019AFF217F4801F015F84FEAA803C8F3E5
:100CF00087027C492846019301F014F80646002833
:100D00003FF46DAF019B05EB830533E70220FFF74E
:100D100031FD00283FF4E4AE00F064FF00283FF40A
:100D2000DFAE0027B846704B9B68BB4218D91F2F17
:100D300011D80A9B01330ED027F0030312AA1344E3
:100D400053F8203C05934046042205A9043701F0DE
:100D500041F98046E7E7384600F008FF0590F2E7E2
:100D6000CDF81480042105A800F0CEFE02E7002390
:100D7000642104A8049300F0BDFE00287FF4B0AE07
:100D80000220FFF7F7FC00283FF4AAAE049800F019
:100D90001FFF0590E6E70023642104A8049300F0F8
:100DA000A9FE00287FF49CAE0220FFF7E3FC002898
:100DB0003FF496AE049800F00DFFEAE70220FFF73B
:100DC000D9FC00283FF48CAE00F01CFFE1E70220C4
:100DD000FFF7D0FC00283FF483AE05A9142000F0F3
:100DE00017FF07460421049004A800F08DFE394641
:100DF000B9E7322000F06AFE071EFFF671AEBB07AE
:100E00007FF46EAE384A07EB0903926893423FF6CF
:100E100067AE0220FFF7AEFC00283FF461AE27F07A
:100E200003074F44B9453FF4A5AE484609F104090C
:100E300000F09CFE0421059005A800F065FEF1E796
:100E40004FF47A70FFF796FC00283FF449AE00F0AB
:100E5000C9FE002844D00A9B01330BD008220AA9FE
:100E6000002000F05FFF00283AD02022FF210AA8CE
:100E700000F050FFFFF786FC1C4805F079FB13B02B
:100E8000BDE8F08F002E3FF42BAE0BF00B030B2BC5
:100E90007FF426AE0023642105A8059300F02AFE06
:100EA000074600287FF41CAE0220FFF763FC804653
:100EB00000283FF415AEFFF765FC41F2883005F0DD
:100EC00057FB059800F0BAFF46463C4600F06EFF1F
:100ED000A6E506464EE64FF0000901E6BA467EE674
:100EE00037467CE6F022002000220020A086010088
:100EF0007047000070470000704700002DE9F04186
:100F000000F58037044616463B7C5BB9C06810305C
:100F1000204400F0D9FEE5683544B5F5004FE560A2
:100F200002D816B1BDE8F081DEB905F07F0605F103
:100F300010000021C6F180062044F6B232462E444D
:100F400000F0E8FEA06804F11008324600F10060ED
:100F5000414600F5003005F067FF30B901233B74CE
:100F6000E0E74FF400463546ECE7A26805F11001D2
:100F7000404632442144A260E268521BE26000F025
:100F8000A3FE0220BDE8F04100F094BE183000F04E
:100F9000E9BC000010B5044607F0E0FD204610BD96
:100FA00010B5044607F0DAFD204610BDC3B280B28A
:100FB000A3F14102052A02D8373800B27047613BDD
:100FC000052B94BF57383038F7E70000F8B50446D2
:100FD0001546084603220C4900F080FE014688B9F8
:100FE00008346F1C15F91100FFF7E0FF064617F9EA
:100FF00011000131FFF7DAFF102940EA061004F86A
:10100000010BEFD1F8BD00BFFC8C00082DE9F04FBB
:10101000ADF53F7D0746416801222AA802F0DCFEBB
:10102000002840F087800646824681461125DFF879
:101030000C81DFF80CB101AB4FF4805241462AA875
:1010400003F026F8002875D1019AB2F5805F71D8B7
:10105000002A65D00446019A9442ECD2282D0FD084
:1010600008DC132D2DD01E2D39D0112D13D00134B5
:10107000A4B2F0E7322D2DD0372D2FD02D2DF6D163
:101080003B68121B08EB040138461B692D25984765
:10109000BDF80440EBE7121B022A09D9594608EBB8
:1010A000040000F01BFE18B902342825A4B2DEE7C4
:1010B00018F804303A2B3DD00A2B1CBFA14613254B
:1010C000D5E718F804300A2B34D03A2B04BFA246D7
:1010D0003225CCE718F80430202BC8D0264618F863
:1010E00004300A2B1AD1AAEB090208EB090102A865
:1010F00011254F2A28BF4F2207F0ECFDA21B08EB59
:10110000060116A84F2A28BF4F2207F0E3FD3B68CF
:1011100016AA02A9DB6838469847A8E71E25A6E765
:101120003B68384604491B69984701200DF53F7D0F
:10113000BDE8F08F0020F9E7F88D0008FC230020BF
:10114000008D000800F1180110B5044686B008466D
:10115000019100F0F1FB2046FFF758FF60B10199C3
:1011600002A800F049FC102204F1080102A807F0CF
:1011700019FDB0FA80F0400906B010BD70B5044604
:101180000025EEB2304600F0FFFC58B10021304699
:10119000013500F009FD08B9002070BD022000F003
:1011A00089FDEEE72046FFF731FF0028F4D004F573
:1011B0008034207C80F00100EFE70000F0B5C9B07A
:1011C00006F092F800F074FE18B90025284649B0E0
:1011D000F0BD69462A4803F01DF800284BD1294C80
:1011E000204603F047F8284803F044F8274803F066
:1011F00041F82146224803F0B9F80028E5D17020D3
:1012000007F0AEFC064610B1214B44600360336822
:1012100030469B689847054600282ED01A4F19483B
:10122000394603F0A3F805460028CED1194807F047
:1012300097FC044638B1184B4760036000F58033D3
:10124000C0E902551D74236820469B6898470546EF
:1012500028B10E490C4803F089F80028B5D133684D
:1012600030465B6898471CB1236820465B68984706
:1012700000F006FEAAE70025FAE70446EFE700BF04
:10128000048D0008148D00082B8D0008418D000886
:10129000648D000814000100808D00082DE9F04FD6
:1012A000D44A8DB00B68D0F804A001931A440368A7
:1012B000D14E1A44D1F81C90DFF8B4C3DFF8B4B3B0
:1012C000D0E90234634003EA0A03634013444A68E6
:1012D00002920AEB7363029CC84A2244C468224407
:1012E00084688AEA04051D40654015448A680392B3
:1012F00003EB3555039CC24A2244846822448AEA9F
:1013000003042C4084EA0A041444CA6805EBF4344C
:101310000492164483EA0502224056445A4032445D
:101320000E69059604EBB222059FB64E3E441E445C
:1013300085EA040313406B4033444E69069602EB82
:101340007363069FB04E3E442E4484EA02051D405E
:10135000654035448E69079603EB3555079FAB4EC4
:101360003E44264482EA03042C4054403444A84EB0
:101370004E4405EBF434164483EA050222405A40F9
:1013800032440E6A089604EBB222089FA14E3E44F6
:101390001E4485EA040313406B4033444E6A0996A9
:1013A00002EB7363099F9C4ED1F830E03E44D1F8C4
:1013B0003880F3442E4484EA02051D4065403544DC
:1013C0008E6AA6F5244703EB35550A964F3F27440E
:1013D00082EA03042C4054403C44CF6A0B9705EB4F
:1013E000F4340B9E8D4F3744029E174483EA050266
:1013F00022405A403A448A4F774404EBB2221F44B9
:1014000085EA040313406B403B444F6BBC4402EB42
:101410007363654484EA020C0CEA030C8CEA040C46
:101420006544DFF854C2C44403EB3555A44482EA52
:1014300003042C4054406444D1F83CC0794905EB86
:10144000F4346144114483EA050222405A400A44BC
:10145000754904EBB2223144079E194484EA020321
:101460002B4063400B44714902EBF36331440B9E04
:101470000D4482EA03012140514029446C4D03EBA5
:10148000F1513544019E254483EA010414405C4037
:101490002C44684D01EBB4443544069E154481EA62
:1014A00004021A404A402A44634D04EB3232354468
:1014B0000A9E1D4484EA02030B4063402B445F4DA7
:1014C00002EBF3633544059E0D4482EA030121409B
:1014D000514029445A4D03EBF1516544254483EAB8
:1014E000010414405C402C44564D01EBB444354497
:1014F000099E154481EA04021A404A402A44524D8A
:1015000004EB32323544049E1D4484EA02030B404E
:1015100063402B444D4D02EBF36345440D4482EA96
:101520000301214051402944494D03EBF151354419
:10153000089E2C4483EA010515405D402C44454D2E
:1015400001EBB4443544039E2A4481EA04051D405E
:101550004D402A44404D04EB32323D442B4484EA52
:10156000020593440D4065402B443C4D02EBF36370
:101570003544069E294482EA030525405540294406
:10158000374D03EBF1514D442C4483EA01051540DE
:101590005D40254401EBB54581EA050404EA0302F8
:1015A0004A405A44A6F5B82B089E05EB3232ABF2FE
:1015B000BE6B54405B4423442A4C344402EB3373E7
:1015C0000B9E0C4485EA020159402144264C3444C8
:1015D00003EB7151029E254482EA03044C402544EA
:1015E000224C444401EB3545144483EA01026A402D
:1015F000224443E078A46AD7EECEBDC156B7C7E80F
:10160000DB702024AF0F7CF52AC68747134630A82D
:10161000019546FDD8988069AFF7448BBED75C89A9
:101620002211906B2108B44962251EF640B340C0D8
:10163000515A5E26AAC7B6E95D102FD6531444024C
:1016400081E6A1D8C8FBD3E7E6CDE121D60737C3B1
:10165000870DD5F4ED145A4505E9E3A9F8A3EFFC8D
:10166000D9026F6781F6718722619D6D0C38E5FDA7
:10167000937198FD8A4C2A8D8E4379A6934C3444FD
:1016800005EB7222059E1C4481EA05035340234466
:101690008F4C344402EB33730A9E0C4485EA0201FA
:1016A000594021448B4C4C4403EB7151254482EA50
:1016B00003044C402C44884D354401EB3444019ED6
:1016C000154483EA010262402A44844D3D4404EB00
:1016D00072221D4481EA040353402B44804D35445B
:1016E00002EB3373049E294484EA02055D402944D9
:1016F0007C4D354403EB7151079E254482EA030477
:101700004C402C44784D354401EB3444099E2A4426
:1017100083EA010565401544744A324404EB75259B
:10172000039E134481EA04026A401A44704B7344D6
:1017300005EB32720B4484EA0501514019446D4BAC
:10174000634402EB71511C4485EA02034B401C4484
:10175000694B334401EB3444019E1D4482EA01038A
:1017600063402B44654D04EB73233544069E1544BA
:1017700063EA010262402A44614D03EBB2624D44C8
:1017800062EA040929445F4D89EA03094544494452
:101790002C445D4D02EBB1513544049E61EA0308CF
:1017A0001D4488EA0208444401EB744464EA0203DD
:1017B0004B402B44554D04EBF323754463EA010E73
:1017C00015448EEA040E0EEB0502514D03EBB26296
:1017D000354462EA040E29440A9D8EEA030EA5F5FB
:1017E00080164C4D7144A6F6833602EBB151264467
:1017F00061EA030454403444029E01EB74443544CE
:1018000064EA02061D444E407319089E424D04EBE3
:10181000F323354463EA01061544664072193F4DCF
:1018200003EBB262654462EA040629443C4D5E4023
:101830003144079E02EBB151354461EA03062C4462
:10184000384D56403D443444059E1D4401EB7444DC
:1018500064EA02034B402B44334D04EBF32335443D
:101860000B9E154463EA010262402A442F4D03EBAC
:10187000B2623544039E0D4462EA04015940294492
:101880002B4D02EBB15135442A4E254461EA030445
:1018900054402C44099D01EB74442E4464EA020533
:1018A0001E4485EA01039D1903681A440AEB0403E8
:1018B00003EBF5230260436083681C44C36819444A
:1018C0008460C1600DB0BDE8F08F00BF44EABEA4E3
:1018D000A9CFDE4B604BBBF670BCBFBEC67E9B285B
:1018E000FA27A1EA8530EFD4051D880439D0D4D970
:1018F000E599DBE6F87CA21F6556ACC4442229F4C6
:1019000097FF2A43A72394AB39A093FCC3595B6587
:1019100092CC0C8FD15D84854F7EA86FE0E62CFEC3
:10192000144301A3A111084E827E53F735F23ABD4C
:10193000BBD2D72A91D386EB094B036003F18833DE
:10194000436003F12943A3F59613A3F68B638360E9
:10195000A3F18833C3600023C0E90433704700BF9C
:10196000012345672DE9F8431446026905460E46F2
:10197000E300C2F3C50800F118079B18036122BFFA
:1019800043690133436112F4FC7F436903EB5473F1
:10199000436114D0C8F1400907EB08004C4504D25C
:1019A0002246BDE8F84307F02FB9403C4A464E4472
:1019B00007F02AF9444439462846FFF76FFCA04651
:1019C00006EB0409B8F13F0FA9EB08010AD9402240
:1019D000384607F019F939462846A8F14008FFF7BC
:1019E0005DFCEFE7A1096FF03F02384602FB0142C0
:1019F00006EB8111D5E7000070B50B6901F1180500
:101A000006460C46C3F3C503EA18501C8022EA546C
:101A1000C3F13F02072A1FD8002100F07BF92946B5
:101A20002046FFF73BFC38220021284600F072F9DF
:101A3000236929462046236563696365FFF72EFC09
:101A400021461022304607F0DFF8204658220021B8
:101A5000BDE8704000F05EB9C3F137020021E5E750
:101A60002DE9F84F4FF47A7306460D46002402FB29
:101A700003F7DFF85080DFF8509098F900305FFAF4
:101A800084FA5A1C01D0A34210D159F824002A46E6
:101A900031460368D3F820B03B46D847854205D18C
:101AA000074B012083F800A0BDE8F88F0134042C17
:101AB000E3D14FF4FA7004F05BFD0020F4E700BFBF
:101AC000403400201022002014220020002307B5FB
:101AD000024601210DF107008DF80730FFF7C0FF26
:101AE00020B19DF8070003B05DF804FB4FF0FF3014
:101AF000F9E700000A46042108B5FFF7B1FF80F0BE
:101B00000100C0B2404208BD074B0A4630B4197804
:101B1000064B53F82140014623682046DD69044BFB
:101B2000AC4630BC604700BF403400201422002087
:101B3000A086010070B50A4E00240A4D05F012F986
:101B4000308028683388834208D905F007F92B686C
:101B500004440133B4F5003F2B60F2D370BD00BFE5
:101B600042340020FC33002005F0DAB900F10060B7
:101B700000F500300068704700F10060920000F549
:101B8000003005F051B90000054B1A68054B1B8861
:101B90009B1A834202D9104405F0E0B80020704738
:101BA000FC3300204234002038B50446074D29B1EB
:101BB00028682044BDE8384005F0E8B8286820448B
:101BC00005F0D2F80028F3D038BD00BFFC33002068
:101BD0000020704700F1FF5000F58F10D0F800088A
:101BE00070470000064991F8243033B100230822E1
:101BF000086A81F82430FFF7BFBF0120704700BF9B
:101C000000340020014B1868704700BF0010005CD2
:101C10001B4B0246F0B518681A4BC0F30B06000CBC
:101C20001F885C68BE4293F9085003D09F89BE426A
:101C300003D10C335C6893F908500426124B1F88BB
:101C40000433874208BF13F9025C013EF7D1013A21
:101C5000013C0B460A44934207D214F9016F581C09
:101C60002EB1034600F8016CF5E7184605E02C2478
:101C700082421C7001D9981C5D70401AF0BD00BFF3
:101C80000010005C24220020B08D0008022803D13F
:101C9000024B4FF080529A61704700BF001002580B
:101CA000022803D1024B4FF480529A61704700BF63
:101CB00000100258022804D1024A536983F4805369
:101CC0005361704700100258002310B5934203D0AF
:101CD000CC5CC4540133F9E710BD0000013810B5E5
:101CE00010F9013F3BB191F900409C4203D11AB178
:101CF0000131013AF4E71AB191F90020981A10BDA8
:101D00001046FCE703460246D01A12F9011B0029CF
:101D1000FAD1704702440346934202D003F8011BF4
:101D2000FAE770472DE9F8431F4D144607468846E9
:101D300095F8242052BBDFF870909CB395F82430BE
:101D40002BB92022FF2148462F62FFF7E3FF95F8C9
:101D500024004146C0F1080205EB8000A24228BFE2
:101D60002246D6B29200FFF7AFFF95F82430A41BAD
:101D700017441E449044E4B2F6B2082E85F824605D
:101D8000DBD1FFF72FFF0028D7D108E02B6A03EB48
:101D900082038342CFD0FFF725FF0028CBD100205C
:101DA000BDE8F8830120FBE700340020024B1A78DD
:101DB000024B1A70704700BF4034002010220020F0
:101DC000F8B5184C184803F037FD2146164803F0C3
:101DD0005FFD24681548D4F89020154ED2F80438D9
:101DE000144D43F00203104FC2F8043804F0C0FB56
:101DF0002046114903F05AFED4F890200424D2F86A
:101E0000043823F00203C2F804384FF4E13333609E
:101E100055F8040BB84202D0314603F06BFC013C8C
:101E2000F6D1F8BDCC940008504A002040420F0083
:101E30002834002014220020D49400080C4B70B5E4
:101E40000C4D04461E780C4B55F826209A420DD0B6
:101E50000A4B002118221846FFF75CFF0460014678
:101E600055F82600BDE8704003F044BC70BD00BFCB
:101E70004034002014220020504A00202834002042
:101E800010B5084C01220849002001F081FF237899
:101E90003BB1064803F0AAFB044803F0DDFB002336
:101EA000237010BD44340020C08D0008A0360020EF
:101EB0001E482DE9F041D0F8503233B901224FF4D9
:101EC000805100F5147005F051FA194E33780BB1BA
:101ED000FFF7D6FF0324174F4FF00008134D284695
:101EE000144987F8058003F0A9FB284603F0D2F9CE
:101EF00048B1013C284603F0AFFB14F0FF04EED1DB
:101F0000204634700FE00C4901220C4801F040FFDC
:101F1000014618B1284603F069FBEAE7084800F0DB
:101F200011F801203070BDE8F08100BFA03600201C
:101F3000443400203C220020C08D0008483400209A
:101F4000C48D00080FB4002004B0704700B59BB0EA
:101F5000EFF3098168226846FFF7B6FEEFF30583C9
:101F6000014B9B6BFEE700BF00ED00E008B5FFF7FB
:101F7000EDFF000000B59BB0EFF3098168226846D1
:101F8000FFF7A2FEEFF30583014B5B6BFEE700BF9B
:101F900000ED00E0FEE7000000B595B0132101A8B8
:101FA00005F082FA9DF84F307BB10023132101A880
:101FB0008DF84F3005F072FA054BD3F8002882F304
:101FC0000888D3F804389847FEE715B05DF804FB9D
:101FD0000090F01F30B50A44084D91420DD011F821
:101FE000013B5840082340F30004013B2C4013F010
:101FF000FF0384EA5000F6D1EFE730BD2083B8ED4F
:10200000384A73B510686B4651686A4603C30823A3
:102010003549364806F0D6FD044670B9344A6B4659
:10202000106851686A4603C3082332492F4806F0F6
:10203000C9FD044630BB0A2022E00369B3F5F01F56
:10204000ECD8418B42F29C729142E7D12A4A024479
:1020500002F110018B42E1D3103B244900209D1A6C
:10206000FFF7B8FF04F1180106462A460020FFF7E3
:10207000B1FFA3689E42D1D1E3689842CED100203F
:1020800002B070BD0369B3F5F01F22D8B0F8661036
:1020900042F29C7291421ED1174A024402F15C0145
:1020A0008B421AD35C3B114900209D1AFFF792FF27
:1020B00004F1640106462A460020FFF78BFFA26860
:1020C000034696420BD1E068834214BF0D200020E6
:1020D000D6E70B20D4E70C20D2E71020D0E70D2064
:1020E000CEE700BFF08D0008DCFF1D0000000208F5
:1020F000F98D000890FF1D000800FEF7006870478A
:1021000003460068596870470B0A017043700B0C56
:10211000090E8370C1707047110A0270037141701B
:10212000110C120E8170C2701A0A42711A0C1B0E29
:102130008271C37170470000024400F8011B904295
:10214000FBD17047024410B510F8013B11F8014B68
:102150009042A3EB040301D0002BF5D0184610BD2C
:10216000C36A0239023B8B4283BF4389006C01FB87
:102170000300002070470000C2F307238A76CB7665
:102180000378032B01BF120C0A75120A4A757047B7
:1021900000F10B010022D30143EA520310F8012B96
:1021A00052FA83F38842DAB2F5D110467047000044
:1021B00010B5417804460020013102464901022A47
:1021C00016BFA35C032203EBC03302F101021EBF62
:1021D0009BB203EB500398B29142F0D810BD0000BF
:1021E00002684AB1134613F8011B1F290DD93A2979
:1021F000F9D1911C8B4202D04FF0FF30704712781A
:10220000302AF9D1036000207047014B18787047DD
:102210009436002038B50D46044618B9092000232D
:102220002B6038BD0368002BF8D01A78002AF5D04F
:102230008188DA889142F1D1587804F0B3FA10F02D
:102240000100EBD12368EBE738B50D4640F252317F
:10225000144602F073F9FF2806D9012C0AD9030AA3
:10226000687002202B7038BD0028FCD024B1287083
:102270000120F8E70020F6E72046F4E72DE9F843CF
:102280000026D0F8008007460C468E76836B3BB361
:1022900098F80030042B4BD1D8F8108040273546F1
:1022A000334698F8232096421CD3002B40F0BF8081
:1022B000002D00F0BC8000232544AB76637398F8B2
:1022C00004302373DB0630D408F13800FFF718FF21
:1022D000C4E90001B8F80C306381B8F80E302381EE
:1022E000BDE8F883B7F5187F80F0A180FA0606F103
:1022F000010608BF023738F8070002372BB900F58E
:10230000205292B2B2F5006F0DD305F11A01C5F15A
:10231000FF0240EA03402144FFF796FF002800F047
:102320008680054400200346BBE700200146CFE736
:10233000C36C01335DD1FA6B00232E26551E18465F
:1023400015F8011F013020290CD0052908BFE5210F
:10235000092804D10B2B9EBFE71801337E73E718C1
:10236000013379730B28EBD1E11800204873A17E6B
:1023700000294CD1002B41D06FF00C0604F10D0068
:102380000825361B331810F8011B002939D02E29D7
:102390008BB249D0A3F14101192903D8117B0D4219
:1023A00000D020330373EDE7B9F1000F05D100F53C
:1023B00020539BB2B3F5006F0BD305F11A01C5F1A1
:1023C000FF0240EA09402144FFF73EFFA0B1054467
:1023D000002002368146D8F80C30985B0028E3D103
:1023E000B9F1000F4FF0000318BF00252544AB766C
:1023F000A1E7B1463546EEE70546F1E73F23A37670
:102400000123234400219976137B03B96373D37AA4
:1024100002F11C0023730023FFF770FE206063604D
:10242000D38A6381138B5AE710250B46BAE73F2303
:102430000125A3763FE7000038B50546002435F8AE
:10244000020B08B9204638BD02F0ACF86308C2B2EE
:1024500003EBC43312FA83F39AB2C0F3072303EBFE
:10246000520303EBC2339CB2E9E7000001380A448F
:1024700011F8013B914200F8013FF9D1704700008B
:1024800037B5C37804461BB90025284603B030BDD4
:1024900000F14C01826C01234078019104F0A8F90D
:1024A000054680B9A36BE070A06C226BC31A9342FF
:1024B000EAD2A3780199022BE6D102440123607885
:1024C00004F096F9E1E70125DFE7000038B5836CF9
:1024D00005460C468B4210D0FFF7D2FF60B922466A
:1024E000012305F14C01687804F05EF900281CBF57
:1024F0004FF0FF340120AC6438BD0020FCE7000041
:1025000038B500230446C3704FF0FF338364FFF7F0
:10251000DDFF00283FD1B4F84A524AF655239D42C8
:1025200006D10B221E4904F14C00FFF70BFEA0B3AD
:1025300094F84C30EB2B03D01833DBB2012B23D8AB
:102540004AF655239D4206D10822164904F19E0001
:10255000FFF7F8FDF0B1B4F857305A1E1A4213D104
:10256000B3F5007F10D194F8590068B1431E1840AC
:102570000AD194F85C30013B012B05D8B4F85D30EA
:1025800013B1B4F862302BB94AF6552085420CBF1E
:102590000220032038BD0420FCE70120FAE700BF39
:1025A000048E0008108E000802392DE9F04701F072
:1025B00007044FF0010A466C05460AFA04F4174670
:1025C000984606EB1136C1F3C809E4B231462846F5
:1025D0000136FFF77BFF18B10120BDE8F08799466F
:1025E00005EB090292F84C30234214BF012100216F
:1025F000414513D06340013F82F84C3085F803A079
:10260000EBD0640014F0FF04EAD109F101030124C6
:102610004FF00009B3F5007FE1D1D7E70220DCE7F6
:1026200001290246F8B50C4640F28C800668F36A30
:102630008B4240F287803378013B032B00F282808B
:10264000DFE803F00229384B04EB5405B16B304648
:1026500001EB5521FFF73AFF10B14FF0FF30F8BD05
:102660006F1CC5F30805B16B3046354401EB5721AB
:1026700095F84C50FFF72AFF0028EED1C7F3080762
:10268000E3073E4496F84C0045EA00204CBF0009A1
:10269000C0F30B00E3E7B16B304601EB1421FFF709
:1026A00015FF0028D9D1640004F4FF742644B6F85D
:1026B0004C00D4E7B16B304601EBD411FFF706FFB5
:1026C0000028CAD1A40006F14C0004F4FE74204492
:1026D000FFF714FD20F07040C1E7D0E90430D57950
:1026E00053EA000101D0916801B95DBB9168022DE8
:1026F000A4EB01010DD1013B728940F1FF305B0A6F
:1027000043EAC053B3FBF2F399421BD81CD0601CC0
:10271000A5E7032D02D193698B42F8D8D3699BB901
:10272000B16B304601EBD411FFF7D0FE002894D1F5
:10273000A0004C3600F4FE703044FFF7DFFC20F0C0
:1027400000408CE701208AE76FF0004087E7000037
:10275000F8B5066804460D463378042B0CBF4FF0DD
:1027600080524FF400128A4201D80220F8BDCA06F6
:10277000FBD182680163D2B9022B13D83389B3EB42
:10278000551FF2D9F36BA363A36B6263002BECD0EC
:1027900003EB55234C36C5F308050020A3633544ED
:1027A000E563E3E7F36BC271002BE7D01A46778944
:1027B0007F02BD42114604D23046FFF7D1FCA06330
:1027C000E2E72046FFF72CFF431C024606D0012813
:1027D000CBD9F36A8342C8D9ED1BEAE70120C5E7EC
:1027E00001292DE9F04706460C46174608D9C36A69
:1027F0008B4205D90378022B62D003D8012B22D05B
:10280000022552E0033B012BFAD8816B01EBD41176
:10281000FFF75CFE0546002847D1A40006F14C03F3
:1028200004F4FE741C443378042B07D0204627F0B0
:102830007047FFF763FC00F07040074339462046BD
:10284000FFF762FC2FE001EB5108816B01EB58218F
:10285000FFF73CFE054640BB14F0010406F14C09AD
:1028600008F1010AC8F3080808BFFBB230461FBFD1
:1028700019F8083003F00F023B0103F0F00318BF12
:10288000134309F808300123B16BF37001EB5A21AF
:10289000FFF71CFE054640B9CAF3080A44B1C7F366
:1028A000071709F80A700123F3702846BDE8F0877E
:1028B00019F80A30C7F3032723F00F031F43F0E78B
:1028C000816B01EB1421FFF701FE05460028ECD1D6
:1028D000640006F14C0304F4FF741F551919C7F383
:1028E00007274F70DFE70000F8B504460E4617468D
:1028F000E3690BB91846F8BD012BA6EB0305206868
:1029000014BFAA1C3A46691CFFF76AFF0028F2D1DF
:10291000E369013BE361EBE701292DE9F843064652
:102920000C461746056802D80220BDE8F883EB6A1A
:102930008B42F9D97AB9A14621463046A046FFF725
:102940006FFE0446B0B92B78042B02D1002F43D17F
:10295000F7710020E9E72B78042B02D1C379022B11
:10296000E9D04FF0FF3239462846FFF739FF0028FB
:10297000E1D0DAE70128D7D0421C01D10120D4E709
:102980002B78042B19D1EA6AAB69023A93421CD323
:1029900008F10102A2420CD02B78042B08D10023AD
:1029A000A2EB090249462846FFF7FEFD0028BCD1EC
:1029B000A146EB6AA342BFD8C5E70022414628469C
:1029C000FFF70EFF0028DED0AFE70133AB612B79B4
:1029D00043F001032B71DBE7F3798BB9B468BC4298
:1029E00002D10223F371B4E721463046FFF718FE07
:1029F000012899D9431CC1D001348442EFD0A8E703
:102A0000032BA6D1B368BB42A3D8B2691344BB421F
:102A10009FD3E6E770B5C3790446032B06D18168DE
:102A20008369CD18A94203D10023E371002070BD52
:102A30004E1C20683246FFF7D3FE0028F7D13146FE
:102A4000F0E700002DE9F74306460191FFF718FD76
:102A50000446002849D106F14C09019930464FF44B
:102A60000072FFF77DFB2146B06407464846FFF73A
:102A700063FB74896402B4F5006F28BF4FF40064EF
:102A8000B4F5007F2FD9204603F0EAFE804630B12E
:102A900000212246FFF750FB640A0D4609E0640856
:102AA000EEE723467A194146707803F0A1FE18B983
:102AB000254473899D42F4D3404603F0D3FE7089C8
:102AC000401B18BF012003B0BDE8F08301357389B6
:102AD0009D42F4D201237A194946707803F088FEAA
:102AE0000028F3D0EBE70025F1E70120EBE7000039
:102AF000F8B50446FFF7C4FC0546002842D1237808
:102B0000032B37D12779012F34D104F14C065523FB
:102B100001464FF400723046FFF70EFB84F84A324C
:102B2000AA234122722104F50D7084F84B325223FE
:102B300084F84F2084F84C3084F84D30612384F8B9
:102B4000301284F84E3084F8333284F8311284F82D
:102B50003222A169FFF7D8FA616904F50E70FFF718
:102B6000D3FA626B3B46314601326078A26403F0CF
:102B70003FFE257100226078114603F05DFE0038AB
:102B800018BF0120F8BD000000232DE9F0430B60C1
:102B900085B00F461546FFF723FB061EC0F2B28133
:102BA000804B53F82640002C00F0AE813C6005F0CD
:102BB000FE0523786BB1607803F0F4FDC70708D4F5
:102BC0001DB110F0040500D00A25284605B0BDE867
:102BD000F0830023F0B22370607003F0D1FDC107D1
:102BE00000F194810DB14207EED400212046FFF799
:102BF00087FC022840F099806E4604F2122304F20A
:102C00005221324618461033FFF778FA42F8040B87
:102C10008B42F7D1002556F8041B00297DD02046B1
:102C2000FFF76EFC012879D80128A26C40F0C08023
:102C300004F1570304F18C0113F8015B002D7BD1E3
:102C40008B42F9D1B4F8B430B3F5807F74D194F8E5
:102C5000B830092B70D104F19400FFF751FA4FF00E
:102C6000FF33171841F10001BB4275EB010363D339
:102C700004F1A000FFF742FA94F8BA302063012B68
:102C8000A37059D194F8B99003FA09F91FFA89F39E
:102C90006381002B50D0444B04F1A800FFF72EFABB
:102CA0000646984248D8831C626304F1A400E3629C
:102CB000FFF724FA00EB020804F19C00C4F84080FE
:102CC000FFF71CFA10441FFA89F2A06306FB02F317
:102CD00013EB080345EB05029F4271EB02032BD374
:102CE0002E4604F1AC00FFF709FAE06365B9638989
:102CF000B34221D9E16B2046FFF732FA8119204611
:102D0000FFF7E4FB98B90136631993F84C30812B37
:102D100014D02035C5F30805E8E703200135042D5C
:102D20007FF479AF042807D101E0042801D10125FF
:102D30004BE701287FF678AF0D2546E705F1140033
:102D400004F14C063044FFF7D9F901280546F3D9C0
:102D5000E36A8342F0D96189821E236C02FB01334E
:102D60006364A16B204601EBD511FFF7AFFB002890
:102D7000DDD105F07F0006EB8000FFF7BFF9431CB3
:102D800003D00135A842ECD0D6E70425C4E90500FC
:102D9000064A257000251388E56101339BB2138034
:102DA000E38012E798360020FDFFFF7F9C3600206D
:102DB000B4F85730B3F5007FBED1B4F8626026B9DD
:102DC00004F17000FFF79AF9064694F85C30266328
:102DD000591EA3700129AFD894F859506581002D70
:102DE000AAD0691E2942A7D1B4F85D8018F00F0F50
:102DF000A4F80880A0D1B4F85F0018B904F16C0001
:102E0000FFF77CF9B4F85A10002995D006FB03FEB1
:102E100001EB181CF44460458ED3A0EB0C00A842D3
:102E2000B0FBF5F388D33E48834285D84FF6F57062
:102E300083426DD903259F1C114402EB0C03032D23
:102E4000E7626263A16323644CD1B4F8763053EA3D
:102E500008037FF471AFBB0004F17800FFF74EF96F
:102E6000E06303F2FF13B6EB532FFFF465AF4FF0AF
:102E7000FF33032DC4E905334FF08003237187D15D
:102E8000B4F87C30012B83D1511C2046FFF71EFB88
:102E900000287FF47DAFB4F84A224AF6552320710A
:102EA0009A427FF475AF1F4B04F14C00FFF726F9EF
:102EB00098427FF46DAF03F1FF5304F50C70FFF7F8
:102EC0001DF903F50053203398427FF461AF04F5F8
:102ED0000D70FFF713F9A06104F50E70FFF70EF9FE
:102EE000606155E7B8F1000F3FF426AF7144022D41
:102EF0004FEA4703E1631EBFD91907F0010303EB53
:102F00005103AEE70B2560E60C255EE603255CE683
:102F100040F6F575AB428CBF022501258BE700BF5B
:102F2000F5FFFF0F525261412DE9F84F0746056842
:102F3000884649B96E69C6B1EB6AB34298BF0126AB
:102F4000AB69A3B9002405E0FFF76AFB012804463A
:102F500003D801242046BDE8F88F421C00F0D2803F
:102F6000EB6A8342F6D84646EAE70126E8E72A7884
:102F7000EB6A042A40F08380A6F1020A023B4FF07C
:102F8000010B9A4528BF4FF0000AD146696C2846CC
:102F900001EB1931FFF79AFA00283BD109F007033A
:102FA000EA6AC9F3C8010BFA03F3901EDBB26A1890
:102FB0004C4609F1010992F84C20814502EA0302CE
:102FC00033BF5B0000234FF40071DBB228BF99468A
:102FD000B2B90234631E0333BCD80123214628460C
:102FE0001A46FFF7E1FA0228B3D0012800F08A80E0
:102FF000B8F1000F13D10223FB710028A9D130E0F2
:10300000CA450AD0002BD2D10131B1F5007FBDD223
:103010000123CCE74FF0FF34DCE70024DAE7FB794B
:10302000022B07D1731CA342E7D0BB68F31ABB6124
:103030000323FB7108F10102FB69A24205D113B120
:103040000133FB61D9E70223FBE70BB90123FB61E5
:10305000224641463846FFF747FC00284FD101235E
:10306000FB61EA6AAB69023A6C6193429CBF03F16F
:10307000FF33AB612B7943F001032B716AE74645BF
:1030800014D1741C3846A34298BF02242146FFF78E
:10309000C7FA01283FF45DAF431C33D0E0B16B6940
:1030A000012B03D9EA6A934238BF1E4634460134E5
:1030B000EB6AA34203D8012E7FF644AF02242146D7
:1030C0003846FFF7ADFA48B101283FF442AF01306E
:1030D00018D0B442EBD135E7002CE7D04FF0FF32E7
:1030E00021462846FFF77CFB48B9B8F1000FB8D05D
:1030F000224641462846FFF773FB0028B1D001283D
:103100007FF427AF4FF0FF3424E700002DE9F843A8
:1031100006680446076B894633782037042B0CBFBA
:103120004FF080534FF40013BB429CBF00238363D6
:10313000836B73B1C7F30808B8F1000F3CD10133BA
:10314000416B836339B93389B3EB571F34D80023FC
:10315000A36304200AE07389013B13EA57232BD1B0
:10316000FFF75EFA0128054602D80220BDE8F88381
:10317000421C01D10120F9E7F36A834216D8B9F164
:10318000000FE4D0616B2046FFF7CEFE0546C8B1C4
:103190000128EAD0431CEDD001463046FFF752FC2F
:1031A0000028E7D1E37943F00403E3712946304670
:1031B0006563FEF7D5FFA0634C36002027634644C5
:1031C000E663D3E70720D1E72DE9F0410546006823
:1031D000A96B0669FFF77AF9044620B9E96B0B7809
:1031E000852B03D002242046BDE8F0812022304602
:1031F000FFF73CF9777801377F01A7F16003B3F55A
:10320000007FEFD821462846FFF780FF04280446B8
:10321000E8D00028E7D1A96B2868FFF757F90446E2
:103220000028E0D1E96B0B78C02BDBD12022B0184D
:10323000FFF71CF996F823300F222C33B3FBF2F37F
:10324000B7EB431FCED34FF0400800212846FFF7CD
:103250005DFF04280446C5D00028C4D1A96B2868A6
:10326000FFF734F904460028BDD1E96B0B78C12B78
:10327000B8D1B8F5187F04D2202206EB0800FFF77A
:10328000F5F808F120084745DFD8B8F5187FAAD827
:103290003046FEF78DFF73888342A4D0A2E700007A
:1032A0000B68002210B5036004460B6A83604B6A0A
:1032B000C261C37123F0FF03896AC0E90432C164AB
:1032C000FFF746FA20B92046BDE81040FFF77CBF63
:1032D00010BD0000F8B50E46002104460768FFF750
:1032E00037FA98B90546A16B3846FFF7EFF868B989
:1032F0003A78E36B042A1B780CD11B060ED50546E1
:1033000001212046FFF702FF0028ECD0042808BF67
:10331000072006E0E52B01D0002BF0D10135B542A6
:10332000EED1F8BD03682DE9F0411E6905464FF066
:1033300001083046FEF73CFFB070000A7778F07065
:103340002846E96CFFF704FA04462CB1022C28BF8A
:103350000224E0B2BDE8F081A96B2868FFF7B6F857
:1033600004460028F2D120223146E86BFFF77EF8B0
:103370002B6883F80380002FE8D021462846FFF70A
:10338000C5FE20360446013FDFE70000C16C4B1C40
:103390002DE9F04104460568066B1FD1E5274FF083
:1033A0000108A16B2846FFF791F898B92A78E36BDA
:1033B000042A09BF1A781F7002F07F021A7085F87C
:1033C0000380236BB3420DD200212046FFF79EFEFF
:1033D0000028E6D0042808BF022003E0FFF7B8F970
:1033E0000028DBD0BDE8F0812DE9F8434FF0FF085D
:1033F00006460768042445464FF6FF79B16B11B9BC
:10340000002C73D063E03846FFF760F804460028CC
:103410005DD1F06B0378002B6ED03A78042A11D17D
:10342000852B4DD1336B3046F364FFF7CDFE044658
:1034300000284CD13B691B7903F03F03B371204650
:10344000BDE8F883C27AE52B02F03F02B27143D0A7
:103450002E2B41D022F0200108293DD00F2A40D147
:10346000590637D503F0BF05336B90F80D80F36430
:10347000437B434530D1428B72BB03780D21FC68FE
:1034800023F04003DFF874E0013B4B4301211EF8B9
:1034900001CB30F80CC009B3FF2B1DD824F813C0A2
:1034A0006146013301320D2AF1D10278520605D569
:1034B00021B1FF2B10D8002224F81320013DEDB2DA
:1034C00000213046FFF722FE0446002896D0002354
:1034D000B363B4E7AB42CBD0FF25F1E7CC45E1D0F5
:1034E000FAE72DB9FEF754FE404501D10024A6E7C6
:1034F0004FF0FF33F364A2E70424E8E7AC8E000842
:103500002DE9F04F002187B00446D0F80090FFF776
:103510001FF9804670B999F80030042B33D1D9F8DF
:103520000C00FEF789FF07462046FFF75DFF0546C2
:1035300020B18046404607B0BDE8F08FD9F8103082
:103540009A8CBA42F0D193F823B040265D4506D15B
:10355000D9F80C3033F81530002BE5D1EAE7F10645
:10356000D9F8103008BF0236985B01F01BF8D9F883
:103570000C30824633F8150001F014F88245D3D19F
:1035800002360135E2E74FF0FF0A4FF0FF3B5546A8
:10359000C4F84CB0A16B4846FEF798FF00285CD1F8
:1035A000E66B3778002F77D0F27AE52F02F03F03F1
:1035B000A37103D0120704D50F2B04D0C4F84CB06C
:1035C0004FE00F2B54D194F84B3058063FD4790676
:1035D00045D5236B07F0BF0796F80DA0E364737B16
:1035E00053453ED1738B002B3BD135780121D9F85F
:1035F0000C3005F03F0501930D23013D5D43284B41
:1036000013F8012BB25A71B3FF2D059329D8104638
:10361000049200F0C7FF6B1C03900293019B33F8E8
:10362000150000F0BFFF039981421AD1049A029D50
:103630001146059B1B4A9342E2D133785A0604D5C2
:1036400019B1019B33F815305BB97D1EEDB2002135
:103650002046FFF75BFD00289CD080466AE7BD420C
:10366000BDD0FF25F3E74FF6FF708242E2D0F8E7C6
:103670002DB93046FEF78CFD50453FF45BAF94F812
:103680004B30DB079AD40B2204F140013046FEF7A1
:1036900059FD002892D14DE74FF004084AE700BFDA
:1036A000AC8E0008B98E00082DE9F04F90F84B5011
:1036B00099B0044615F0A00540F061810668F268F3
:1036C00032F81530002B4AD13378042B40F0868035
:1036D0000F230E352046B5FBF3F5A91CFFF7FAFDC5
:1036E0008146002876D1236B0135A3EB4515E3799C
:1036F0005A07E56435D523F004032046E371FFF74C
:1037000089F950BB4FF0FF32616B2046FFF7ECF8B0
:1037100018BBA3682BB3214604A8FFF7C1FDE0B98D
:1037200070894FF40071D4E90423E0FB0123306970
:10373000C4E904233830FEF7EFFC3069D4E90423F0
:103740002830FEF7E9FCE379326904A843F001036D
:1037500082F82130FFF7E6FD18B181463AE00135E5
:10376000AEE7D6E903548523002140222046FEF728
:10377000E3FC01222370C0230E464FF0C10C84F8F5
:1037800020308E46402304EB02085F1C04F803C07F
:10379000F0B2023304F807E022B135F811200AB183
:1037A0000131C9B2170AE25408F803700233DF0688
:1037B000F2D135F811700136002FE6D1831C84F860
:1037C000231028466370FEF737FE84F82400000AB1
:1037D00084F82500484619B0BDE8F08F04F1400791
:1037E0000C2204A83946FEF741FE9DF81B30DB078A
:1037F00040F1CF8040234FF0010ADFF8F88184F8D0
:103800004B300B2204A93846D6F80C90FEF72EFE5A
:10381000BAF1050F54D9A9F10201534631F8022F2C
:10382000002A3FD10DF10F00072203F00F0C0CF11D
:103830003001392988BF0CF13701013A00F801192C
:103840004FEA131101D00F2B3CD818AB7E21134443
:1038500003F8581C39460023934205D011F8010B98
:1038600003F1010C20282FD104F13F00072A03F1B6
:10387000010397BF18A920218918013298BF11F8B8
:10388000581C072BC154F1D92046FFF739FE814659
:10389000002877D10AF1010ABAF1640FB1D14FF0D3
:1038A000070997E7102002F0010C52080CEB4303C4
:1038B00013F4803F18BF83EA08030138F3D1ADE762
:1038C0005346AFE70B46B0E76346C5E7216B20469A
:1038D000A1EB4511FEF73CFF814600287FF47AAF4B
:1038E0004FF6FF783846FEF753FC0190A16B304647
:1038F000FEF7ECFD814600287FF46CAFE36BE9B284
:10390000019A4FF00D0CD6F80CE05A734FF00F02ED
:10391000DFF8E4A0DA724A1E18730CFB02F2844648
:103920009876D87640451AF8019B0CF1010C18BF27
:103930003EF8120003EB090B18BF013203F809002F
:103940004FEA1029002808BF4046BCF10D0F8BF844
:103950000190E7D1404502D03EF812200AB941F06B
:1039600040011970012300212046F370FFF7CEFBC0
:10397000814600287FF42EAF013DB7D11EE04FF005
:10398000060927E704287FF425AF9DF81B3084F84B
:103990004B309DF81B3020469B0745BF0C350D2151
:1039A0000125B5FBF1F548BF01352946FFF792FC2B
:1039B000814600287FF40EAF013D87D1A16B3046D0
:1039C000FEF784FD814600287FF404AF01462022E3
:1039D000E06BFEF7B1FB0B223946E06BFEF746FDCC
:1039E00094F84B30E26B03F0180313730123F37068
:1039F000F0E600BF21100100AC8E000810B50446AF
:103A00000A463430FEF77AFB886004F13800FEF78E
:103A100077FBC2E9040194F8213003F00203D3716B
:103A20000023D36110BD000003284B8B04BF8A8A9A
:103A300043EA0243184670472DE9F04F0B7899B0DE
:103A4000044688462F2BD0F800B001D05C2B09D15A
:103A500042461378904601322F2BFAD05C2BF8D0D7
:103A6000002301E0DBF81C30A3600023E3619BF836
:103A70000030042B1ED1A368E3B1DBF820302146CF
:103A800004A82362DBF824306362DBF82830A362E9
:103A9000FFF706FC0346002859D1DBF8102002F19D
:103AA0003800FEF72BFBC4E9040392F8213003F041
:103AB0000203E37198F800301F2B00F2238180236A
:103AC0000021204684F84B3019B0BDE8F04FFEF7D6
:103AD0003FBEFF2E00F038812AF81600013615E1AE
:103AE00042461378904601322F2BFAD05C2BF8D047
:103AF0000025012E30D1BAF800302E2B32D1002310
:103B000004F140022AF816309E428CBF2E2120215B
:103B100001330B2B02F8011BF6D145F0200520469E
:103B200084F84B50FFF7ECFC94F84B30002800F081
:103B3000D08004280BD1990603F0040240F1C5801F
:103B4000002A00F0DF808023002084F84B3019B079
:103B5000BDE8F08F0425CCE7022E03D1BAF802307D
:103B60002E2BC8D0AAF102028EBB00222AF8162002
:103B7000002E00F0E9803AF8121013460132202995
:103B8000F9D00BB92E2901D145F00305AAF10201A4
:103B900031F816202E2A01D0013EF9D14FF000094C
:103BA0000B22202104F14000FEF7C6FA4F460822FE
:103BB000591C3AF813000191F0B1202803D02E28A7
:103BC0000DD1B14210D045F00305019BF0E732F86A
:103BD0001630202B01D02E2BC7D1013EC4E79145D2
:103BE00005D2019BB34235D10B2A2CD101E00B2A1F
:103BF00023D145F003050B2294F84030E52B04BF98
:103C0000052384F84030082A04BFBF00FFB207F044
:103C10000C030C2B03D007F00303032B01D145F059
:103C20000205AB073FF57BAFFE0748BF45F0100527
:103C3000780748BF45F0080571E7019BB34202D001
:103C400045F00305D8D8BF000B224FF008090196B4
:103C5000FFB2BAE77F2812D945F0020340F2523191
:103C60000392029300F06AFC10F0800FDDE902324B
:103C700010D000F07F004349085C1D4630B1424936
:103C800011F8013B002B6DD08342F9D145F00305BB
:103C90005F2010E0FF28F0D9511E894503D345F07D
:103CA0000305914691E704EB0901050A09F10109B1
:103CB00081F840501D4604EB090309F1010983F81E
:103CC000400082E747F00207F5E7002A08BF052019
:103CD0003DE75A073FF53BAFA379DB0640D59BF89C
:103CE0000000042832D1A3682146E27923622369C7
:103CF000DBF8100023F0FF0313436362E36CA3625D
:103D0000FFF77CFE23680026D3F80CA018F8010BFF
:103D100000283FF41FAF40F2523100F02FFC98B161
:103D20001F287FF617AF2F283FF4DAAE5C283FF448
:103D3000D7AE7F283FF6CDAE144A12F8013B002BD8
:103D40003FF4C7AE8342F8D1062000E7216B0BF1A8
:103D50004C03C1F308011944FFF766FEA060D1E7E8
:103D60000520F4E6A0F141039BB2192BAAD9A0F1DA
:103D700061039BB2192B9EBF203847F0010780B228
:103D800099E700BF2C8E0008258E00081C8E0008C5
:103D90001FB5CDE9001003A814460391FEF720FAE1
:103DA000002815DB0B4A52F820300BB100211970A6
:103DB000019B0BB10021197042F820302CB1002278
:103DC00001A96846FEF7E0FE0446204604B010BD97
:103DD0000B24FAE7983600202DE9F04798B090467A
:103DE00005460191002800F04F8102F03F0603A92B
:103DF00001A83246FEF7C8FE002840F04381039B2D
:103E00004FF48C60049302F02BFD0746002800F06D
:103E10003D81039B00F500720199D86004A81A61E6
:103E2000FFF70AFE044620B99DF95B30002BB8BFAE
:103E3000062418F01C0F00F0C980002C4BD0042C75
:103E40003FD104A8FFF730FC0446002839D146F0E2
:103E50000806039B1A78042A7FD1186929462B602B
:103E6000FFF7CCFD039B00211E2218690230FEF7EC
:103E700063F9039B1A2218692630FEF75DF9039B4C
:103E800020211A6911711C6903F04EF901460122C3
:103E900008342046FEF738F9039B04A81B6983F811
:103EA0002120FFF73FFA044658B9A96801B302463A
:103EB0002846FEF731FDAB68039A0446013B536187
:103EC000B4B1384602F0CEFC0CB100232B60204682
:103ED00018B0BDE8F0879DF8163013F0110F40F0D0
:103EE000818018F0040F40F0C78018F0080FB0D19F
:103EF000039A31071399936C48BF46F04006E96472
:103F0000AB64107804286FD1069B9DF817102B62C4
:103F1000089B106923F0FF030B4329466B62179B34
:103F2000AB62FFF76BFD039B0024002205F15008F4
:103F30002B602146DB88404685F83060AB8000234B
:103F400085F831406C64C5E90E234FF40072FEF72A
:103F5000F3F8B20653D40024B3E703F0E5F80146C2
:103F6000009013980E30FEF7CFF813980099163092
:103F7000FEF7CAF8039C13992078FFF755FD20231C
:103F800000228046CB7220461399FEF7F5F8139B6A
:103F9000002201211A775A779A77DA77039BD97032
:103FA000B8F1000FA4D0414604A8D3F84890FEF71A
:103FB000B3FC0446002884D149460398FEF786FAEC
:103FC000039B044608F1FF30586179E7002C7FF429
:103FD00078AF9DF81630DC0650D418F0020F87D069
:103FE000D80785D507246CE7FFF71EFD0023A860DE
:103FF00001F11C00FEF782F86B61286193E7D5E9B7
:10400000046956EA0903A6D0039BA968B3F80AA07D
:104010004FEA4A2AC5E90E69B24574EB09031BD37E
:1040200000242964002C7FF44CAFC6F30803002B56
:1040300091D0039C2046FEF793F808B3760A01233B
:10404000414646EAC95682196A64607802F0ACFBC0
:10405000041E18BF012434E72846FEF7E1FAB6EB48
:104060000A06014669F10009012803D9431CD3D18E
:104070000124D6E70224D4E7082422E7042420E719
:1040800002241EE7044620E7092420E711241EE746
:104090002DE9F04F994685B00023884603A90446D0
:1040A000C9F800301646FEF7B5F8054680BB94F80F
:1040B00031506DBB94F8303013F00103009300F0E1
:1040C000A68004F1500AD4E90432D4E90E011B1A87
:1040D00062EB0102B34272F1000238BF1E46BEB16C
:1040E000D4E90E10C1F30803002B40F08280039B3B
:1040F0005A894B0A013A43EAC0531A401BD151EA8C
:10410000000309D1A06801280DD8022584F8315098
:10411000284605B0BDE8F08F216C20460192FEF7DD
:104120007FFA019AEFE7431C04D10123009D84F834
:104130003130EDE72064DDF80CB0216C5846FEF715
:104140000FF80028E1D0B6F5007F02EB000731D36D
:10415000BBF80A1002EB5620730A88429BF8010054
:1041600088BF8B1A3A464146019302F01DFB002896
:10417000DBD194F93020019B002A0BDA606CC01B64
:10418000984207D24FF40072514608EB4020FEF7E8
:104190006DF9019B5F02D9F80030F61BB8443B442F
:1041A000C9F80030D4E90E32DB1942F10002C4E94B
:1041B0000E3294E7626CBA421AD094F93030002B78
:1041C0000DDA012351469BF8010002F011FB002893
:1041D000ABD194F8303003F07F0384F8303003988B
:1041E00001233A465146407802F0DEFA00289CD17D
:1041F0006764A16B4046C1F30801C1F500775144E3
:10420000B74228BF37463A46FEF730F9C3E70725DD
:104210007EE7000070B596B00E460022019002A91C
:1042200001A8FEF7B1FC0446E0B94FF48C6002F03F
:1042300017FB0546D8B1029B00F500720199D860C2
:1042400002A81A61FFF7F8FB044640B99DF9533004
:10425000002B0ADB1EB1314602A8FEF70FF82846F4
:1042600002F000FB204616B070BD0624F7E71124CB
:10427000F8E7000070B5B8B00222019003A901A8C8
:10428000FEF782FC044608BB039B4FF48C6010933E
:1042900002F0E6FA0546002866D0039B00F500729E
:1042A0000199D86010A81A61FFF7C6FB044650B9FF
:1042B0009DF88B30980655D4190653D49DF8463096
:1042C000DA0706D50724284602F0CCFA204638B093
:1042D00070BD039B04931878042814D104A91869AD
:1042E000FFF78CFB069E9DF84630DB0610D410A825
:1042F000FFF74CF804460028E5D156BB0398FEF7BB
:10430000F7FB0446DFE71F99FFF78EFB0646EAE757
:10431000039BDA69B242D5D024930021269624A8C3
:104320001B78042B01BFDDE90823CDE928239DF884
:1043300017308DF89730FEF70BFA04460028C2D1EB
:1043400024A8FFF751F804460028BBD00428BAD1AE
:10435000CDE70246314604A8FEF7DEFA04460028FF
:10436000B1D1CBE70624AEE71124AFE7F0B5BDB07D
:10437000CDE900106846FDF733FF022203A901A82A
:10438000FEF702FC0446002838D1039B4FF48C60F2
:10439000149302F065FA0546002800F0CD80039BD7
:1043A00000F500720199D86014A81A61FFF744FB68
:1043B000044600BB9DF89B3013F0A00F40F0B8807E
:1043C000039B1A78042A58D11969402204A8FEF7E1
:1043D0004DF8502228A80DEB0201FEF747F800998E
:1043E00028A8FFF729FB0446002843D12A9A169BE8
:1043F0009A4206D00824284602F034FA20463DB0FE
:10440000F0BD349A209B9A42F4D128A8FFF74CF9CA
:1044100004460028EFD1039B04A940221869848C2C
:10442000477890F82360FEF721F8039B28A81B69C2
:104430005F70039B1A6982F823601A6982F824402E
:10444000240A82F825401A691379D9065CBF43F023
:1044500020031371FEF766FF04460028CBD114A891
:10446000FEF794FF04460028C5D10398FEF740FBF1
:104470000446C0E70428BED1C7E72022239904A838
:10448000FDF7F4FF502228A80DEB0201FDF7EEFF27
:10449000009928A8FFF7D0FA0446002844D12A9AA8
:1044A000169B9A42A6D1349A209B9A42A2D128A860
:1044B000FFF7FAF8044600289DD1379C13220DF12E
:1044C0001D01012704F10D00FDF7D0FF9DF81B3001
:1044D000039EDA0658BF43F02003E372F770E37AD5
:1044E000DB06BCD5169A2A9B9A42B8D02146307872
:1044F000FFF79AFA01463046FDF732FE0146C8B191
:104500003046FDF7E3FF044600287FF474AF0398BC
:1045100090F86D302E2BA2D12A9A00F16C01FDF794
:104520002BFE039BDF709AE704287FF464AFBEE79D
:10453000062460E702245EE711245FE77F2810B5B8
:1045400001D880B210BDB0F5803F13D240F2523393
:1045500099420FD10849002231F8024B93B28442AC
:1045600003D103F18000C0B2ECE70132802AF3D11D
:104570001346F6E70020E5E76C9100087F280DD987
:1045800040F25233994208D1FF2806D800F100408A
:10459000034B803833F8100070470020704700BF8D
:1045A0006C910008B0F5803FF0B522D21F4A83B26B
:1045B0001F49B0F5805F28BF0A46141D34F8042C4B
:1045C0002146AAB1934213D334F8025C2E0AEFB20B
:1045D00052FA85F5A84222DA082E09D8DFE806F05B
:1045E000050A10121416181A1C00801A34F810301C
:1045F0001846F0BD981A00F001001B1A9BB2F7E7AD
:10460000103BFBE7203BF9E7303BF7E71A3BF5E7C8
:104610000833F3E7503BF1E7A3F5E353EEE7043447
:10462000002ECBD101EB4702C7E700BFBC8E0008CC
:10463000B090000801F001038A0748BF43F002036D
:104640004A0748BF43F008030A0748BF43F0040382
:10465000CA0648BF43F010038A06426B48BF43F0C6
:104660002003134343637047094BC26A994228BF32
:104670001946D0F84C328B4210B5507906D95A1EE3
:104680004C0002EB4103B3FBF4F3184410BD00BF30
:1046900020BCBE0010B5202383F311880024064BF4
:1046A00006482146DC6301F07DFF84F31188BDE8F4
:1046B000104002F037BF00BF00700052DC3600200F
:1046C00010B5094C204600F0ADFF084B0022084908
:1046D00063643120C4E90F23064BC4E99213092116
:1046E000BDE8104000F022BCA0360020005A620253
:1046F0000070005200B4C404C36A0BB90F4BC3620C
:104700000379012B11D10E4B98420ED10D4BD3F8EA
:10471000D42042F48032C3F8D420D3F8FC2042F4F1
:104720008032C3F8FC20D3F8FC30D0F848320022A5
:104730001A605A60DA625A62704700BF6C920008D1
:10474000A0360020004402580379012B18D0D0F87D
:10475000483200221A605A60DA625A62094B984263
:104760000ED1094BD3F8D42022F48032C3F8D420E0
:10477000D3F8FC2022F48032C3F8FC20D3F8FC30BC
:10478000704700BFA03600200044025810B5D0F892
:1047900048420749FFF768FF6060236842F21070E3
:1047A00043F003032360BDE8104001F0E1BE00BF09
:1047B000801A060038B5D0F8485201296C6808BF45
:1047C000054924F0FF0418BF0449FFF74DFF0443D7
:1047D00044F480546C6038BD80F0FA0240787D016A
:1047E000D0F8483200225A601A607047D0F8482248
:1047F0000129536823F4404304D0022905D001B9AC
:104800005360704743F48043FAE743F40043F7E70B
:10481000D0F8483241F480519A60D9605A6B120640
:10482000FCD580229A63704710B541F48851D0F8C6
:104830004842A260E160616B11F04502FBD0A263C7
:1048400011F0040203D0FFF7F5FE012010BD6169ED
:1048500010461960FAE7000010B541F48851D0F80D
:104860004842A260E160616B11F04502FBD0A26397
:1048700011F0050203D0FFF7DDFE012010BD6169D4
:1048800010461960FAE700002DE9F041044628209F
:104890000F46164601F06CFED4F84802C56A00F1D6
:1048A000580115F002053FD0826AD4F8500202F098
:1048B00075FD10B90120BDE8F081202383F3118834
:1048C0004FF0FF31D4F848024FF49D738163C36306
:1048D00001230365C36A43F00103C36204F13C0092
:1048E00001F052FED4F848220023136583F31188A7
:1048F000D4F84832D4F85002996D9A6A02F076FDE5
:10490000D4F848325A6BD205D4D54FF0FF32012F7C
:104910009A634FF00002DA6231D9334620460C2107
:10492000BDE8F041FFF798BF4FF0FF384FF49D739B
:10493000C0F83880C363826AD4F8500202F064FD84
:104940000028B7D0202383F311880122D4F84832FD
:10495000414604F13C001A65DA6A42F00102DA626B
:1049600001F012FED4F848321D6585F31188D4F8A1
:104970004832D4F85002996D02F072FDC0E710463B
:1049800099E7000073B5D0F84842002501924FF036
:10499000FF320E46616B2565A263E562FFF74AFEB2
:1049A000012E07D9019B2A460C2102B0BDE87040B8
:1049B000FFF752BF02B070BD10B541F49851D0F866
:1049C0004842A260E160616B11F04502FBD0A26336
:1049D00011F03F0203D0FFF72DFE012010BD216A28
:1049E00010461960E1695960A16999606169D960EF
:1049F000F4E700007FB516460193026C0D46D0F82F
:104A0000483204465A6200F0D3FD019938B120467D
:104A100003AA0121FFF7B6FF012004B070BDD4F84E
:104A20004802089AC36A43F40053C3624FF0FF334D
:104A30008363062386628565C36203AB2046FFF766
:104A40000BFF0028E3D1064B039A1340002BDED165
:104A500003AA01212046FFF717FF0028DDD0D6E783
:104A600008E0FFFDF7B517461D46026C0446D0F876
:104A700048320E465A6200F09BFD00BBD4F8483223
:104A8000DA6A42F40052DA624FF0FF329A636A0245
:104A90009A6292229F65DA62236BDB0601AB58BFF4
:104AA0007602012D32460CD912212046FFF7D4FEA2
:104AB00048B1204601AA2946FFF764FF012003B050
:104AC000F0BD1121F1E7064B019A1340002BF0D104
:104AD00001AA29462046FFF7D7FE0028EFD0E8E7D5
:104AE00008E0FFFDF7B517461D46426C0446D0F8B6
:104AF00048320E465A6200F05BFDE8B9D4F84832FD
:104B0000DA6A42F40052DA624FF0FF329A636A02C4
:104B10009A62236BDB0601AB58BF7602012D324649
:104B20000CD919212046FFF797FE48B1204601AA6B
:104B30002946FFF727FF012003B0F0BD1821F1E758
:104B4000084B019A1340002BF0D1D4F84832902240
:104B5000294620469F65DA6201AAFFF795FE0028E4
:104B6000EAD0E3E708E0FFFD12F0030F2DE9F04182
:104B700007460C4615461E461CD0C1EBC1520E44DA
:104B8000DFF8388005EB4225B44202D10020BDE8B1
:104B9000F0810123094A21463846FFF763FF0028C8
:104BA000F5D105EB44204FF4007241460134FDF786
:104BB0008BF8E9E7BDE8F041FFF754BFF438002077
:104BC00012F0030F2DE9F04107460C4615461E462C
:104BD0001CD0C1EBC1520E44DFF8388005EB4225F2
:104BE000B44202D10020BDE8F0814FF4007205EB21
:104BF00044214046FDF768F80123424621463846E5
:104C0000FFF770FF0028EED10134E9E7BDE8F0417D
:104C1000FFF768BFF438002000207047026843683F
:104C20001143016003B1184770470000024A13683E
:104C300043F0C0031360704700440040024A136809
:104C400043F0C0031360704700480040024A1368F5
:104C500043F0C003136070470078004037B5274C1D
:104C6000274D204600F03AFD04F114000094002383
:104C70004FF40072234900F0C9F94FF40072224941
:104C800004F138000094214B00F042FA204BC4E9B3
:104C90001735204C204600F021FD04F1140000944B
:104CA00000234FF400721C4900F0B0F94FF4007279
:104CB0001A4904F138000094194B00F029FA194BF5
:104CC000C4E91735184C204600F008FD04F1140023
:104CD00000234FF400721549009400F097F9144B2B
:104CE0004FF40072134904F13800009400F010FAF8
:104CF000114BC4E9173503B030BD00BFF43A0020B2
:104D000000E1F505383C0020384200202D4C000819
:104D100000440040603B0020383E00203844002022
:104D20003D4C000800480040CC3B002038400020AB
:104D30004D4C00083846002000780040037C30B518
:104D4000334C002918BF0C46012B18D1314B984227
:104D50000FD1314BD3F8E82042F40032C3F8E820F9
:104D6000D3F8102142F40032C3F81021D3F81031E7
:104D700005E02A4B98422FD0294B984238D0226820
:104D8000036EC16D03EB52038466B3FBF2F36268FA
:104D9000150442BF23F0070503F0070343EA450368
:104DA000CB60A36843F040034B60E36843F001032A
:104DB0008B6042F4967343F001030B604FF0FF33B6
:104DC0000B62510505D512F010221DD0B2F1805FA3
:104DD0001CD080F8643030BD0F4BD3F8E82042F48B
:104DE0008022C3F8E820D3F8102142F48022BBE7E8
:104DF000094BD3F8E82042F08042C3F8E820D3F80A
:104E0000102142F08042AFE77F23E2E73F23E0E753
:104E100074920008F43A002000440258603B0020DD
:104E2000CC3B00202DE9F047C66D05463768F46994
:104E30002107346219D014F0080118BF8021E2075D
:104E400048BF41F02001A3074FF0200348BF41F0C5
:104E50004001600748BF41F4807183F31188281D29
:104E6000FFF7DCFE002383F31188E2050AD5202337
:104E700083F311884FF40071281DFFF7CFFE002344
:104E800083F311884FF020094FF0000A14F0200836
:104E900038D13B0616D54FF0200905F1380A200617
:104EA00010D589F31188504600F066F9002836DAEB
:104EB0000821281DFFF7B2FE27F08003336000238E
:104EC00083F31188790614D5620612D5202383F363
:104ED0001188D5E913239A4208D12B6C33B127F0FE
:104EE00040071021281DFFF799FE3760002383F348
:104EF0001188E30618D5AA6E1369ABB15069BDE8F5
:104F0000F047184789F31188736A284695F86410AA
:104F1000194000F0FDFB8AF31188F469B6E7B0622E
:104F200088F31188F469BAE7BDE8F087090100F158
:104F30006043012203F56143C9B283F8001300F016
:104F40001F039A4043099B0003F1604303F561434B
:104F5000C3F880211A607047F8B515468268044688
:104F60000B46AA4200D28568A1692669761AB54225
:104F70000BD218462A46FCF7A7FEA3692B44A3616F
:104F80002846A3685B1BA360F8BD0CD9AF1B18466D
:104F90003246FCF799FE3A46E1683044FCF794FE4D
:104FA000E3683B44EBE718462A46FCF78DFEE368CE
:104FB000E5E7000083689342F7B50446154600D242
:104FC0008568D4E90460361AB5420BD22A46FCF74C
:104FD0007BFE63692B4463612846A3685B1BA36067
:104FE00003B0F0BD0DD93246AF1B0191FCF76CFE4A
:104FF00001993A46E0683144FCF766FEE3683B44B9
:10500000E9E72A46FCF760FEE368E4E710B50A44E6
:105010000024C361029B8460C16002610362C0E935
:105020000000C0E9051110BD08B5D0E90532934272
:1050300001D1826882B98268013282605A1C426161
:1050400019700021D0E904329A4224BFC368436139
:1050500001F0C2FA002008BD4FF0FF30FBE700006E
:1050600070B5202304460E4683F31188A568A5B1C8
:10507000A368A269013BA360531CA3611578226950
:10508000934224BFE368A361E3690BB120469847CC
:10509000002383F31188284607E03146204601F0BB
:1050A0008BFA0028E2DA85F3118870BD2DE9F74FFD
:1050B00004460E4617469846D0F81C904FF0200A3A
:1050C0008AF311884FF0000B154665B12A46314628
:1050D0002046FFF741FF034660B94146204601F0F4
:1050E0006BFA0028F1D0002383F31188781B03B0FA
:1050F000BDE8F08FB9F1000F03D001902046C847FA
:10510000019B8BF31188ED1A1E448AF31188DCE7AA
:10511000C160C361009B82600362C0E90511114454
:10512000C0E9000001617047F8B504460D46164617
:10513000202383F31188A768A7B1A368013BA3606C
:1051400063695A1C62611D70D4E904329A4224BF1B
:10515000E3686361E3690BB120469847002080F360
:10516000118807E03146204601F026FA0028E2DAED
:1051700087F31188F8BD0000D0E9052310B59A42E5
:1051800001D182687AB982680021013282605A1C9A
:1051900082611C7803699A4224BFC368836101F06D
:1051A0001BFA204610BD4FF0FF30FBE72DE9F74F0B
:1051B00004460E4617469846D0F81C904FF0200A39
:1051C0008AF311884FF0000B154665B12A46314627
:1051D0002046FFF7EFFE034660B94146204601F046
:1051E000EBF90028F1D0002383F31188781B03B07A
:1051F000BDE8F08FB9F1000F03D001902046C847F9
:10520000019B8BF31188ED1A1E448AF31188DCE7A9
:105210000379052B05BF836A002001204B6004BF82
:105220004FF400730B60704770B55D1E866A0446CC
:105230000D44B54205D9436B43F08003436301201D
:1052400070BD06250571FFF78FFC05232371F7E775
:1052500070B55D1E866A04460D44B54205D9436BA0
:1052600043F080034363012070BD07250571FFF7FC
:10527000A7FC05232371F7E738B505790446052D0A
:1052800005D108230371FFF7C7FC257138BD012044
:10529000FCE700002DE9F041032384B0044602AF8F
:1052A0000371FFF773FA002220461146FFF7B0FAA8
:1052B0004FF4D5723B1D08212046FFF7CDFA024678
:1052C000B8B9012323637B68C3F30323012B09D1FE
:1052D0003B1D37212046FFF7BFFA18B9AB4B7A6860
:1052E0001340ABB120460125FFF77AFA0223237160
:1052F00040E13B1D002237212046FFF7ADFA28B9D7
:10530000A24A7B681A40002A00F0A9800223236386
:10531000236B03F00F03022B40F0AB8064259C4EFF
:1053200042F2107001F024F93B1D32460121204663
:10533000FFF77AFA0028D5D17B68002B80F29580A0
:105340005A0003D5236B43F010032363002204F1BA
:10535000080302212046FFF72FFB02460028C1D197
:1053600004F1380303212046FFF776FA0028B9D16B
:1053700004F11805A26B092120462B46FFF71CFB00
:105380000028AFD13B46A26B07212046FFF764FA05
:1053900006460028A6D1236B03F00F03022B40F032
:1053A00093807E227F21284603F0E6FA012840F20E
:1053B0008B8004F148084FF47A7001F0D9F8082383
:1053C0004FF40072414620460096FFF713FB002879
:1053D00088D1404603F01EFB236BA06203F00F034D
:1053E000022B77D13B1D6B4A06212046FFF734FA8A
:1053F00000286DD165497B681940B1FA81F14909EE
:105400002046FFF7D7F93B464FF4007210212046A3
:10541000FFF722FA054600287FF464AF5B4E3B6835
:1054200033427FF45FAF236B13F00E0F03F00F02D4
:105430007BD0022A7FF456AFE36A1979012900F084
:105440009E80022900F09E80002900F09180DFF804
:1054500054812046FFF7CAF93B1D42467DE01146C4
:1054600020462263FFF7D4F952E7013D7FF458AF9D
:1054700038E7494D6426494ADFF81081012B18BFEF
:1054800015463B1D002237212046FFF7E5F900288D
:105490007FF428AF7B6813EA080F7FF423AF3B1D2E
:1054A0002A4629212046FFF7BFF900287FF41AAFCA
:1054B0007B68002BFFF644AF013E3FF413AF42F28E
:1054C000107001F055F8DCE7284603F077FA83E71F
:1054D000002195E7E84690B07E227F21284602AE63
:1054E00003F04AFA10B90021C54689E7002340229B
:1054F0003146204600930623FFF77CFA0028F2D1BC
:10550000B3895BBA9B07EED5254B40223146204636
:1055100000930623FFF76EFA0028E4D1317C01F0F6
:105520000F010F3918BF0121DEE7E36A1979F9B1DC
:1055300001297FF4D7AE2046FFF758F93B1DA26B37
:1055400037212046FFF788F900287FF4CBAE7B682F
:1055500033427FF4C7AE3B1D022206212046FFF7EF
:105560007BF900287FF4BEAE7B6833427FF4BAAE8D
:105570000523237128460837BD46BDE8F081DFF8D2
:10558000288066E7DFF8248063E700BF08E0FFFDBE
:105590000080FFC00001B9030080FF5000001080B0
:1055A000F1FFFF800000B7030001B7030002B7035B
:1055B00037B504460C4D01ABA26B0D212046FFF719
:1055C0004BF978B9019B2B420BD1C3F34323042B36
:1055D00008D0053B022B04D84FF47A7000F0C8FFC6
:1055E000E9E7012003B030BD08E0FFFD70B52023DE
:1055F000054683F3118803790024022B03D184F339
:105600001188204670BD0423037184F3118802269B
:10561000FFF7CEFF04462846FFF7E2F82E71F0E7C9
:10562000FFF74EB8044B036001230371002343636B
:10563000C0E90A33704700BF8C92000810B52023E0
:10564000044683F31188C162FFF756F802232371E1
:10565000002383F3118810BD10B52023044683F383
:105660001188FFF771F800230122E362227183F3AE
:10567000118810BD026843681143016003B11847E7
:10568000704700001430FFF711BD00004FF0FF33EA
:105690001430FFF70BBD00003830FFF787BD000066
:1056A0004FF0FF333830FFF781BD00001430FFF7B3
:1056B000D7BC00004FF0FF311430FFF7D1BC000021
:1056C0003830FFF731BD00004FF0FF323830FFF7C0
:1056D0002BBD000000207047FFF7C0BA044B0360E9
:1056E00000234360C0E9023301230374704700BF05
:1056F000B092000810B52023044683F31188FFF709
:105700001DFB02232374002383F3118810BD0000C6
:1057100038B5C36904460D461BB904210844FFF798
:10572000A9FF294604F11400FFF77EFC002806DAE1
:10573000201D4FF48061BDE83840FFF79BBF38BDA6
:10574000026843681143016003B1184770470000C5
:1057500013B5406B00F58054D4F8A4381A6811785A
:10576000042914D1017C022911D11979012312894C
:105770008B4013420BD101A94C3003F02BF8D4F825
:10578000A4480246019B2179206800F0DFF902B0AD
:1057900010BD0000143002F0ADBF00004FF0FF3329
:1057A000143002F0A7BF00004C3003F07FB80000B7
:1057B0004FF0FF334C3003F079B80000143002F0A2
:1057C0007BBF00004FF0FF31143002F075BF0000C6
:1057D0004C3003F04BB800004FF0FF324C3003F078
:1057E00045B800000020704710B500F58054D4F88B
:1057F000A4381A681178042917D1017C022914D120
:105800005979012352898B4013420ED1143002F092
:105810000DFF024648B1D4F8A4484FF440736179B3
:105820002068BDE8104000F07FB910BD406BFFF765
:10583000DBBF0000704700007FB5124B0125042636
:10584000044603600023057400F184024360294686
:10585000C0E902330C4B0290143001934FF44073B3
:10586000009602F0BFFE094B04F69442294604F16B
:105870004C000294CDE900634FF4407302F086FFC0
:1058800004B070BDD89200082D5800085157000888
:105890000A68202383F311880B790B3342F8230025
:1058A0004B79133342F823008B7913B10B3342F851
:1058B000230000F58053C3F8A418022303740023C7
:1058C00083F311887047000038B5037F044613B195
:1058D00090F85430ABB90125201D0221FFF730FFAD
:1058E00004F114006FF00101257700F081FE04F14E
:1058F0004C0084F854506FF00101BDE8384000F0CE
:1059000077BE38BD10B5012104460430FFF718FFFB
:105910000023237784F8543010BD000038B50446C6
:105920000025143002F076FE04F14C00257702F0D9
:1059300045FF201D84F854500121FFF701FF204648
:10594000BDE83840FFF750BF90F8803003F06003A7
:10595000202B06D190F881200023212A03D81F2A6A
:1059600006D800207047222AFBD1C0E91D3303E08E
:10597000034A426707228267C3670120704700BF5E
:105980004422002037B500F58055D5F8A4381A68B0
:10599000117804291AD1017C022917D11979012320
:1059A00012898B40134211D100F14C04204602F0C1
:1059B000C5FF58B101A9204602F00CFFD5F8A44854
:1059C0000246019B2179206800F0C0F803B030BD89
:1059D00001F10B03F0B550F8236085B004460D4685
:1059E000FEB1202383F3118804EB8507301D0821C5
:1059F000FFF7A6FEFB6806F14C005B691B681BB154
:105A0000019002F0F5FE019803A902F0E3FE0246C0
:105A100048B1039B2946204600F098F8002383F301
:105A2000118805B0F0BDFB685A691268002AF5D0EC
:105A30001B8A013B1340F1D104F18002EAE7000028
:105A4000133138B550F82140ECB1202383F311888D
:105A500004F58053D3F8A4281368527903EB82032A
:105A6000DB689B695D6845B104216018FFF768FE3B
:105A7000294604F1140002F0E3FD2046FFF7B4FECE
:105A8000002383F3118838BD7047000001F044BE45
:105A900001234022002110B5044600F8303BFCF7FA
:105AA00039F90023C4E9013310BD000010B52023EB
:105AB000044683F311882422416000210C30FCF756
:105AC00029F9204601F04AFE02232370002383F3C4
:105AD000118810BD70B500EB8103054650690E4674
