:020000040800F2
:1000000000090020F50400082D2B0008AD2A000887
:10001000052B0008AD2A0008D92A0008F7040008BB
:10002000F7040008F7040008F7040008393B00084B
:10003000F7040008F7040008F7040008F7040008B4
:10004000F7040008F7040008F7040008F7040008A4
:10005000F7040008F7040008B1650008DD65000832
:10006000096600083566000861660008F7040008A4
:10007000F7040008F7040008F7040008F704000874
:10008000F7040008F7040008F7040008F126000848
:100090001D2700082D270008F70400088D660008BA
:1000A000F7040008F7040008F7040008F704000844
:1000B00025640008F7040008F7040008F7040008A6
:1000C000F7040008F7040008F7040008F704000824
:1000D000F7040008F70400081D3C0008F7040008B6
:1000E000F5660008F7040008F7040008F7040008A4
:1000F000F7040008F7040008F7040008F7040008F4
:10010000F7040008F7040008F7040008F7040008E3
:10011000F7040008F7040008F7040008F7040008D3
:10012000F7040008F7040008F7040008F7040008C3
:10013000F7040008F7040008F7040008F7040008B3
:10014000F7040008F7040008F70400084D5C0008F5
:10015000F7040008F7040008F7040008F704000893
:10016000F7040008F7040008F7040008F704000883
:10017000F7040008F7040008F7040008F704000873
:10018000F7040008F7040008F7040008F704000863
:10019000F7040008F7040008F7040008F704000853
:1001A000F7040008F7040008F7040008F704000843
:1001B000F7040008F7040008F7040008F704000833
:1001C000F7040008F7040008F7040008F704000823
:1001D000F7040008F7040008F7040008F704000813
:1001E00039180008000000000000000000000000B6
:1001F00053B94AB9002908BF00281CBF4FF0FF318E
:100200004FF0FF3000F074B9ADF1080C6DE904CE89
:1002100000F006F8DDF804E0DDE9022304B07047E1
:100220002DE9F047089D04468E46002B4DD18A42A9
:10023000944669D9B2FA82F252B101FA02F3C2F1DC
:10024000200120FA01F10CFA02FC41EA030E94406D
:100250004FEA1C48210CBEFBF8F61FFA8CF708FB8E
:1002600016E341EA034306FB07F199420AD91CEB66
:10027000030306F1FF3080F01F81994240F21C8198
:10028000023E63445B1AA4B2B3FBF8F008FB1033E0
:1002900044EA034400FB07F7A7420AD91CEB040415
:1002A00000F1FF3380F00A81A74240F207816444E5
:1002B000023840EA0640E41B00261DB1D44000236A
:1002C000C5E900433146BDE8F0878B4209D9002DCE
:1002D00000F0EF800026C5E9000130463146BDE858
:1002E000F087B3FA83F6002E4AD18B4202D38242C2
:1002F00000F2F980841A61EB030301209E46002D71
:10030000E0D0C5E9004EDDE702B9FFDEB2FA82F2C5
:10031000002A40F09280A1EB0C014FEA1C471FFA23
:100320008CFE0126200CB1FBF7F307FB131140EA0A
:1003300001410EFB03F0884208D91CEB010103F1D7
:10034000FF3802D2884200F2CB804346091AA4B299
:10035000B1FBF7F007FB101144EA01440EFB00FE6D
:10036000A64508D91CEB040400F1FF3102D2A645D2
:1003700000F2BB800846A4EB0E0440EA03409CE771
:10038000C6F12007B34022FA07FC4CEA030C20FA1E
:1003900007F401FA06F31C43F9404FEA1C4900FA3E
:1003A00006F3B1FBF9F8200C1FFA8CFE09FB1811BB
:1003B00040EA014108FB0EF0884202FA06F20BD92E
:1003C0001CEB010108F1FF3A80F08880884240F27E
:1003D0008580A8F102086144091AA4B2B1FBF9F0C2
:1003E00009FB101144EA014100FB0EFE8E4508D9BD
:1003F0001CEB010100F1FF346CD28E456AD9023842
:10040000614440EA0840A0FB0294A1EB0E01A14226
:10041000C846A64656D353D05DB1B3EB080261EB94
:100420000E0101FA07F722FA06F3F1401F43C5E96E
:10043000007100263146BDE8F087C2F12003D840A4
:100440000CFA02FC21FA03F3914001434FEA1C47E6
:100450001FFA8CFEB3FBF7F007FB10360B0C43EAD8
:10046000064300FB0EF69E4204FA02F408D91CEB88
:10047000030300F1FF382FD29E422DD90238634486
:100480009B1B89B2B3FBF7F607FB163341EA034126
:1004900006FB0EF38B4208D91CEB010106F1FF3875
:1004A00016D28B4214D9023E6144C91A46EA00466C
:1004B00038E72E46284605E70646E3E61846F8E6FE
:1004C0004B45A9D2B9EB020864EB0C0E0138A3E747
:1004D0004646EAE7204694E74046D1E7D0467BE728
:1004E000023B614432E7304609E76444023842E7A0
:1004F000704700BF02E000F000F8FEE772B63A482D
:1005000080F30888394880F3098839484EF6085145
:10051000CEF20001086040F20000CCF200004EF67E
:100520003471CEF200010860BFF34F8FBFF36F8FBD
:1005300040F20000C0F2F0004EF68851CEF2000109
:100540000860BFF34F8FBFF36F8F4FF00000E1EEF5
:10055000100A4EF63C71CEF200010860062080F3CE
:100560001488BFF36F8F05F055F805F031F805F0EA
:10057000BDFE4FF055301F491B4A91423CBF41F828
:10058000040BFAE71C49194A91423CBF41F8040B9D
:10059000FAE71A491A4A1B4B9A423EBF51F8040B1C
:1005A00042F8040BF8E700201749184A91423CBF73
:1005B00041F8040BFAE705F00FF805F0EBFE144CD8
:1005C000144DAC4203DA54F8041B8847F9E700F0F5
:1005D00041F8114C114DAC4203DA54F8041B884722
:1005E000F9E704F0F7BF0000000900200011002027
:1005F000000000080001002000090020106F000822
:1006000000110020B0110020B0110020BC3F0020DC
:10061000E0010008E4010008E4010008E40100082A
:100620002DE9F04F2DED108AC1F80CD0C3689D461E
:10063000BDEC108ABDE8F08F002383F311882846B3
:10064000A047002004F034FBFEE704F0A3FA00DF2B
:10065000FEE70000F8B504F055FF074604F0A4FFDC
:100660000546B8BB204B9F4234D001339F4234D063
:100670001E4B27F0FF029A4232D1F8B200F0F0FE92
:100680002E4642F2107400F0F1FE08B10024264616
:1006900002F0A2FA20B1032000F07CF800242646E4
:1006A00035B1134B9F4203D004F076FF0024264659
:1006B000002004F031FF0EB100F082F801F0AEFA34
:1006C00000F032FF01F03AF9204600F0DFF800F0C8
:1006D00077F8F9E72E460024D5E704460126D2E74D
:1006E00006464FF47A74CEE7010007B0000008B068
:1006F000263A09B008B501F0EDF8A0F12003584200
:10070000584108BD07B541F21203022101A8ADF816
:10071000043001F0FDF803B05DF804FB38B5202388
:1007200083F311881748C3680BB104F047FB164ADE
:10073000144800234FF47A7104F004FB002383F380
:100740001188124C236813B12368013B236063684E
:1007500013B16368013B63600D4D2B7833B9636857
:100760007BB9022001F0D4F9322363602B78032B8C
:1007700007D163682BB9022001F0CAF94FF47A73EC
:10078000636038BDB01100201D070008CC120020A6
:10079000C4110020084B187003280CD8DFE800F0C3
:1007A00008050208022001F0A9B9022001F09CB955
:1007B000024B00225A607047C4110020CC12002066
:1007C00010B502F009FA30B1294B03221A70294BF7
:1007D00000225A6010BD284B284A1C461968013176
:1007E000F8D004339342F9D16268254B9A42F1D98B
:1007F000244B9B6803F1006303F580339A42E9D2EE
:1008000004F09EFE04F0B0FE002001F0B1F80220DA
:10081000FFF7C0FF1C4B1A6C00221A64196E1A668F
:10082000196E596C5A64596E5A665A6E5A6942F07A
:1008300080025A615A6922F080025A615A691A6923
:1008400042F000521A611A6922F000521A611B69C3
:1008500072B64FF0E0232021C3F8084DD4E90032EE
:1008600081F311889D4683F308881047B2E700BFE3
:10087000C4110020CC120020000001082000010853
:10088000FFFF000800110020003802402DE9F04F62
:1008900093B0AB4B00902022FF210AA89D6801F085
:1008A00067F9A84A1378A3B9A7480121C36011705A
:1008B000202383F31188C3680BB104F07FFAA34AA5
:1008C000A14800234FF47A7104F03CFA002383F32B
:1008D0001188009B13B19E4B009A1A609D4A009CA0
:1008E0001378032B1EBF00231370994A4FF0000AA0
:1008F00018BF5360D3465646D146012001F0FEF89A
:1009000024B1934B1B68002B00F01382002000F0F1
:10091000E1FF0390039B002B01DA00F04DFE039BE7
:10092000002BEDDB012001F0DFF8039B213B162BB0
:10093000E3D801A252F823F095090008BD09000888
:10094000510A0008FB080008FB080008FB08000823
:10095000D90A0008A70C0008C10B0008230C0008E6
:100960004B0C0008710C0008FB080008830C000801
:10097000FB080008F50C0008350A0008FB08000811
:10098000390D0008A1090008350A0008FB08000815
:10099000230C00080220FFF7ADFE002840F0F38191
:1009A000009B0221BAF1000F08BF1C4605A841F2C6
:1009B0001233ADF8143000F0ABFF9EE74FF47A70BD
:1009C00000F088FF071EEBDB0220FFF793FE0028F4
:1009D000E6D0013F052F00F2D881DFE807F0030AD7
:1009E0000D10133605230593042105A800F090FF90
:1009F00017E053480421F9E757480421F6E7574820
:100A00000421F3E74FF01C08404600F0B3FF08F163
:100A100004080590042105A800F07AFFB8F12C0F16
:100A2000F2D1012000FA07F747EA0B0B5FFA8BFBC4
:100A30004FF0000901F0E8F826B10BF00B030B2B87
:100A400008BF0024FFF75EFE57E745480421CDE7C5
:100A5000002EA5D00BF00B030B2BA1D10220FFF72A
:100A600049FE074600289BD0012000F081FF0220AC
:100A7000FFF790FE00265FFA86F8404600F088FFF8
:100A8000044688B1404600F093FF01360028F2D1B9
:100A9000BA46044641F21213022105A8ADF81430FB
:100AA0003E4600F035FF28E70120FFF773FE25469C
:100AB000234B9B68AB4207D9284600F05BFF01300F
:100AC00040F066810435F3E7224B00251D70204B72
:100AD000BA465D603E46ADE7002E3FF461AF0BF0D5
:100AE0000B030B2B7FF45CAF0220FFF753FE322089
:100AF00000F0F0FEB0F10008FFF652AF18F0030767
:100B00007FF44EAF0E4A926808EB050393423FF61E
:100B100047AFB8F5807F3FF743AF124B0193B8451D
:100B200022DD4FF47A7000F0D5FE0390039A002A7C
:100B3000FFF636AF019B039A03F8012B0137EDE76F
:100B400000110020C8120020B01100201D0700086D
:100B5000CC120020C4110020041100200811002034
:100B60000C110020C8110020C820FFF7C3FD074664
:100B700000283FF415AF1F2D11D8C5F120024245C2
:100B80000AAB25F0030028BF42468349019218446E
:100B900000F0C8FF019A8048FF2100F0E9FF4FEA0A
:100BA000A8037D490193C8F38702284600F0E8FFB7
:100BB000064600283FF46EAF019B05EB830539E73D
:100BC0000220FFF797FD00283FF4EAAE00F01AFF7D
:100BD00000283FF4E5AE0027B846704B9B68BB4247
:100BE00018D91F2F11D80A9B01330ED027F0030309
:100BF00012AA134453F8203C05934046042205A949
:100C000001F0A2FF04378046E7E7384600F0B2FE65
:100C10000590F2E7CDF81480042105A800F078FED5
:100C200008E70023642104A8049300F067FE00286D
:100C30007FF4B6AE0220FFF75DFD00283FF4B0AEB2
:100C4000049800F0C7FE0590E6E70023642104A89D
:100C5000049300F053FE00287FF4A2AE0220FFF7B9
:100C600049FD00283FF49CAE049800F0C3FEEAE77B
:100C70000220FFF73FFD00283FF492AE00F0D2FEC5
:100C8000E1E70220FFF736FD00283FF489AE05A911
:100C9000142000F0CDFE04210746049004A800F0C3
:100CA00037FE3946B9E7322000F014FE071EFFF682
:100CB00077AEBB077FF474AE384A926807EB09033E
:100CC00093423FF66DAE0220FFF714FD00283FF47B
:100CD00067AE27F003074F44B9453FF4ABAE484633
:100CE00000F048FE0421059005A800F011FE09F16E
:100CF0000409F1E74FF47A70FFF7FCFC00283FF499
:100D00004FAE00F07FFE002844D00A9B01330BD089
:100D100008220AA9002000F033FF00283AD0202240
:100D2000FF210AA800F024FFFFF7ECFC1C4803F0A9
:100D3000C5FF13B0BDE8F08F002E3FF431AE0BF0CD
:100D40000B030B2B7FF42CAE0023642105A8059325
:100D500000F0D4FD074600287FF422AE0220FFF702
:100D6000C9FC804600283FF41BAEFFF7CBFC41F2E4
:100D7000883003F0A3FF059800F088FF464600F096
:100D800043FF3C46B9E5064654E64FF0000907E646
:100D9000BA467FE637467DE6C811002000110020E4
:100DA000A0860100094A136849F2690099B21B0C38
:100DB00000FB01331360064B186844F2506182B2A5
:100DC000000C01FB0200186080B27047181100206F
:100DD0001411002010B500211022044600F0C8FEB6
:100DE000034B03CB206061601868A06010BD00BF9A
:100DF000107AFF1F2DE9F043224DBBB001F09EFE9B
:100E0000AB6840F2ED22C31A934232D906AFA86014
:100E10002B4628220021384602F01CFC05F10E006A
:100E200000F09EFE002604465FFA80F905F10E08E8
:100E3000F3B2F100994501F1280107D908EB060347
:100E40000822384602F006FC0136F1E708230122A9
:100E5000CDE9023205340C4B0193A4B23023009348
:100E6000CDE9047405A3D3E90023297B074802F0E8
:100E700009FA3BB0BDE8F083AFF3008078F6339F0A
:100E800093CACD8DE8330020F5330020EC220020FA
:100E900070B50D4614461E4602F08AF950B9022E6E
:100EA00010D1012C0ED112A3D3E90023C5E90023F0
:100EB000012007E0282C10D005D8012C09D0052CE2
:100EC0000FD0002070BD302CFBD10BA3D3E9002341
:100ED000ECE70BA3D3E90023E8E70BA3D3E9002356
:100EE000E4E70BA3D3E90023E0E700BFAFF3008002
:100EF000401DA12026812A0B78F6339F93CACD8D01
:100F00009E6AC421818A46EE26417272DF25D7B7D8
:100F1000F017304A39059E5613B504462346084655
:100F200020220021019002F095FB22790198032AEA
:100F3000234628BF032203F8042F2021022202F0B7
:100F400089FB62790198072A234628BF072203F804
:100F5000052F2221032202F07DFBA2790198072AA6
:100F6000234628BF072203F8062F2521032202F07B
:100F700071FB019804F108031022282102F06AFB9A
:100F8000382002B010BD00002DE9F04FADF5017D15
:100F900021AD0EAE40F2751280460F4622A8002108
:100FA000296000F0E5FD48220021304600F0E0FD18
:100FB00001F0C4FD564B4FF47A72B0FBF2F01860AA
:100FC00093E80700012386E807000DF15A003382F9
:100FD000FFF700FF42F60403338407AB18464D4980
:100FE00005F076FD1A2230642946304686F83C200A
:100FF000FFF792FF12AB044601460822284602F092
:1010000029FB0822A1180DF14903284602F022FB12
:101010000DF14A03082204F11001284602F01AFBE0
:1010200013AB202204F11801284602F013FB14AB85
:10103000402204F13801284602F00CFB16AB0822CE
:1010400004F17801284602F005FB0DF1590308224E
:1010500004F18001284602F0FDFA04F1880A0DF13E
:101060005A0904F5847B4B465146082228460AF16A
:10107000080A02F0EFFAD34509F10109F3D11BABDD
:1010800008225946284602F0E5FA04F588744FF024
:10109000000996F834304B450AD9B36B21464B44CE
:1010A0000822284602F0D6FA083409F10109F0E7CF
:1010B0004FF0000996F83C304B4504EBC90108D9C4
:1010C000336C08224B44284602F0C4FA09F10109A6
:1010D000F0E700230393BB7E0293073107F1190366
:1010E0000193C1F3CF010123CDE904510093F97EAF
:1010F00005A3D3E90023404602F0C4F80DF5017DB5
:10110000BDE8F08FAFF300809E6AC421818A46EE6D
:10111000D4120020006B00082DE9F04FADB006AFEF
:1011200080460C4602F044F8054600285AD1237E3A
:10113000022B1BD1E38A012B18D101F0FFFC0646DC
:10114000FFF730FE03464FF4C870DFF8D892B3FBC8
:10115000F0F206F5167602FB103316FA83F3C9F89F
:101160000030E37E33B9AA4B00221A709C37BD468B
:10117000BDE8F08FA38AEEB2013BB34205F1010551
:101180000BD93B1D1E44E90000960023082201F004
:10119000F801204602F022F9ECE707F11400FFF70E
:1011A00019FE324607F11401381D05F065FB0028D1
:1011B000D9D10F2E08D8964B1E70D9F80030A3F560
:1011C0001673C9F80030D1E7FB1CF8700146009394
:1011D00007220346204602F001F9F978404601F063
:1011E000DFFFC3E7E38A282B26D010D8012B1ED0BF
:1011F000052BBBD1BFF34F8F8649874BCA6802F4DA
:10120000E0621343CB60BFF34F8F00BFFDE7302B8D
:10121000ACD1637E814D01336A7BDBB29342E946F8
:1012200003D1E27E2B7B9A4265D0CD469EE72146D4
:101230004046FFF7A9FE99E7A38A013B9BB2C92B61
:1012400094D8764D2E7B26BB05F10C030093082223
:1012500033463146204602F0C1F8731CF2B2D90081
:101260001E46A38A013B9A4205DA0E322A440092B6
:1012700000230822EEE700230022C5E90023002313
:10128000AB6085F8D730C5F8D8302B7B0BB9E37E3F
:101290002B73002507F114093B1D082229464846F7
:1012A000C7E90155FD6002F0D5F93B7A05F1010A65
:1012B000AB424FEACA0608D9FB6808222B443146E4
:1012C000484602F0C7F95546EFE7C6F3CF06E17E80
:1012D000CDE9049600230393A37E029319342823B7
:1012E0000093019448A3D3E90023404601F0CAFFCC
:1012F000FFF780FD3AE74FF0000807F11403A7F865
:1013000014801022009341460123204602F066F823
:10131000A68A023EB6B2F31C9B109B000733DB0883
:10132000A9EBC3039D460DF1180A1FFA88F34FEA93
:10133000C801B34201F110010AD20AEB080300937D
:1013400008220023204602F049F808F10108ECE7E2
:1013500095F8D70000F01CFBD5F8D83004461BB92F
:1013600095F8D70000F024FBD5F8D83033449C42E0
:1013700004D295F8D700013000F01AFB4FEA960B23
:101380004FF000081FFA88F18B45D5E9003209D9E2
:101390000AEB880103EB8800012200F0F1FB08F161
:1013A0000108EFE7F31842F10002C5E90032D5F871
:1013B000D83095F8D70006EB0308C5F8D88000F0C0
:1013C000E7FA804509D395F8D730D5F8D80001332E
:1013D000001B85F8D730C5F8D800FF2E104C09D86F
:1013E00000232B7300F00EFB01F0F6FB208108B9FF
:1013F000FFF7E6F92B689B0A013323810023AB60DA
:1014000013E700BFAFF3008026417272DF25D7B724
:10141000E522002000ED00E00400FA05E83300209A
:10142000D4120020E822002010B50A4B0A4A1A60A4
:1014300003F5805393F860203AB9DC6D2CB1204657
:1014400001F0FAF9204605F0D5F9BDE8104003484F
:1014500001F0F2B918230020A86B000860330020C7
:10146000014B1870704700BFE012002030B54FF0FC
:101470000054244B22689A4285B007D004F09EF8AD
:101480000446A8B90024204605B030BD1E4B627D3D
:101490001A701E48237D03731D49C9220E3000F0C7
:1014A00041FB2046E022002100F062FB0124EAE734
:1014B000184A194D136C43F000731364AA6D174B4F
:1014C0009A42DFD12B6E013B7E2BDBD8144A07CA30
:1014D00001AB83E807001846032101F04BFB6B6D5D
:1014E00083424FF00003CDD12A6D8A4201BFAB6524
:1014F000054B2A6E1A7003BF0A4BEA6D1A601C4630
:10150000C1E700BF9AAD44C5E0120020E8330020D7
:101510001600002000380240006600405041A0B094
:10152000586600401011002037B51A4D01F054FBE9
:1015300002236B71184B288119681848012200F0AA
:10154000C7FF00230193164B164900931648174B0B
:101550004FF4805201F0FEFD154B197811B112487D
:1015600001F01EFE01F0EAFA0446FFF71BFC4FF4FF
:10157000C873B0FBF3F202FB130304F5167010FA04
:1015800083F00C4B186004F00FF808B10F232B8187
:1015900003B030BDD4120020101100201823002009
:1015A000910E0008E4120020EC220020191100081E
:1015B000E0120020E82200202DE9F04F2DED028BF3
:1015C0000FF26429D9E900898D4C93B08D4E8E4F6E
:1015D000204601F0BBFE034660B30025CDE90F5560
:1015E0000E95ADF84450027B8DF844209968406810
:1015F000DFF83CA20FAA03C21B6843F000430E931E
:1016000001F09EFA821941F1000300950EA93846B7
:1016100000F08CFBA84205DD204601F09BFE8AF815
:101620000050D5E79AF80030072B00F2B68001335E
:101630008AF800300BAE9FED6E8B0023724FDFF8FF
:10164000F4A10A93ADF834300B9373604FF0000BA4
:101650005B468DED008B01250DF11D0207A9384673
:101660008DF81C508DF81DB000F0E2FE9DF81C3086
:10167000002B40F09680204601F09AFD0646002897
:1016800045D1624F01F05AFA3B6898423FD301F0CE
:1016900055FA8246FFF786FB4FF4C8730AF5167AAF
:1016A000B0FBF3F202FB13031AFA83F33B60584FCB
:1016B00097F800B0CBF1100ABBF1000F14BF33460E
:1016C0002B465FFA8AFA0EA88DF82830FFF782FBC6
:1016D000BAF1060F28BF4FF0060A0EAB03EB0B0161
:1016E00052460DF1290000F01DFA0AAB03931823AE
:1016F00002930AF10102474BD2B2CDE900530492A2
:1017000020463DA3D3E9002301F054FD3E7001F0D3
:1017100015FA414A414D1368C31AB3F57A7F2FD3A6
:10172000106001F00DFA02460B46204601F01CFE47
:10173000204601F03DFD18B32B7B394E002B14BF22
:1017400003230223737101F0F9F90EAF4FF47A739A
:101750003946B0FBF3F030603046FFF7DDFB18236D
:10176000073002932F4B0193C0F3CF0040F2551383
:10177000CDE90370009342464B46204601F01AFD26
:101780002B7B2BB1FFF736FB2B7B002B7FF41EAF9F
:1017900013B0BDEC028BBDE8F08F204601F0DAFDFE
:1017A00048E7DAF8143083F40043CAF81430594695
:1017B00010220EA800F0DCF90DF11E0308AA0AA9F8
:1017C000384600F0B1FB96E803000FAB83E8030056
:1017D0009DF834308DF844300A9B0E930EA9DDE954
:1017E0000823204601F07EFF30E700BFAFF3008002
:1017F0000000000000000000401DA12026812A0BEF
:10180000EC22002040420F0018230020E822002094
:10181000E5220020E4220020C8340020E833002024
:10182000D4120020CC340020F1C6A7C1D068080F24
:10183000CD3400200000024008B5054800F00EFC41
:10184000BDE80840034A0449002004F0CDBF00BFB2
:10185000182300201C35002029140008F7B5194E64
:101860000C464FF47A7102FB01F396F9002005460D
:10187000501C0BD11448019302682946176A22466E
:10188000B8478442019B03D1002310E0002AF1D025
:1018900096F90020511C01D0012A0DD10B48026895
:1018A0002946166A2246B047844205D10123084AD8
:1018B0000120137003B0F0BD4FF4FA7003F0FEF98D
:1018C0000020F7E71C1100204037002020350020C1
:1018D0001035002007B50023024601210DF1070055
:1018E0008DF80730FFF7BAFF20B19DF8070003B06D
:1018F0005DF804FB4FF0FF30F9E700000A4608B539
:101900000421FFF7ABFF80F00100C0B2404208BDE8
:1019100030B4074B0A461978064B53F82140236828
:10192000DD69054B0146AC46204630BC604700BF30
:1019300010350020786B0008A086010070B503F018
:1019400073FC094E094D3080002428683388834297
:1019500008D903F063FC2B6804440133B4F5803FDD
:101960002B60F2D370BD00BF12350020D0340020B0
:1019700003F01CBD00F1006000F580300068704786
:1019800000F10060920000F5803003F09BBC000085
:10199000054B1A68054B1B889B1A834202D91044D9
:1019A00003F03CBC00207047D034002012350020EA
:1019B00038B5074D04462868204403F037FC28B9A1
:1019C00028682044BDE8384003F048BC38BD00BF5B
:1019D000D034002010F003030AD1B0F5047F05D203
:1019E00000F10050A0F51040D0F8003818467047BC
:1019F0000023FBE700F10050A0F51040D0F8100ADA
:101A000070470000064991F8243033B10023086A7A
:101A100081F824300822FFF7B3BF0120704700BFD0
:101A2000D4340020014B1868704700BF002004E048
:101A300070B52A4B1B68C3F30B0204461B0C62B142
:101A400040F21340824230D040F2194082422ED000
:101A500040F2214082422CD10322214D0C2000FB78
:101A60000252556842F20102934224D0B3F5805FDE
:101A700023D041F20102934221D041F2030293426A
:101A80001FD041F20702934214BF3F233123013C90
:101A90000C44013D0A46A24215D215F9016F501CB3
:101AA0009EB100F8016C0246F5E70122D5E702225B
:101AB000D3E70C4DD6E73323E9E74123E7E75A2381
:101AC000E5E75923E3E7104605E02C25844215702D
:101AD00001D9901C5370401A70BD00BF002004E073
:101AE000486B00081C6B0008022802BF024B4FF035
:101AF00000429A61704700BF00000240022802BF06
:101B0000024B4FF400429A61704700BF0000024050
:101B1000022801BF024A536983F4004353617047AE
:101B20000000024010B50023934203D0CC5CC454A3
:101B30000133F9E710BD000010B5013810F9013F7D
:101B40003BB191F900409C4203D11AB10131013AF5
:101B5000F4E71AB191F90020981A10BD1046FCE77D
:101B600003460246D01A12F9011B0029FAD1704728
:101B700002440346934202D003F8011BFAE7704780
:101B80002DE9F8431F4D144695F824200746884652
:101B900052BBDFF870909CB395F824302BB920220B
:101BA000FF2148462F62FFF7E3FF95F82400C0F1BC
:101BB0000802A24228BF2246D6B24146920005EB57
:101BC0008000FFF7AFFF95F82430A41B1E44F6B247
:101BD000082E17449044E4B285F82460DBD1FFF767
:101BE00011FF0028D7D108E02B6A03EB8203834260
:101BF000CFD0FFF707FF0028CBD10020BDE8F88346
:101C00000120FBE7D4340020024B1A78024B1A70F3
:101C1000704700BF103500201C11002038B5154C4E
:101C2000154D204602F054FB2946204602F07CFB6D
:101C30002D6812486A6DD2F8043843F00203C2F8E6
:101C4000043803F03BF80E49284602F073FC6A6D35
:101C50000C48D2F804380C4923F00203C2F80438C7
:101C6000A0424FF461430B6003D0BDE8384002F05E
:101C70008FBA38BD40370020006D000840420F0089
:101C8000086D000820350020FC34002038B50B4BCF
:101C90001A780B4B53F822500A4B9D4204460CD045
:101CA000094B002118461422FFF762FF0460014629
:101CB0002846BDE8384002F06BBA38BD1035002028
:101CC000786B000840370020FC340020202383F389
:101CD000118862B670470000002383F3118862B652
:101CE0007047000010B4026854681A4623465DF835
:101CF000044B1847012070470020704700207047B0
:101D00007047000070470000002070470E207047A9
:101D100000F5805090F8C800C0F340007047000004
:101D200000F5805090F9C900704700002DE9F0419E
:101D30000C68BDF8187014F000541E466FD10B7B70
:101D4000082B6CD8FFF7C2FF4569AB685B010CD468
:101D5000AB681B0108D4AC6814F080545DD1FFF768
:101D6000BBFF2046BDE8F08101240B6804F1180C8C
:101D7000002BB8BFDB004FEA0C1CB4BF43F00403D8
:101D80005B0545F80C300B680FFA84FC13F0804FAC
:101D900018BF05EB0C1E05EB0C1C1EBFDEF88031D6
:101DA00043F00203CEF880310B7BCCF8843105EB95
:101DB00004158B68C5F88C314B68C5F88831DCF8A0
:101DC000803143F00103CCF8803100EB441541F23F
:101DD00068031D4403EB44130344C5E9002608339C
:101DE0000D4601F10C0C55F804EB43F804EB654586
:101DF000F9D184342D881D8000EB441407F00303CF
:101E0000257925F00B052B432371FFF765FF069716
:101E10003346BDE8F04100F0AFBC0224A5E74FF027
:101E2000FF309FE713B500F580540191E06D00F09D
:101E300039FD1F280AD90199E06D202200F0A8FD84
:101E4000A0F120035842584102B010BD0020FBE72A
:101E500008B500F58050FFF739FFC06D00F0F6FCC3
:101E6000BDE80840FFF738BF00220260828142606F
:101E70008260704710B500220023C0E900230023D0
:101E8000044603810C30FFF7EFFF204610BD000031
:101E9000F0B5054600F580500C4690F8C83013F0B8
:101EA000040FC3F3800108BF114661F3820304F1FC
:101EB000840680F8C83005EB461389B01B79D80733
:101EC0002ED57AB319072DD46846FFF7D3FF05EB5B
:101ED000441303F5835303F1180703AA103318685A
:101EE0005968144603C40833BB422246F7D1186828
:101EF00020609B88A380DDE90E23CDE90023012328
:101F0000ADF808302B6869461B6C2846984705EBEE
:101F100046152B791A075CBF43F008032B7101E0CB
:101F2000002AF4D109B0F0BD2DE9F047074688B08A
:101F300007F5805468469A468846FFF7C7FE9146E3
:101F4000FFF798FFE06D00F093FC1F2829D9E06DA2
:101F50002022694600F09EFD202822D103AD444690
:101F600005AB2E4603CE9E4220606160354604F1EB
:101F70000804F6D130682060B388A380DDE900232F
:101F8000C9E90023BDF80830AAF80030FFF7A4FE25
:101F90004A4653464146384608B0BDE8F04700F08F
:101FA000D9BBFFF799FE002008B0BDE8F08700001C
:101FB0002DE9F84F0023C0E90133254B044640F8D2
:101FC000183B0F46FFF750FF04F12800FFF752FFC0
:101FD00004F1480804F58255464608353046203657
:101FE000FFF748FFAE42F9D104F580554FF4805316
:101FF0004FF00009C5E91339C5F848800123EE65A3
:1020000004F5875804F58456C5F8549085F858307F
:1020100085F86030083608F108084FF0000A4FF0E4
:10202000000B46E908ABA6F11800FFF71DFF2036AC
:1020300046F8289C4645F4D185F8C97017B1054883
:1020400000F076FD044B63612046BDE8F88F00BFC9
:10205000A86B0008806B00080064004010B5044BBA
:10206000197804464A1C1A70FFF7A2FF204610BDDB
:10207000183500202DE9F047002950D0294B2A4F70
:10208000B7FBF1F599428CBF0A231123581EB5FB0B
:10209000F3FC03FB1C53C4B22BB102280346F5D852
:1020A0000020BDE8F0870CF1FF36B6F5806FF7D25F
:1020B000C4EBC40E0EF103034FEAE309C3F3C703F5
:1020C000A4EB030809F1010A4FF47A755FFA88F06E
:1020D00009FB05555AFA88F8B5FBF8F5B5F5617FA7
:1020E000C1BF0EF1FF33C3F3C703E01AC0B25C1CDB
:1020F00050FA84F40CFB04F4B7FBF4F4A142CFD102
:10210000013BDBB20F2BCBD80138C0B20728C7D8B0
:102110000021107116809170D3700120C1E708462C
:10212000BFE700BF3F420F0080DE800270B505466A
:102130000E464FF47A746B695B6803F00103B34297
:1021400007D04FF47A7002F0B9FD013CF3D120467C
:1021500070BD0120FCE7000030B54269936913F0BF
:10216000700F16D000230B4C936103F1840200EB37
:10217000421211794D0709D5890707D5416954F8ED
:1021800023508D60117941F0040111710133032B4B
:10219000EBD130BD946B000873B51D4643691646FC
:1021A0009A68D207044609D59A6801219960C2F35A
:1021B0004002CDE900650021FFF76AFE63699A6875
:1021C000D1050BD59A684FF480719960C2F3402213
:1021D000CDE9006501212046FFF75AFE63699A6840
:1021E000D2030BD59A684FF480319960C2F3404214
:1021F000CDE9006502212046FFF74AFE204602B0E5
:10220000BDE87040FFF7A8BFF8B50446466900294D
:102210006CD106F10C07386880076AD006EB01150F
:102220003868D5F8B00110F0040FD5F8B0011ABF26
:10223000C00840F00040400DA061D5F8B0C11CF0CE
:10224000020F1CBF40F08040A061D5F8B40106EB3E
:10225000011100F00F0084F82400D1F8B8012077B4
:10226000D1F8B801000A6077D1F8B801000CA07766
:10227000D1F8B801000EE077D1F8BC0184F8200055
:10228000D1F8BC01000A84F82100D1F8BC01000C8F
:1022900084F82200D1F8BC11090E84F823103821EB
:1022A000396004F1340004F1180104F1240551F8F7
:1022B000046B40F8046BA942F9D109880180C4E994
:1022C0000A2321460023238651F8283B20461B6C15
:1022D000984704F58052204692F8C83043F0040332
:1022E00082F8C830BDE8F840FFF736BF06F11007A6
:1022F00091E7F8BD10B5044600F022FC02460B46FB
:1023000052EA030102D0013A63F10003044908686C
:1023100020B12146BDE81040FFF776BF10BD00BFD9
:1023200014350020F8B500F583511E46FFF7CEFCAA
:10233000DFF844C00831002404F1840500EB4515A2
:102340002B795F070ED4DB060CD5D1E900739742D9
:10235000B34107D243695CF824709F602B7943F046
:1023600004032B710134032C01F12001E4D1BDE8F9
:10237000F840FFF7B1BC00BF946B000808B5FFF749
:10238000A5FCFFF7E9FEBDE80840FFF7A5BC00008B
:10239000F8B543690546986800F0E050B0F1E05F99
:1023A0000F461FD0E8B1FFF791FC05F583541034B8
:1023B000002606F1840305EB43131B791A0706D5A3
:1023C0000136032E04F12004F3D1012007E05B075E
:1023D000F6D42146384600F009FA0028F0D1FFF77C
:1023E0007BFCF8BD0120FCE700F5805008B5FFF745
:1023F0006DFCC06D00F03CFAFFF76EFC43090CBFAA
:102400000120002008BD0000F8B51D460023137010
:102410000F4606461446FFF7E7FF80F001003870CC
:1024200025B129463046FFF7B3FF2070F8BD000004
:102430002DE9B8410C4615461F46804600F080FB4A
:102440000B462178024609B9287850B14046FFF77B
:1024500069FFFFF793FF3B462A462146FFF7D4FF6B
:102460000120BDE8B881000010B5FFF72FFC174B25
:102470001A6C42F000721A641A6A42F000721A6210
:102480001A6A00F5805422F000721A62FFF724FCE9
:1024900094F8C830DB0718D4B9B102211320FFF734
:1024A00015FC01F0AFFC0221142001F0ABFC02216D
:1024B000152001F0A7FC94F8C83043F0010384F81C
:1024C000C830BDE81040FFF707BC10BD003802401F
:1024D0002DE9F04700F5805588B095F8C930012BFB
:1024E0000446884616467FD8804F57F823200AB9FD
:1024F00047F82300D7F800A0C4F80C802674BAF17E
:10250000000F63D095F8C930012B6FD00121204610
:10251000FFF7AAFFFFF7DAFB6269136823F00203F3
:1025200013606269136843F0010313606369002755
:102530005F6101212046FFF7CFFBFFF7F7FD002881
:1025400000F09580E86D00F081F904F58359BA46F2
:1025500009F10809202200216846FFF709FB02A8BB
:10256000FFF782FCCDF818A06A4609EB07030DF1CE
:10257000180E9446BCE80300F445186059606246A2
:1025800003F10803F5D1DCF80000186020379CF84F
:1025900004201A71602FDDD195F8C8306FF38203E3
:1025A000002785F8C8306A4641462046ADF80070DD
:1025B000ADF802708DF80470FFF75CFD636948BBED
:1025C0004FF400421A6008B0BDE8F08741F2D00035
:1025D00004F012F9814610B15146FFF7E9FCC7F843
:1025E0000090B9F1000F8DD10020ECE73868036846
:1025F0005B6B98470146002888D13868FFF734FFA5
:102600003868036832465B684146984700287FF483
:102610007DAFE9E761221A609DF802309DF8032042
:102620001B06120402F4702203F040731343BDF83A
:102630000020C2F3090213439DF804201205022E64
:1026400002F4E0020CBF4FF0004100211343626925
:102650000B43D361636913225A616269136823F0E3
:102660000103136039462046FFF760FD08B963692E
:10267000A6E795F8C93093BB6169D1F8002242F012
:102680000102C1F800226169D1F8002222F47C52D3
:1026900022F00E02C1F800226169D1F8002242F452
:1026A0006062C1F800226269C2F814326269C2F83D
:1026B0000432626941F6FF71C2F80C126269C2F815
:1026C00040326269C2F8443263690122C3F81C22B5
:1026D0006269D2F8003223F00103C2F8003295F8A3
:1026E000C83043F0020385F8C8306CE71435002089
:1026F00008B500F025FA50EA0103024602D0421E56
:1027000061F10001044B186810B10B46FFF744FD5E
:10271000BDE8084001F044BA1435002008B5002097
:10272000FFF7E8FDBDE8084001F03ABA08B501201E
:10273000FFF7E0FDBDE8084001F032BA13B56C4682
:1027400084E80600031D94E8030083E805000120E7
:1027500002B010BD73B58568019155B11B885B0748
:1027600007D4D0E90036DB6B9847019AC1B23046F6
:10277000A847012002B070BDF0B5866889B0054653
:102780000C465EB1BDF838305B070AD4D0E900379B
:10279000DB6B98472246C1B23846B047012009B0EA
:1027A000F0BD00220023CDE900230023ADF808305E
:1027B0000A4603AB01F10806106851681C4603C4C1
:1027C0000832B2422346F7D1106820609288A28076
:1027D00000F0B8F90423ADF808302B68CDE900010A
:1027E0001B6C694628469847D8E7000030B5036857
:1027F0000968DD0FB5EBD17F23F0604421F0604222
:102800004FEAD1700BD0002BB8BFA40C0029B8BF81
:10281000920C944202D034BF0120002030BD94427B
:1028200005D1C1F38070C3F380738342F6D1944223
:102830002CBF00200120F1E710B5037C044613B93A
:10284000006804F011F8204610BD00000023BFF31B
:102850005B8FC360BFF35B8FBFF35B8F8360BFF39E
:102860005B8F7047BFF35B8F0068BFF35B8F704770
:1028700070B505460C30FFF7F5FF05F10806044674
:102880003046FFF7EFFFA04206D930466D68FFF7EC
:10289000E9FF2544281A70BD3046FFF7E3FF201AF0
:1028A000F9E7000070B50546406898B105F10800E9
:1028B000FFF7D8FF05F10C0604463046FFF7D2FFBC
:1028C0008442304694BF6D680025FFF7CBFF013C82
:1028D0002C44201A70BD000038B50C460546FFF7A1
:1028E000C7FFA04210D305F10800FFF7BBFF044467
:1028F0006868B4FBF0F100FB1144BFF35B8F01206B
:10290000AC60BFF35B8F38BD0020FCE72DE9F041E0
:10291000144607460D46FFF7C5FF844228BF04460C
:10292000D4B1B84658F80C6B4046FFF79BFF3044D3
:10293000286040467E68FFF795FF331A9C4203D813
:102940006C600120BDE8F0816B60A41B3B68AB604C
:102950002044E8600220F5E72046F3E738B50C464E
:102960000546FFF79FFFA04210D305F10C00FFF7CB
:1029700079FF04446868B4FBF0F100FB1144BFF335
:102980005B8F0120EC60BFF35B8F38BD0020FCE75C
:102990002DE9FF41884669460746FFF7B7FF6C46B9
:1029A00006B204EBC6060025B44209D0626820686E
:1029B00008EB0501FFF7B6F8636808341D44F3E738
:1029C00029463846FFF7CAFF284604B0BDE8F08123
:1029D000F8B505460C300F46FFF744FF05F1080631
:1029E00004463046FFF73EFFA042304688BF6C6881
:1029F000FFF738FF201A386020B130462C68FFF707
:102A000031FF2044F8BD000073B5144606460D465C
:102A1000FFF72EFF844228BF04460190DCB101A9D4
:102A20003046FFF7D5FF019B33B93268C5E9023361
:102A3000C5E9002401200CE09C4238BF01942860C5
:102A4000019868608442F5D93368AB60241AEC6061
:102A5000022002B070BD2046FBE700002DE9FF41D7
:102A60000F466946FFF7D0FF6C4600B204EBC00585
:102A70000026AC4209D0D4F8048054F8081BB819D9
:102A80004246FFF74FF84644F3E7304604B0BDE84E
:102A9000F081000038B50546FFF7E0FF0446014627
:102AA0002846FFF719FF204638BD000000B59BB04F
:102AB000EFF3098168226846FFF734F8EFF30583E6
:102AC000044B9A6BDA6A9A6A9A6A9A6A9A6A9A6A5A
:102AD0009B6AFEE700ED00E000B59BB0EFF30981D3
:102AE00068226846FFF71EF8EFF30583044B9A6BE4
:102AF0009A6A9A6A9A6A9A6A9A6A9B6AFEE700BF19
:102B000000ED00E000B59BB0EFF309816822684654
:102B1000FFF708F8EFF30583034B5A6B9A6A9A6A3A
:102B20009A6A9A6A9B6AFEE700ED00E0FEE7000001
:102B30000FB408B5029802F051F8FEE702F080BC2D
:102B400002F058BC02F056BC30B5094D0A4491421F
:102B50000DD011F8013B5840082340F30004013B1D
:102B60002C4013F0FF0384EA5000F6D1EFE730BDAC
:102B70002083B8EDF7B54FF0FF33DFF854C0DFF82E
:102B800054E000EB81011A4688421CD050F8044BF7
:102B9000019401AF042417F8015B82EA056208255D
:102BA000DB18164605F1FF355241002EBCBF83EA03
:102BB0000C0382EA0E0215F0FF05F1D1013C14F07E
:102BC000FF04E8D1E0E7D843D14303B0F0BD00BF34
:102BD0009336EAA9EBE1F04273B5374A10685168C1
:102BE0006B4603C36A4635493548082303F054FE53
:102BF000044670B9334A106851686B4603C36A468D
:102C000031492F48082303F047FE044628BB0A2019
:102C100021E00369B3F5702FECD8428BB2F5856FD4
:102C2000E8D12A4A024402F110018B42E2D3103B60
:102C3000234900209D1AFFF787FF2A46064604F124
:102C400018010020FFF780FFA3689E42D2D1E368FD
:102C50009842CFD1002002B070BD0369B3F5702F48
:102C600021D8B0F86620B2F5856F1ED1174A02440C
:102C700002F15C018B421AD35C3B114900209D1A82
:102C8000FFF762FF2A46064604F164010020FFF7C1
:102C90005BFFA268964203460BD1E068834214BFF3
:102CA0000D200020D7E70B20D5E70C20D3E710201C
:102CB000D1E70D20CFE700BFEC6B0008DCFF0E0072
:102CC00000000108F56B000890FF0E000800FFF7F8
:102CD0002DE9F041C56915B9C161BDE8F0814B68C6
:102CE00023F06047C3F38A464FEAD37EC3F380786C
:102CF00016EA230638BF3E46AC462B465A68BEEB62
:102D0000D27F22F060440AD0002A18DAA40CB44220
:102D100017D19D420FD10D60DEE71346EEE7A742C3
:102D200007D102F08044C2F3807242450BD054B107
:102D3000EFE708D2EDE7CCF800100B60CDE7B44226
:102D400001D0B442E5D81A689C46002AE5D1196042
:102D5000C3E700002DE9F047089D01F007044FEAA2
:102D6000D508224405F0070500EBD1004FF47F4958
:102D7000944201D1BDE8F08704F0070705F0070A87
:102D800057453E4638BF5646C6F10806111B8E42CF
:102D900028BF0E46E10808EBD50E415C13F80EC0C3
:102DA000B94029FA06F721FA0AF1FFB28CEA0101CB
:102DB00047FA0AF739408CEA010C03F80EC0344494
:102DC0003544D5E780EA0120082341F2210201B20F
:102DD0004000002980B203F1FF33B8BF504013F028
:102DE000FF03F4D17047000038B50C468D18A5429A
:102DF00000D138BD14F8011BFFF7E4FFF7E700002E
:102E000002684AB113680360C388018901339BB229
:102E10009942C38038BF03811046704770B588B0AF
:102E2000202204460D4668460021FEF7A1FE2046FA
:102E30000495FFF7E5FF024658B16B46054608AE1C
:102E40001C4603CCB44228606960234605F108059E
:102E5000F6D1104608B070BD082817D909280CD043
:102E60000A280CD00B280CD00C280CD00D280CD024
:102E70000E2814BF4020302070470C2070471020CF
:102E800070471420704718207047202070470000BA
:102E9000082817D90C280CD910280CD914280CD9BB
:102EA00018280CD920280CD930288CBF0F200E20D0
:102EB0007047092070470A2070470B2070470C208C
:102EC00070470D207047000010B54B6823B9CA8ABF
:102ED00063F30902CA8210BDC4681A681C60C3602B
:102EE000438A013B43824A60EFE700002DE9F84F37
:102EF0001D46CB8A0F46C3F3090105298146924638
:102F00000B4630D00020AAB207F11A049EB2042E5C
:102F10001FFA80F80FD8904503F1010306D3FB8A0E
:102F20000A4462F30903FB8201201AE01AF80060E8
:102F3000E6540130EAE79045F1D2A1F1050B1C23DC
:102F40007C68BBFBF3F203FB12BB1FFA8BF6002C71
:102F500045D14846FFF754FF044638B978606FF012
:102F60000200BDE8F88F4FF00008E6E70026066093
:102F70007860ADB24FF0000B454510D90AEB08035D
:102F8000221D13F8011B9155B1B208F101081B294C
:102F90001FFA88F82BD0454506F10106F1D8FB8AC7
:102FA000C3F30902154465F30903BCE7013292B289
:102FB0001C462368002BF9D16B1F0B441C21B3FB6B
:102FC000F1F301339BB29A42D3D2BBF1000FD0D1BF
:102FD0004846FFF715FF20B9C4F800B0BFE701224B
:102FE000E7E7C0F800B05E4620600446C1E745450B
:102FF000D5D94846FFF704FF08B92060AFE7C0F80D
:1030000000B0002620600446B6E700002DE9F04F2E
:103010002DED028B83B0CDE90013BDF83C5007467F
:103020009146002A00F092802DB10E9B002B00F0FB
:103030008D80072D32D807F10C00FFF7E1FE044622
:1030400038B96FF00204204603B0BDEC028BBDE836
:10305000F08F14220021FEF78BFD0E992A4604F111
:103060000800FEF75FFD681CC0B2FFF711FFFFF715
:10307000F3FE207499F80030013814FA80F003F060
:103080001F0363F03F030372009B43F00041616044
:1030900038462146FFF71CFE0124D4E700F10C035B
:1030A0004FF0000808EE103A4FF0800A46464446BA
:1030B00018EE100AFFF7A4FE83460028C1D01422A0
:1030C0000021FEF755FDC6BB019BABF8083002207E
:1030D0000E9B00F1080299195BFA82F20130C0B22E
:1030E000082801D0AE422AD3FFF7D2FEFFF7B4FE84
:1030F00099F80020009B411E02F01F0242EA48128C
:10310000AE4208BF4FF0400A5BFA81F14AEA020A78
:1031100043F0004281F808A08BF81000CBF804209F
:1031200059463846FFF7D4FD0134AE4224B288F048
:1031300001084FF0000ABBD185E70020C8E711F86D
:1031400001CB02F801CB0136B6B2C7E76FF001043C
:1031500079E70000F8B515460E46282200210446FE
:103160001F46FEF705FD069B6360B5F5001F079B34
:10317000A76034BF6A094FF6FF72236204F10C00A6
:1031800097B200239A4205D8002303602782638206
:10319000A382F8BD0660013330462036F2E7000016
:1031A00003781BB94BB2002BC8BF017070470000F9
:1031B000007870472DE9F74FDDF83C90BDF83050AE
:1031C0000D9E9DF83840BDF84070804692469B4663
:1031D000B9F1000F01D1002F51D11F2C4FD898F811
:1031E0000000B0B9072F47D835F0030347D13A465E
:1031F00049464FF6FF70FFF7F7FD20F001002D0262
:10320000400445EA0464400C44EA40244FF6FF734E
:1032100021E040EA0520072F40EA0464F6D90025A2
:103220004FF6FF73C5F12000A5F120022AFA05F13F
:103230000BFA00F001432BFA02F211431846C9B20F
:10324000FFF7C0FD0835402D0346EBD13A4649460D
:10325000FFF7CAFD0346CDE90097324621464046B6
:10326000FFF7D4FE33780133DBB21F2B88BF002376
:10327000337003B0BDE8F08F6FF00300F9E76FF033
:103280000100F6E72DE9F04F85B09246DDF8488061
:103290000F9D9DF840209DF84490BDF84C70064667
:1032A0009B46B8F1000F01D1002F48D11F2A46D804
:1032B0003378002B46D00C0244EA02649DF83810A3
:1032C00044EAC93444EA01441C43072F44F0800413
:1032D00032D900234FF6FF72C3F1200CA3F1200076
:1032E0002AFA03F10BFA0CFC41EA0C012BFA00F06C
:1032F0000143C9B210460393FFF764FD039B0833F3
:10330000402B0246E8D13A464146FFF76DFD0346A1
:10331000CDE900872A4621463046FFF777FEB9F10E
:10332000010F06D12B780133DBB21F2B88BF00239E
:103330002B7005B0BDE8F08F4FF6FF73E8E76FF034
:103340000100F6E76FF00300F3E70000C06900B189
:1033500004307047C3691A68C261C2681A60C360EA
:10336000438A013B438270472DE9F041D0F8188031
:10337000194E14461D464146002709B9BDE8F081A3
:10338000D1E90223A21A65EB0303964277EB03030C
:103390001ED283698B420DD1FFF796FD83691B68AE
:1033A0008361C3680B60438AC1608169013B4382CA
:1033B0008846E2E7FFF788FD0B68C8F80030C3686D
:1033C0000B60438AC160013B4382D8F80010D4E708
:1033D00088460968D1E700BF80841E002DE9F04FC0
:1033E0008BB00D46DDF8509014469B468046002871
:1033F00000F01981B9F1000F00F01581531E3F2B29
:1034000000F21181012A03D1BBF1000F40F00B81C2
:103410000023CDE90833B8F81430B5EBC30F4FEAF9
:10342000C30703D300200BB0BDE8F08F2B199F42D8
:10343000D8F80C303ABF7F1BFFB227461BB9D8F82B
:103440001030002B7AD0272D4ED8C5F12806B74270
:103450004FF000032CBFF6B23E4600932946D8F841
:10346000080008AB3246FFF775FCA7EB060A3544A7
:103470005FFA8AFAB8F8143003F10053053BDB0019
:103480000493D8F80C3003932821039B13B1BAF1AD
:10349000000F2CD1D8F8100040B1BAF1000F05D0C0
:1034A000009608AB5246691AFFF754FC38B2002F59
:1034B000B8D066070AD00AAB03EBD401624211F818
:1034C000083C02F00702134101F8083C082C3CD9E3
:1034D000102C40F2B580202C40F2B780BBF1000FD9
:1034E00000F09C80082334E0BA460026C2E7049B23
:1034F000E02B28BFE02306930B44AB42059314D97D
:103500005A1B03980096924534BF5246D2B2691AAC
:1035100008AB04300792FFF71DFC079A1644AAEB8C
:10352000020A1544F6B25FFA8AFA049B069A0599D4
:103530009B1A0493039B1B680393A6E70093D8F898
:10354000080008AB3A462946AEE7BBF1000F13D09E
:103550000123B4EBC30F6CD0082C12D89DF8203097
:10356000621E23FA02F2D50706D54FF0FF3202FAA7
:1035700004F423438DF820309DF8203089F8003082
:1035800051E7102C12D8BDF82030621E23FA02F247
:10359000D10706D54FF0FF3202FA04F42343ADF809
:1035A0002030BDF82030A9F800303CE7202C0FD89F
:1035B0000899631E21FA03F3DA0705D54FF0FF32AD
:1035C00002FA04F40C430894089BC9F800302AE777
:1035D000402C2BD0DDE90865611EC4F12102A4F165
:1035E000210326FA01F105FA02F225FA03F3114349
:1035F0001943CB0712D50122A4F12003C4F1200105
:1036000002FA03F322FA01F1A240524243EA010313
:1036100063EB430332432B43CDE90823DDE9082361
:10362000C9E90023FFE66FF00100FCE66FF0080037
:10363000F9E6082CA0D9102CB3D9202CEED8C3E77A
:10364000BBF1000FADD0022383E7BBF1000FBBD06D
:1036500004237EE730B5012A144638BF0124402CEC
:1036600085B028BF40240025012ACDE9025518D88D
:103670001B788DF8083063070AD004AB03EBD40540
:10368000624215F8083C02F00702934005F8083C36
:10369000009103462246002102A8FFF75BFB05B01C
:1036A00030BD082AE4D9102A03D81B88ADF80830A9
:1036B000E1E7202A8DBFD3E900231B680293CDE9FF
:1036C0000223D8E710B5CB681BB98B600B618B82E6
:1036D00010BDC4681A681C60C360438A013B438202
:1036E000CA60F0E72DE9F04F95B0CDE904230B68EF
:1036F00004460D461806C3F3C01147BFC3F3C03BD1
:10370000C3F306264FF0020B0E46002B80F2018217
:1037100013F0C04940F0FD812A7B002A00F0F981B6
:10372000BBF1020F03D02078B04240F0F581C3F323
:103730000460089003F07F00069069B3C3F3074A62
:103740002A44069B92F80380760646EA0B4646EA30
:10375000834600220023CDE90A235FEAD81346EA14
:103760000A0603936CD0069B009367685B4652463B
:103770000AA92046B847002800F0D181A76997B967
:10378000314604F10C00FFF749FB0746D8B96FF04A
:10379000020015B0BDE8F08FC3F30F2A590608BF29
:1037A0000AF0030ACCE73B699E420DD03F68002F28
:1037B000F9D1314604F10C00FFF730FB0746002831
:1037C000E5D0A3693B60A761FE7D08F01F03C6F347
:1037D0008406F01A1FFA80FC0028B8BF0CF1200004
:1037E0000793A3EB06031FFA83FCD7E90221B8BFB6
:1037F00000B2002B0993BEBF0CF120031BB209934A
:1038000052EA010333D0049EDFF8D0C2B21A059EFB
:1038100066EB01010026944576EB010327D395F86A
:103820000DE097F81AC0E64514D1039B002B76D023
:1038300001281CDCA848904276EB010314D336E043
:10384000A76917B96FF00C00A3E73B699E42BBD094
:103850003F68F6E7A048904276EB010301D30020D1
:1038600097E7039B002BFAD0099B0F2B18DCFA7DFE
:103870004FEA880302F0030203F07C031343FB7555
:1038800039462046FFF720FB6B7BBB76039B3BB999
:10389000FB7DC3F38402013262F38603FB75D1E73B
:1038A0006A7BBB7E9A42DAD1039B002B37D04FEA6A
:1038B0009813022B33D0049BBB60059BFB60142242
:1038C00000210FA8FEF754F9049B0C93059B0D9360
:1038D0002B1D0E932B7BADF846A0013BDBB2ADF860
:1038E0004430079B8DF84930089B8DF84A30069B81
:1038F0008DF84B3094F824308DF848B083F00103F4
:103900008DF84C300CA9A36820469847FB7DC3F383
:103910008403013303F01F039B02FB829FE7FB7DBF
:10392000C8F34012B2EBD31F40F0FC80079AC3F3F8
:103930008403934240F0F98003992B7B4FEA98125D
:1039400000294ED0D2075ED4032B40F2F180049BB5
:10395000BB60059BFB602B7BAE1D033BDBB232469D
:10396000394604F10C00FFF7C1FA00280DDA2046B1
:103970003946FFF7A9FAFB7DC3F38403013303F053
:103980001F039B02FB82032003E7DDE90A84AB8867
:103990003B834FF6FF73C9F12000A9F1200228FAFA
:1039A00009F104FA00F0014324FA02F21143184627
:1039B000C9B2FFF707FA09F10809B9F1400F034648
:1039C000E9D1B8822A7B033AD2B23146FFF70CFA2A
:1039D000FB7DB882DA43C2F3C01262F3C713FB75F2
:1039E0003DE782B92E1D013BDBB23246394604F178
:1039F0000C00FFF77BFA0028B9DB2A7BB88A013A72
:103A0000D2B23146E2E7F98AC1F30901013B042948
:103A1000DAB25BD8281D002307F11B069A4208D9A9
:103A200010F801CB06F801C0013101330529DBB2E2
:103A3000F4D104990C9105990D91934207F11B0162
:103A40000E9138BF043379680F9134BF55FA83F370
:103A500000231093FB8AADF846A0C3F309031A4470
:103A6000079B8DF84930089B8DF84A30069B8DF8EE
:103A70004B3094F82430ADF8442083F001038DF8E6
:103A80004C3000238DF848B07B602A7BB88A013A1D
:103A9000291DFFF7A9F93B8BB882834203D1A368A4
:103AA0000CA92046984720460CA9FFF70BFEFB7D8A
:103AB000B88AC3F38403013303F01F039B02FB8224
:103AC0003B8B984214BF1120002062E67B68002BDC
:103AD000AFD0052006E000BF40420F0080841E00EA
:103AE0001C3033461E68002EFAD1091A081D2E1DFF
:103AF000184401EB090CBCF11B0F5FFA89F398D84D
:103B00009A4296D916F8013B00F8013B09F10109E8
:103B1000EFE76FF009003CE66FF00A0039E66FF05E
:103B20000B0036E66FF00D0033E66FF00E0030E666
:103B30006FF00F002DE600BFEFF3098305494A6BD4
:103B400022F001024A63683383F30988002383F378
:103B50001188704700EF00E0202080F3118862B6E2
:103B60000C4B0D4AD96821F4E0610904090C0A43A1
:103B7000DA60D3F8FC20094942F08072C3F8FC20D7
:103B80000A6842F001020A601022DA7783F8220004
:103B9000704700BF00ED00E00003FA05001000E0F0
:103BA00010B5202383F311880E4B5B6813F4006378
:103BB00014D0F1EE103AEFF30984683C4FF08073B3
:103BC000E361094BDB6B236684F3098800F0B8FFDF
:103BD00010B1064BA36110BD054BFBE783F31188C1
:103BE000F9E700BF00ED00E000EF00E04B06000841
:103BF0004E060008024AD36843F0C003D360704702
:103C000000440040044B5A6810439A6858600AB157
:103C1000181D1047704700BF203500202DE9F041E6
:103C20003C4ED6F89C50EF682B68DA059CB20CD558
:103C3000202383F311884FF40070FFF7E3FF6FF444
:103C400080732B60002383F31188202383F3118872
:103C5000DFF8C08014F02F0339D183F311883806C0
:103C600013D5210611D5202383F311882A4800F0AB
:103C7000EFF900284CDA0820FFF7C4FF4FF67F73F6
:103C80003B40EB60002383F311887A0615D5630669
:103C900013D5202383F31188D6E913239A4209D13F
:103CA000336C3BB127F040073F0410203F0CFFF777
:103CB000A9FFEF60002383F31188D6F8A420D3680E
:103CC0000BB110699847BDE8F041FFF769BF2307C2
:103CD00012D014F0080F0CBF00208020E10748BF6D
:103CE00040F02000A20748BF40F04000630748BFF3
:103CF00040F48070FFF786FFA4066B6805D596F840
:103D0000A0104046194000F051FA2C68A4B2A1E777
:103D10006860B7E7203500205835002010B5054C05
:103D2000054A0021204600F013FA044BC4F89C30E9
:103D300010BD00BF20350020F53B000800440040C6
:103D400038B52A4C037C002918BF0C46012B0546C8
:103D5000C0F8A44010D1264B98420DD1254B1A6CC7
:103D600042F400321A641A6E42F400321A660B21D1
:103D700026201B6E00F046F8D5F89C201E492368CB
:103D80008A424FEA530003D001F580618A422AD16A
:103D90001A490144B4F90400B1FBF3F30028BEBF93
:103DA00023F0070003F0070343EA4003A188936070
:103DB000E38843F040031361238943F00103536117
:103DC00041F4045343F02C03D36001F4A0510023C9
:103DD0001360B1F5806F136853680CBF7F23FF2316
:103DE00085F8A03038BD0649D3E700BF006C000855
:103DF00020350020003802400010014000BD0105C0
:103E000080DE800200F1604303F561430901C9B21D
:103E100083F80013012200F01F039A4043099B001E
:103E200003F1604303F56143C3F880211A607047D2
:103E3000F8B5154682680669AA420B46816938BF03
:103E40008568761AB54204460BD218462A46FDF715
:103E500069FEA3692B44A361A3685B1BA36028468A
:103E6000F8BD0CD918463246FDF75CFEAF1BE16881
:103E70003A463044FDF756FEE3683B44EBE718460C
:103E80002A46FDF74FFEE368E5E7000083689342AA
:103E9000F7B51546044638BF8568D0E90460361A80
:103EA000B5420BD22A46FDF73DFE63692B446361A0
:103EB000A36828465B1BA36003B0F0BD0DD9324652
:103EC0000191FDF72FFE0199E068AF1B3A4631449E
:103ED000FDF728FEE3683B44E9E72A46FDF722FEAA
:103EE000E368E4E710B50A440024C361029B8460E0
:103EF000C0E90000C0E90511C1600261036210BDA4
:103F000008B5D0E90532934201D1826882B982684E
:103F1000013282605A1C42611970D0E904329A421F
:103F200024BFC3684361002100F0E4FE002008BD07
:103F30004FF0FF30FBE7000070B5202304460E462B
:103F400083F31188A568A5B1A368A269013BA360AA
:103F5000531CA36115782269934224BFE368A361CF
:103F6000E3690BB120469847002383F31188284664
:103F700007E03146204600F0ADFE0028E2DA85F386
:103F8000118870BD2DE9F74F04460E461746984636
:103F9000D0F81C904FF0200A8AF311884FF0000BE4
:103FA000154665B12A4631462046FFF741FF0346D4
:103FB00060B94146204600F08DFE0028F1D0002374
:103FC00083F31188781B03B0BDE8F08FB9F1000FBF
:103FD00003D001902046C847019B8BF31188ED1A4E
:103FE0001E448AF31188DCE7C0E90511C160C36192
:103FF0001144009B8260C0E90000016103627047C8
:10400000F8B504460D461646202383F31188A768A9
:10401000A7B1A368013BA36063695A1C62611D706C
:10402000D4E904329A4224BFE3686361E3690BB1C7
:1040300020469847002080F3118807E0314620464B
:1040400000F048FE0028E2DA87F31188F8BD00008E
:10405000D0E905239A4210B501D182687AB9826805
:10406000013282605A1C82611C7803699A4224BF23
:10407000C3688361002100F03DFE204610BD4FF073
:10408000FF30FBE72DE9F74F04460E4617469846EA
:10409000D0F81C904FF0200A8AF311884FF0000BE3
:1040A000154665B12A4631462046FFF7EFFE034626
:1040B00060B94146204600F00DFE0028F1D00023F3
:1040C00083F31188781B03B0BDE8F08FB9F1000FBE
:1040D00003D001902046C847019B8BF31188ED1A4D
:1040E0001E448AF31188DCE70268436811430160CB
:1040F00003B11847704700001430FFF743BF0000BA
:104100004FF0FF331430FFF73DBF00003830FFF7AA
:10411000B9BF00004FF0FF333830FFF7B3BF0000E6
:104120001430FFF709BF00004FF0FF311430FFF7E4
:1041300003BF00003830FFF763BF00004FF0FF32CD
:104140003830FFF75DBF000000207047FFF7E6BD85
:1041500037B515460D4A026000224260C0E90222CE
:104160000122044602740B46009000F15C012022FB
:104170001430FFF7B7FE00942B46202204F17C0197
:1041800004F13800FFF730FF03B030BD146C0008B5
:1041900010B52023044683F31188FFF7D1FD0223D5
:1041A0002374002383F3118810BD000038B5C36960
:1041B00004460D461BB904210844FFF795FF294624
:1041C00004F11400FFF79CFE002806DA201D4FF4CE
:1041D0008061BDE83840FFF787BF38BD026843689B
:1041E0001143016003B118477047000013B5446BD9
:1041F000D4F894341A681178042915D1217C022945
:1042000012D11979128901238B4013420CD101A9D3
:1042100004F14C0001F070FFD4F89444019B217923
:104220000246206800F0CEF902B010BD143001F053
:10423000F3BE00004FF0FF33143001F0EDBE00007C
:104240004C3001F0C5BF00004FF0FF334C3001F09F
:10425000BFBF0000143001F0C1BE00004FF0FF31BD
:10426000143001F0BBBE00004C3001F091BF0000E3
:104270004FF0FF324C3001F08BBF00000020704740
:1042800010B5D0F894341A6811780429044617D16F
:10429000017C022914D15979528901238B401342A0
:1042A0000ED1143001F054FE024648B1D4F89444C3
:1042B0004FF4807361792068BDE8104000F070B958
:1042C00010BD0000406BFFF7DBBF0000704700002F
:1042D0007FB5124B036000234360C0E90233012520
:1042E00002260F4B057404460290019300F18402EC
:1042F000294600964FF48073143001F005FE094BF7
:104300000294CDE9006304F523724FF480732946CB
:1043100004F14C0001F0CCFE04B070BD3C6C000810
:10432000C5420008ED4100080B68202282F3118885
:104330000A7903EB820290614A79093243F822003C
:104340008A7912B103EB8203986102230374C0F8E7
:104350009414002383F311887047000038B5037F5D
:10436000044613B190F85430ABB9201D0125022149
:10437000FFF734FF04F1140025776FF0010100F01E
:10438000C5FC84F8545004F14C006FF00101BDE805
:10439000384000F0BBBC38BD10B5012104460430E4
:1043A000FFF71CFF0023237784F8543010BD000072
:1043B00038B504460025143001F0BEFD04F14C0070
:1043C000257701F08DFE201D84F854500121FFF760
:1043D00005FF2046BDE83840FFF752BF90F8443053
:1043E00003F06003202B07D190F84520212A4FF0DD
:1043F000000303D81F2A06D800207047222AFBD1C9
:10440000C0E90E3303E0034A82630722C2630364F8
:10441000012070471D11002037B5D0F894341A6878
:104420001178042904461AD1017C022917D119797F
:10443000128901238B40134211D100F14C0528460B
:1044400001F00EFF58B101A9284601F055FED4F83D
:104450009444019B21790246206800F0B3F803B030
:1044600030BD0000F0B500EB810385B09E690446C5
:104470000D46FEB1202383F3118804EB8507301D20
:104480000821FFF7ABFEFB685B691B6806F14C0077
:104490001BB1019001F03EFE019803A901F02CFE32
:1044A000024648B1039B2946204600F08BF80023C2
:1044B00083F3118805B0F0BDFB685A691268002AC1
:1044C000F5D01B8A013B1340F1D104F14402EAE725
:1044D000093138B550F82140DCB1202383F311882D
:1044E000D4F894241368527903EB8203DB689B6948
:1044F0005D6845B104216018FFF770FE294604F19C
:10450000140001F02FFD2046FFF7BAFE002383F3CD
:10451000118838BD7047000001F0F2B80123037024
:104520000023C0E90133C36183620362C362436253
:104530000363704738B50446202383F311880025B0
:10454000C0E90355C0E90555416001F0E9F80223CF
:10455000237085F3118838BD70B500EB81030546E3
:104560005069DA600E46144618B110220021FDF79A
:10457000FFFAA06918B110220021FDF7F9FA3146BF
:104580002846BDE8704001F095B90000826802F04D
:10459000011282600022C0E90422826101F016BA91
:1045A000F0B400EB81044789E4680125A4698D40DB
:1045B0003D43458123600023A2606360F0BC01F0AD
:1045C00031BA0000F0B400EB81040789E4680125EA
:1045D00064698D403D43058123600023A2606360D0
:1045E000F0BC01F0ABBA000070B502230025044610
:1045F0000370C0E90255C0E90455C564856180F8BF
:10460000345001F0F3F863681B6823B12946204653
:10461000BDE87040184770BD037880F8503005231E
:10462000037043681B6810B504460BB1042198471A
:104630000023A36010BD000090F850204368027072
:104640001B680BB1052118477047000070B590F842
:104650003430044613B1002380F8343004F14402AE
:10466000204601F0D5F963689B68B3B994F84430EB
:1046700013F0600535D00021204601F027FC002111
:10468000204601F019FC63681B6813B1062120461F
:104690009847062384F8343070BD20469847002898
:1046A000E4D0B4F84A30E26B9A4288BFE36394F9ED
:1046B0004430E56B002B4FF0200380F20381002D86
:1046C00000F0F280092284F8342083F3118800215D
:1046D000D4E90E232046FFF775FF002383F31188EA
:1046E000DAE794F8452003F07F0343EA022340F21F
:1046F0000232934200F0C58021D8B3F5807F48D0C4
:104700000DD8012B3FD0022B00F09380002BB2D1AB
:1047100004F14C02A2630222E2632364C1E7B3F511
:10472000817F00F09B80B3F5407FA4D194F84630A0
:10473000012BA0D1B4F84C3043F0020332E0B3F5C2
:10474000006F4DD017D8B3F5A06F31D0A3F5C0637B
:10475000012B90D8636894F846205E6894F847105F
:10476000B4F848302046B047002884D04368A3639B
:104770000368E3631AE0B3F5106F36D040F60242E7
:1047800093427FF478AF5C4BA3630223E36300237F
:10479000C3E794F84630012B7FF46DAFB4F84C308A
:1047A00023F00203C4E90E55A4F84C30256478E7E1
:1047B000B4F84430B3F5A06F0ED194F8463084F8C5
:1047C0004E30204601F06AF863681B6813B101217E
:1047D00020469847032323700023C4E90E339CE747
:1047E00004F14F03A3630123C3E72378042B10D103
:1047F000202383F311882046FFF7C8FE85F3118834
:104800000321636884F84F5021701B680BB1204668
:10481000984794F84630002BDED084F84F300423BC
:10482000237063681B68002BD6D00221204698476E
:10483000D2E794F848301D0603F00F0120460AD550
:1048400001F0D8F8012804D002287FF414AF2B4BD4
:104850009AE72B4B98E701F0BFF8F3E794F846305E
:10486000002B7FF408AF94F8483013F00F01B3D059
:104870001A06204602D501F03DFBADE701F030FB02
:10488000AAE794F84630002B7FF4F5AE94F8483050
:1048900013F00F01A0D01B06204602D501F016FB35
:1048A0009AE701F009FB97E7142284F8342083F398
:1048B00011882B462A4629462046FFF771FE85F3CC
:1048C0001188E9E65DB1152284F8342083F311885C
:1048D0000021D4E90E232046FFF762FEFDE60B22FD
:1048E00084F8342083F311882B462A462946204633
:1048F000FFF768FEE3E700BF6C6C0008646C00081B
:10490000686C000838B590F834300446002B3ED06F
:10491000063BDAB20F2A34D80F2B32D8DFE803F087
:10492000373131082232313131313131313137379C
:10493000C56BB0F84A309D4214D2C3681B8AB5FBE0
:10494000F3F203FB12556DB9202383F311882B4634
:104950002A462946FFF736FE85F311880A2384F894
:1049600034300EE0142384F83430202383F311888C
:1049700000231A4619462046FFF712FE002383F350
:10498000118838BD036C03B198470023E7E7002185
:10499000204601F09BFA0021204601F08DFA636861
:1049A0001B6813B10621204698470623D7E700006D
:1049B00010B590F83430142B044629D017D8062BA4
:1049C00005D001D81BB110BD093B022BFBD800213B
:1049D000204601F07BFA0021204601F06DFA636861
:1049E0001B6813B1062120469847062319E0152BB2
:1049F000E9D10B2380F83430202383F3118800237E
:104A00001A461946FFF7DEFD002383F31188DAE723
:104A1000C3689B695B68002BD5D1036C03B19847D1
:104A2000002384F83430CEE7024B0022C3E9003380
:104A30009A607047C8350020002303748268054BD4
:104A40001B6899689142FBD25A680360426010600B
:104A500058607047C835002008B5202383F31188BB
:104A6000037C032B05D0042B0DD02BB983F31188C5
:104A700008BD436900221A604FF0FF334361FFF71E
:104A8000DBFF0023F2E7D0E9003213605A60F3E75E
:104A9000002303748268054B1B6899689142FBD818
:104AA0005A6803604260106058607047C835002043
:104AB000054B19690874186802681A605360186118
:104AC00001230374FBF7ACBDC835002030B54B1C87
:104AD0000B4D87B0044610D02B690A4A01A800F09C
:104AE00031F92046FFF7E4FF049B13B101A800F061
:104AF00065F92B69586907B030BDFFF7D9FFF8E7B2
:104B0000C8350020594A000838B50C4D41612B6961
:104B100081689A689142044603D8BDE83840FFF79F
:104B20008BBF1846FFF7B4FF01232C6101462374A5
:104B30002046BDE83840FBF773BD00BFC8350020F4
:104B4000044B1A681B6990689B68984294BF0020C8
:104B500001207047C835002010B5084C2368206933
:104B60001A6822605460012223611A74FFF790FFD3
:104B700001462069BDE81040FBF752BDC835002052
:104B800008B5FFF7DDFF18B1BDE80840FFF7E4BF47
:104B900008BD0000FFF7E0BFFEE7000010B50C4CB9
:104BA000FFF742FF00F0C0F80A498022204600F0DB
:104BB00047F8012344F8180C0374FEF7CDFF0023D7
:104BC00083F3118862B60448BDE8104000F058B87D
:104BD000F0350020706C0008806C000808B572B6D3
:104BE000034B586200F0F6FB00F0A8FCFEE700BFA4
:104BF000C835002000F01CB9EFF3118020B9EFF3A5
:104C00000583202282F311887047000010B530B967
:104C1000EFF30584C4F3080414B180F3118810BDC8
:104C2000FFF7AEFF84F31188F9E70000034A5168EB
:104C300053685B1A9842FBD8704700BF001000E031
:104C400082600222028270478368A3F17C0243F8EB
:104C50000C2C026943F83C2C426943F8382C074A73
:104C600043F81C2CC26843F8102C022203F8082CCD
:104C7000002203F8072CA3F118007047390600083A
:104C800010B5202383F31188FFF7DEFF00210446CF
:104C9000FFF73AFF002383F31188204610BD000080
:104CA000024B1B6958610F20FFF702BFC835002077
:104CB000202383F31188FFF7F3BF000008B50146F6
:104CC000202383F311880820FFF700FF002383F3DC
:104CD000118808BD49B1064B42681B6918605A60CB
:104CE000136043600420FFF7F1BE4FF0FF307047C0
:104CF000C83500200368984206D01A6802605060E8
:104D000059611846FFF798BE7047000038B5044651
:104D10000D462068844200D138BD036823605C6082
:104D20004561FFF789FEF4E7054B03F11402C3E97F
:104D300005224FF0FF310022C3E90712704700BF80
:104D4000C835002070B51C4EC0E9032305460C464B
:104D500001F0B8FA334653F8142F9A420DD130625D
:104D6000C5E901242A600A2C2CBF00190A30C6E9C3
:104D70000555BDE8704001F093BA316A431AE31853
:104D800038BF1C469368A34202D9081901F096FA6D
:104D900073699A6894420CD85A68AC602B606A6058
:104DA00015609A685D60121B9A604FF0FF33F361E3
:104DB00070BD1B68A41AECE7C835002038B51B4C41
:104DC000636998420DD0D0E9003213605A60002226
:104DD0008168C2609A680A449A604FF0FF33E361C9
:104DE00038BD2246036842F8143F002193425A60BE
:104DF000C16003D1BDE8384001F05ABA9A688168B1
:104E0000256A0A449A6001F05DFA63699A68411B59
:104E10008A42E5D9AB181D1A092D206A98BF01F105
:104E20000A02BDE83840104401F048BAC8350020F5
:104E30002DE9F041184C002704F11406656901F0D2
:104E400041FA236AAA68C11A8A4215D81344236218
:104E5000D5E9003213605A606369D5F80C80EF60C1
:104E6000B34201D101F024FA87F311882869C047C1
:104E7000202383F31188E1E76169B14209D013442B
:104E80001B1ABDE8F0410A2B2CBFC0180A3001F0F4
:104E900015BABDE8F08100BFC83500200C230360BF
:104EA0004FF0FF307047000000207047FEE7000021
:104EB000704700004FF0FF307047000002290CD00F
:104EC000032904D00129074818BF00207047032A8E
:104ED00005D8054800EBC200704704487047002021
:104EE000704700BF646D00082C110020186D000889
:104EF00070B59AB00546084601A9144600F0C2F8FC
:104F000001A8FCF72DFE431C5B00C5E9003400221C
:104F1000237003236370C6B201AB02341046D1B2D2
:104F20008E4204F1020401D81AB070BD13F8011BBF
:104F300004F8021C04F8010C0132F0E708B5202344
:104F400083F311880348FFF767FA002383F311887E
:104F500008BD00BF4037002090F8443003F01F0226
:104F6000012A07D190F845200B2A03D10023C0E97C
:104F70000E3315E003F06003202B08D1B0F8483061
:104F80002BB990F84520212A03D81F2A04D8FFF70F
:104F900025BA222AEBD0FAE7034A82630722C263CA
:104FA00003640120704700BF2411002007B50529C4
:104FB00017D8DFE801F0191603191920202383F30D
:104FC0001188104A01900121FFF7C6FA01980E4A94
:104FD0000221FFF7C1FA0D48FFF7EAF9002383F336
:104FE000118803B05DF804FB202383F31188074880
:104FF000FFF7B4F9F2E7202383F311880348FFF7A2
:10500000CBF9EBE7B86C0008DC6C000840370020F7
:1050100038B50C4D0C4C0D492A4604F10800FFF739
:1050200067FF05F1CA0204F110000949FFF760FFAC
:1050300005F5CA7204F118000649BDE83840FFF7CB
:1050400057BF00BF083C00202C110020986C0008BE
:10505000A26C0008AD6C000870B5044608460D4609
:10506000FCF77EFDC6B22046013403780BB9184622
:1050700070BD32462946FCF75FFD0028F3D10120C0
:10508000F6E700002DE9F04705460C46FCF768FD01
:105090002B49C6B22846FFF7DFFF08B10636F6B245
:1050A00028492846FFF7D8FF08B11036F6B2632E1C
:1050B0000BD8DFF88C80DFF88C90234FDFF894A0BA
:1050C0002E7846B92670BDE8F08729462046BDE80F
:1050D000F04701F0FDBC252E2ED10722414628467F
:1050E000FCF72AFD70B9194B224603F10C0153F865
:1050F000040B42F8040B8B42F9D11B78137007356F
:105100000D34DDE7082249462846FCF715FD98B91D
:105110000F4BA21C197809090232C95D02F8041C60
:1051200013F8011B01F00F015345C95D02F8031C80
:10513000F0D118340835C3E704F8016B0135BFE737
:10514000846D0008AD6C00089A6D00088C6D000835
:10515000107AFF1F1C7AFF1FBFF34F8F024AD368DC
:10516000DB03FCD4704700BF003C024008B5094B8C
:105170001B7873B9FFF7F0FF074B1A69002ABFBF0E
:10518000064A5A6002F188325A601A6822F4806234
:105190001A6008BD663E0020003C024023016745BE
:1051A00008B50B4B1B7893B9FFF7D6FF094B1A696B
:1051B00042F000421A611A6842F480521A601A687A
:1051C00022F480521A601A6842F480621A6008BDA4
:1051D000663E0020003C02400B28F0B516D80C4C6F
:1051E0000C4923787BB90C4D0E460C234FF000621E
:1051F00055F8047B46F8042B013B13F0FF033A44B7
:10520000F6D10123237051F82000F0BD0020FCE707
:10521000983E0020683E0020AC6D0008014B53F81A
:1052200020007047AC6D00080C2070470B2810B5AB
:10523000044601D9002010BDFFF7CEFF064B53F8FE
:1052400024301844C21A0BB90120F4E71268013265
:10525000F0D1043BF6E700BFAC6D00080B2838B571
:10526000044628D8FFF7C8FCFFF776FFFFF77EFF5C
:10527000124AF323D360E300DBB243F4007343F03C
:1052800002031361136943F480331361054620461A
:10529000FFF762FFFFF7A0FF094B53F8241000F05F
:1052A00049F92846FFF77CFFFFF7B0FC2046BDE830
:1052B0003840FFF7BBBF002038BD00BF003C0240B4
:1052C000AC6D000812F001032DE9F04105460E46D1
:1052D00014464BD18218B2F1016F61D8314B1B6873
:1052E00013F001035CD0304FFFF786FCFFF73EFF61
:1052F000F323FB60FFF730FF314640F20128032C17
:1053000018D824F00104284E0C446D1A40F20118FC
:10531000A142336905EB01072AD123F00103336170
:10532000FFF73EFFFFF772FC0120BDE8F081043C6F
:105330000435E4E7AB07E4D13B6923F440733B61F8
:105340003B6943EA08033B6151F8046B2E60BFF3ED
:105350004F8FFFF701FF2B689E42E8D03B6923F097
:1053600001033B61FFF71CFFFFF750FC0020DCE767
:1053700023F440733361336943EA080333610B88D4
:105380003B80BFF34F8FFFF7E7FE3F8831F8023BCA
:10539000BFB2BB42BCD0336923F001033361E1E704
:1053A0001846C2E700380240003C0240084908B5F0
:1053B0000B7828B11BB9FFF7D9FE01230B7008BD8C
:1053C000002BFCD0BDE808400870FFF7E9BE00BF25
:1053D000663E002008B54FF400314FF0005000F059
:1053E000ABF8BDE808404FF480314FF0805000F03A
:1053F000A3B8000070B582B0FFF7FEFB0E4E054665
:1054000000F060FF3268904237BF0C4A0B49516888
:1054100014682EBFD1E900410131516004190346DF
:1054200041F10001284601913360FFF7EFFB01993C
:10543000204602B070BD00BF9C3E0020A03E002070
:1054400070B582B0FFF7D8FB104E054600F03AFF6A
:105450003268904237BF0E4A0D49516814682EBF1A
:10546000D1E9004101315160041941F100010346C5
:10547000284601913360FFF7C9FB01994FF47A7216
:1054800000232046FAF7B4FE02B070BD9C3E002017
:10549000A03E002010B50244064BD2B2904200D18B
:1054A00010BD441C00B253F8200041F8040BE0B2D8
:1054B000F4E700BF502800400F4B30B51C6F2404A8
:1054C00007D41C6F44F400741C671C6F44F4004440
:1054D0001C670A4C236843F4807323600244084B22
:1054E000D2B2904200D130BD441C00B251F8045BEE
:1054F00043F82050E0B2F4E700380240007000406A
:105500005028004007B5012201A90020FFF7C2FF83
:10551000019803B05DF804FB13B50446FFF7F2FFF2
:10552000A04205D0012201A900200194FFF7C4FF89
:1055300002B010BD704700007047000070470000C7
:10554000074B45F255521A6002225A6040F6FF722C
:105550009A604CF6CC421A60024B01221A707047D6
:1055600000300040AC3E0020034B1B781BB1034BC6
:105570004AF6AA221A607047AC3E00200030004074
:10558000034B1A681AB9034AD2F874281A60704794
:10559000A83E002000300240024B4FF08072C3F85A
:1055A000742870470030024008B5FFF7E9FF024B4E
:1055B0001868C0F3407008BDA83E002008B5FFF78A
:1055C000DFFF024B1868C0F3007008BDA83E002042
:1055D00070470000FEE700000A4B0B480B4A904260
:1055E0000BD30B4BDA1C121AC11E22F003028B42A2
:1055F00038BF00220021FCF7BBBA53F8041B40F867
:10560000041BECE7C06F0008BC3F0020BC3F00203B
:10561000BC3F00207047000070B5D0E915439E687C
:1056200000224FF0FF3504EB42135101D3F800097B
:105630000028BEBFD3F8000940F08040C3F800093D
:10564000D3F8000B0028BEBFD3F8000B40F0804019
:10565000C3F8000B013263189642C3F80859C3F827
:10566000085BE0D24FF00113C4F81C3870BD000095
:105670001D4B03EB80022DE9F043D2F80CC05D6DA9
:10568000DCF81420461CD2F800E005EB063605EBEA
:105690004018516871450AD3D5F83438012202FA0E
:1056A00000F023EA0000C5F83408BDE8F083BCF838
:1056B0001040AEEB0103A34228BF2346D8F8184997
:1056C000A4B2B3EB840FF0D89468A4F1040959F89C
:1056D000047F3760A4EB09071F44042FF7D81C444C
:1056E0000B4494605360D4E7B03E0020890141F040
:1056F0002001016103699B06FCD41220FFF796BAD2
:1057000010B5054C2046FEF709FF4FF0A043636536
:10571000024BA36510BD00BFB03E0020006E000824
:1057200070B50378012B054650D12A4B446D984241
:105730001BD1294B5A6B42F080025A635A6D42F0DA
:1057400080025A655A6D5A6942F080025A615A695C
:1057500022F080025A610E2143205B69FEF752FB62
:105760001E4BE3601E4BC4F800380023C4F8003E13
:10577000C02323606E6D4FF40413A3633369002BC1
:10578000FCDA012333610C20FFF750FA3369DB07A1
:10579000FCD41220FFF74AFA3369002BFCDA00260A
:1057A000A6602846FFF738FF6B68C4F81068DB680E
:1057B000C4F81468C4F81C684BB90A4BA3614FF0D5
:1057C000FF336361A36843F00103A36070BD064B20
:1057D000F4E700BFB03E0020003802404014004013
:1057E00003002002003C30C0083C30C0F8B5446DD6
:1057F000054600212046FFF779FFA96D00234FF0F1
:1058000001128F68C4F834384FF00066C4F81C28C1
:105810004FF0FF3004EB431201339F42C2F800699E
:10582000C2F8006BC2F80809C2F8080BF2D20B6884
:105830006A6DEB65636210231361166916F010063A
:10584000FBD11220FFF7F2F9D4F8003823F4FE63FD
:10585000C4F80038A36943F4402343F01003A36164
:105860000923C4F81038C4F814380A4BEB604FF021
:10587000C043C4F8103B084BC4F8003BC4F810699F
:10588000C4F80039EB6D03F1100243F48013EA65AC
:10589000A362F8BDDC6D000840800010426D90F8F6
:1058A0004E10D2F8003823F4FE6343EA0113C2F825
:1058B000003870472DE9F84300EB8103456DDA6845
:1058C000166806F00306731E022B05EB41130C4607
:1058D00080460FFA81F94FEA41104FF00001C3F8FA
:1058E000101B4FF0010104F1100398BFB60401FA38
:1058F00003F391698EBF334E06F1805606F50046DC
:1059000000293AD0578A04F15801490137436F50B2
:10591000D5F81C180B43C5F81C382B180021C3F808
:10592000101953690127611EA7409BB3138A928BFC
:105930009B08012A88BF5343D8F85C20981842EA94
:10594000034301F1400205EB8202C8F85C002146E6
:1059500053602846FFF7CAFE08EB8900C3681B8A1C
:1059600043EA8453483464011E432E51D5F81C3851
:105970001F43C5F81C78BDE8F88305EB4917D7F835
:10598000001B21F40041C7F8001BD5F81C1821EAC0
:105990000303C0E704F13F0305EB83030A4A5A609F
:1059A00028462146FFF7A2FE05EB4910D0F8003942
:1059B00023F40043C0F80039D5F81C3823EA070760
:1059C000D7E700BF0080001000040002826D12685B
:1059D000C265FFF721BE00005831436D49015B5895
:1059E00013F4004004D013F4001F0CBF0220012068
:1059F000704700004831436D49015B5813F4004083
:105A000004D013F4001F0CBF0220012070470000D7
:105A100000EB8101CB68196A0B6813604B68536017
:105A20007047000000EB810330B5DD68AA69136898
:105A3000D36019B9402B84BF402313606B8A14686C
:105A4000426D1C44013CB4FBF3F46343033323F085
:105A5000030302EB411043EAC44343F0C043C0F8E0
:105A6000103B2B6803F00303012B09B20ED1D2F8CF
:105A7000083802EB411013F4807FD0F8003B14BFCC
:105A800043F0805343F00053C0F8003B02EB411257
:105A9000D2F8003B43F00443C2F8003B30BD0000A5
:105AA0002DE9F041244D6E6D06EB40130446D3F80A
:105AB000087BC3F8087B38070AD5D6F814381907CD
:105AC00006D505EB84032146DB6828465B689847CA
:105AD000FA071FD5D6F81438DB071BD505EB84036E
